:1000000005C100000C9420340C944B340C947634CD
:100010000C94A1340C94CC340C94F7340C94223509
:100020000C944D3524C1000022C1000020C1000005
:100030001EC100001CC100001AC1000018C1000050
:1000400016C1000014C1000012C1000010C1000060
:100050000EC100000CC100000AC100000C947835EC
:1000600006C100000C9474390C94AA3900C1000038
:10007000FEC00000FCC00000FAC00000F8C0000094
:10008000F6C00000F4C00000F2C00000F0C00000A4
:100090000C94003A0C94363AEAC00000E8C0000024
:1000A000E6C00000E4C00000E2C00000E0C00000C4
:1000B000DEC00000DCC00000DAC00000D8C00000D4
:1000C000D6C00000D4C000000C941E2F0C948C3AB3
:1000D0000C94C23ACCC000000C94183B0C944E3BDC
:1000E000C6C0000000000A0B02090C0D0E08070331
:1000F00004010000000000000000000000000000FB
:1001000000000000000000000000000000000000EF
:1001100012111000000000000000000000000000AC
:100120000000000000000000000001021020200874
:100130000810204010204080020102010804020142
:1001400001020408102040808040201008040201B1
:10015000800402018040201008040201080402010A
:100160000102040810204080010204081020408091
:1001700005050505070508080808020202020A0A23
:100180000808040404040101010101010101030341
:10019000030303030303040707070C0C0C0C0C0CEC
:1001A0000C0C0202020206060606060606060B0BE9
:1001B0000B0B0B0B0B0B000020002300260029006B
:1001C0002C002F003200000100000301060109018C
:1001D00000002200250028002B002E0031003400F2
:1001E00002010000050108010B01000021002400AC
:1001F00027002A002D003000330001010000040117
:1002000007010A01D3395F3AEB3A773B11241FBE4D
:10021000CFEFD1E2DEBFCDBF00E00CBF13E0A0E026
:10022000B2E0E4E9F8E700E00BBF02C007900D92EE
:10023000A234B107D9F72AE0A2E4B3E001C01D92CD
:10024000A135B207E1F711E0C6E0D1E000E006C059
:1002500021970109802FFE010E94173CC230D1076F
:1002600080E00807A9F70E9410300C94483CC8CEE3
:10027000611102C00C94B9376130E1F362E0FACF4A
:10028000662319F061E00C94F53760E0FCCFCF9263
:10029000DF92EF92FF92CF93882351F16A017B01A5
:1002A000CFEFC80F20E030E0A901CB01B6010E94DA
:1002B000183118168CF0C701B60190580E94893188
:1002C0009B01AC016C2F70E090E080E0CF91FF903B
:1002D000EF90DF90CF90B2C0C701B6010E94843189
:1002E0008C2FCF91FF90EF90DF90CF900C947F36C2
:1002F000CF91FF90EF90DF90CF9008950F931F93D1
:100300008B019C0183E036952795179507958A9573
:10031000D1F70E5B1C4F462F477021E030E0F9010A
:1003200002C0EE0FFF1F4A95E2F7AF01F8012081EE
:100330002423CB010196211102C090E080E01F919F
:100340000F9108950F931F938B019C0183E03695C5
:100350002795179507958A95D1F7677081E090E00A
:1003600001C0880F6A95EAF7F801EE5BFC4F208127
:10037000452B31F48095822380831F910F9108953E
:10038000822BFACF2F923F924F925F926F927F9281
:100390008F929F92AF92BF92CF92DF92EF92FF9295
:1003A0000F931F93CF93DF93D62EC72E782E692EEF
:1003B00049015A01280161E08D2D0E94B937CD2DE8
:1003C000DC2D8E010F5F1F4FA8016D2D7C2D872D19
:1003D000962DB8DF20E030E0A901C201B7010E94EC
:1003E0000833181664F4C201B7010E9489312B0149
:1003F000C501B4010E948931A201CE0123D0C801F8
:10040000DF91CF911F910F91FF90EF90DF90CF90F0
:10041000BF90AF909F908F907F906F905F904F9024
:100420003F902F900895882341F08150682F70E00D
:1004300090E080E050E040E085CF0895862FB9013C
:100440000C947F369C01FC01EC51FF4FE491E1508C
:10045000E231E0F4F0E08827EF5CFD4F8F4F0C9421
:10046000173C43024A024D026402790246028E02A0
:100470009A029E02B502CA02DF02F6020B0346028E
:10048000200337034C0384B5806884BD60E0822F6D
:100490000C94F53784B58062F8CF809180008C7F12
:1004A00082608093800080918100807E8061682BD3
:1004B0006093810050938700409386008091800074
:1004C000806880938000E2CF809180008C7F826082
:1004D0008093800080918100807E8061682B609392
:1004E0008100509387004093860080918000806255
:1004F000E8CF809180008C7F826080938000809123
:100500008100807E8061682B60938100509387001A
:1005100040938600809180008860D3CF8091B000A6
:1005200080688093B0008091B100887F682B6093D1
:10053000B100ACCF8091B0008062F3CF8091900089
:100540008C7F82608093900080919100807E80619A
:10055000682B609391005093970040939600809190
:10056000900080688093900091CF809190008C7F64
:1005700082608093900080919100807E8061682BE2
:100580006093910050939700409396008091900063
:100590008062E8CF809190008C7F82608093900091
:1005A00080919100807E8061682B609391005093D0
:1005B000970040939600809190008860D3CF8091FF
:1005C000A0008C7F82608093A0008091A100807E3B
:1005D0008061682B6093A1005093A7004093A60010
:1005E0008091A00080688093A00050CF8091A000EF
:1005F0008C7F82608093A0008091A100807E8061CA
:10060000682B6093A1005093A7004093A6008091AF
:10061000A0008062E8CF8091A0008C7F82608093F0
:10062000A0008091A100807E8061682B6093A10072
:100630005093A7004093A6008091A0008860D3CF7C
:10064000809120018C7F8260809320018091210124
:10065000807E8061682B6093210150932701409335
:100660002601809120018068809320010FCF809126
:1006700020018C7F82608093200180912101807E07
:100680008061682B609321015093270140932601DC
:10069000809120018062E8CF809120018C7F826070
:1006A0008093200180912101807E8061682B60937E
:1006B00021015093270140932601809120018860F9
:1006C000D3CFCF93DF93EC0170E060E06C177D0730
:1006D0000CF5072E000C880B990B0E94B73120E017
:1006E00030E0A9010E94A13020E030E0A9010E9481
:1006F000A13020E030E040E450E40E94A13020E04E
:1007000030E040E450E40E94A0300E9484316F5FEA
:100710007F4FDCCFDF91CF910895CF93DF9380910E
:100720005B0390915C030E942238EC01809161038D
:1007300090916203C6DF80915D0390915E030E94F9
:100740002238019771F480915F03909160032197A3
:1007500071F401969093600380935F03DF91CF91D2
:10076000089580915F0390916003CD2B91F30197E1
:10077000F1CFCF93DF9380915303909154030E9464
:100780002238EC018091590390915A039ADF8091AD
:100790005503909156030E942238019771F480917D
:1007A000570390915803219771F401969093580341
:1007B00080935703DF91CF910895809157039091D3
:1007C0005803CD2B91F30197F1CFCF93DF93809115
:1007D0004B0390914C030E942238EC01809151030D
:1007E000909152036EDF80914D0390914E030E94D1
:1007F0002238019771F480914F0390915003219713
:1008000071F401969093500380934F03DF91CF9141
:10081000089580914F0390915003CD2B91F3019750
:10082000F1CFCF93DF9380915503909156030E94AF
:100830002238EC018091590390915A0342DF809154
:100840005303909154030E942238019771F48091D0
:10085000570390915803CD2B71F401969093580350
:1008600080935703DF91CF91089580915703909122
:100870005803219791F30197F1CFCF93DF938091A4
:100880004D0390914E030E942238EC018091510358
:100890009091520316DF80914B0390914C030E947C
:1008A0002238019771F480914F0390915003CD2B22
:1008B00071F401969093500380934F03DF91CF9191
:1008C000089580914F0390915003219791F30197E0
:1008D000F1CFCF93DF9380915D0390915E030E94EF
:1008E0002238EC018091610390916203EADE8091ED
:1008F0005B0390915C030E942238019771F4809110
:100900005F0390916003CD2B71F401969093600387
:1009100080935F03DF91CF91089580915F03909161
:100920006003219791F30197F1CF0F931F93CF931A
:10093000DF938C01EC0183E0CC0FDD1F8A95E1F79A
:10094000C55BDC4F798368835B834A8388819981A7
:1009500060E00E94B9378A819B8160E00E94B937CC
:100960008881998161E00E94F5378A819B8161E0ED
:100970000E94F53701301105D9F10230110509F453
:1009800066C0012B09F092C080914B0390914C03FB
:1009900002978431910530F587579D4FFC01808186
:1009A000082E000C990B41E050E06DE374E00E94CA
:1009B000A63380914D0390914E03029784319105A7
:1009C000A0F487579D4FFC018081082E000C990BE5
:1009D00041E050E065EE73E0DF91CF911F910F9100
:1009E0000C94A6338FEF9FEFDECF8FEF9FEFF0CF0A
:1009F000809153039091540302978431910508F537
:100A000087579D4FFC018081082E000C990B41E017
:100A100050E061E174E00E94A6338091550390910B
:100A2000560302978431910578F487579D4FFC0156
:100A30008081082E000C990B41E050E069EB73E0D7
:100A4000CBCF8FEF9FEFE3CF8FEF9FEFF5CF80916D
:100A50005B0390915C0302978431910508F58757F9
:100A60009D4FFC018081082E000C990B41E050E065
:100A700069E674E00E94A63380915D0390915E0365
:100A800002978431910578F487579D4FFC0180814E
:100A9000082E000C990B41E050E06DE873E09CCF0C
:100AA0008FEF9FEFE3CF8FEF9FEFF5CFDF91CF91E8
:100AB0001F910F91089523E0880F991F2A95E1F760
:100AC000FC01E55BFC4F84819581089590E080E016
:100AD00008950F931F93009709F489C0611571055C
:100AE00009F485C0009150021091510220915202E8
:100AF000309153020E3F1F4F2F4F3F4F09F068C0F8
:100B00004FEF5FEFBA014093500250935102609350
:100B100052027093530240915002509151026091E1
:100B2000520270915302DC011296ED91FC9180818A
:100B30009181A281B3818093630490936404A09314
:100B40006504B093660484819581A681B781809302
:100B50005F0490936004A0936104B0936204808565
:100B60009185A285B38580935B0490935C04A093E8
:100B70005D04B0935E0484859585A685B7858093D2
:100B8000570490935804A0935904B0935A041092B8
:100B900053041092540410925504109256040E946B
:100BA000021387E293E1909364038093630390932D
:100BB0006603809365030E94F111009731F421E0F0
:100BC00030E030936804209367041F910F910895DB
:100BD0000091500210915102209152023091530223
:100BE000DB010D931D932D933C93139794CF8FEFBF
:100BF0009FEFEBCF8F929F92AF92BF92CF92DF92F7
:100C0000EF92FF921F93CF93DF934B015C01109102
:100C10006A0482E090E090936804809367048114F2
:100C20009104A104B10441F480916A04811104C0CB
:100C300080916904C1E08111C0E0C12CD12C760102
:100C400080916A04811106C080916904811102C0FB
:100C5000CC23D9F083E090E09093680480936704FC
:100C6000CC2381F1CCE9DFEF111102C00E948C1678
:100C7000CE01DF91CF911F91FF90EF90DF90CF9049
:100C8000BF90AF909F908F9008956AE070E080E0F1
:100C900090E00E94E73580E1C80E87E2D81EE11C93
:100CA000F11C8FEF88169806A806B80631F0C1E04F
:100CB0008C149D04AE04BF0408F0C0E080E00E94E4
:100CC0002512BECFD0E0C0E0CFCFCF92DF92EF921F
:100CD000FF920F931F93CF93DF938F3F910511F0F6
:100CE00008F051C020916704309168042330310529
:100CF00039F020916704309168042130310531F4D6
:100D000024E030E030936804209367046A017B019B
:100D1000EC0182309105A8F011E0AE01C701B601E7
:100D20000E94F011AB01BC01CE011123F9F0DF915B
:100D3000CF911F910F91FF90EF90DF90CF900C9487
:100D4000B5188C01000F111F0D591C4FD8018D9142
:100D50009C91892B09F30E94BF180297E9F6D801EC
:100D6000ED91FC91CE011995182FD7CF0E94D7187D
:100D700090E080E0DF91CF911F910F91FF90EF9075
:100D8000DF90CF9008958FEF9FEFF4CF80E00C9429
:100D90002512CF93DF9386E090E0909368048093D0
:100DA00067040E947E12EC01E3E6F3E084E0DF01D9
:100DB0001D928A95E9F70E942416109268041092F9
:100DC0006704CE01DF91CF91089580916904089561
:100DD0008091520408956093500270935102809361
:100DE00052029093530290E080E008952F923F9238
:100DF0004F925F926F927F928F929F92AF92BF922B
:100E0000CF92DF92EF92FF920F931F93CF93DF93D6
:100E1000CDB7DEB7CB54D1090FB6F894DEBF0FBE05
:100E2000CDBF26967FAF6EAF269728965FAF4EAFA9
:100E300028973E8B2D8B2C96FFAEEEAE2C97FB01A8
:100E4000E150F04CEE0FFF1FEE0FFF1FE80FF91FF0
:100E500080809180A280B3808F8A988EA98EBA8E6E
:100E6000B501A401442777FD4395552766277727C9
:100E700029964FAF2997F901E150F04CEE0FFF1F73
:100E8000EE0FFF1F2896AEACBFAC2897EA0DFB1DF6
:100E9000C080D180E280F380CB8EDC8EED8EFE8E22
:100EA000B701A601442777FD439555276627772785
:100EB0002A964FAF2A97188B0F87F80130E020E071
:100EC0002C96EEACFFAC2C972E153F050CF43FC0D2
:100ED00022969FAF8EAF22971A8B098B312C212C33
:100EE000812C912C540183948D829E82AF82B8868E
:100EF00026968EAC9FAC2697281439047CF129964F
:100F00009FAC29972A96AFAC2A9730E020E041E0C9
:100F100050E060E070E09A10F5C1C55BDF4F0FB69E
:100F2000F894DEBF0FBECDBFDF91CF911F910F911F
:100F3000FF90EF90DF90CF90BF90AF909F908F90F9
:100F40007F906F905F904F903F902F9008951192F7
:100F50001192119211922F5F3F4FB2CF2296EEADB8
:100F6000FFAD229781919191A191B1912296FFAF0E
:100F7000EEAF22978F88988CA98CBA8CB7FE23C0CD
:100F80004D815E816F8178854150510961097109F8
:100F90005A016B01A81AB90ACA0ADB0AD601C501AF
:100FA00021E0CD80DE80EF80F8848C159D05AE05B4
:100FB000BF0508F020E0822E912CB12CA12C8D824F
:100FC0009E82AF82B8865D01CC24DD24A8A2B9A29E
:100FD000CAA2DBA29C01AD01442755272CA33DA347
:100FE0004EA35FA32C96EEADFFAD2C97E219F3094B
:100FF0008D889E888E169F060CF4F4012896AEAC60
:10100000BFAC28972496BFAEAEAE2497C988DA88C5
:10101000DC8ACB8A1E861D86812C912C54018394F8
:1010200089869A86AB86BC86812C912C5401CD840E
:10103000DE84CE16DF0604F1F7FF02C0F0E0E0E048
:10104000E20DF31D2C96EEACFFAC2C97EE15FF05D0
:1010500054F4EE0FFF1FEE0FFF1FE00FF11F808211
:101060009182A282B3822FEF221A320AE989FA8989
:101070003496FA8BE98B3CCF2496AEADBFAD249766
:10108000CD90DD90ED90FD902496BFAFAEAF24974C
:101090002B8D3C8D4D8D5E8D57FF22C089859A85A5
:1010A000AB85BC850197A109B109AC01BD014C1903
:1010B0005D096E097F096A017B0181E029853A8516
:1010C0004B855C85C216D306E406F50608F080E081
:1010D000482F50E070E060E049875A876B877C8733
:1010E000B7018827992768A779A78AA79BA7EE2425
:1010F000FF2428A139A14AA15BA1C701B6010E9422
:10110000D23B2B013C012CA13DA14EA15FA168A5C2
:1011100079A58AA59BA50E94D23B6CA77DA78EA727
:101120009FA7AB89BC894D915D916D917D91BC8BE1
:10113000AB8BDB01CA01880D991DAA1DBB1D8983DC
:101140009A83AB83BC8391E09F8F29813A814B8145
:101150005C81281539054A055B0508F01F8E2CA116
:101160003DA14EA15FA1C701B6010E94D23B6B0118
:101170007C0189809A80AB80BC808C0C9D1CAE1C4D
:10118000BF1C89829A82AB82BC8252019924882436
:1011900088AA99AAAAAABBAA29813A814B815C8113
:1011A000280D391D4A1D5B1D2CAB3DAB4EAB5FAB13
:1011B0008CA49DA4AEA4BFA454019924882488AE15
:1011C00099AEAAAEBBAE280D391D4A1D5B1D2CAFD2
:1011D0003DAF4EAF5FAFAB89BC8914972D933D9364
:1011E0004D935C93139728A139A14AA15BA168A5EF
:1011F00079A58AA59BA50E94D23B9F8C690D711D84
:10120000811D911D230166247724460E571E681EFA
:10121000791E2CA53DA54EA55FA54A01AA24BB2495
:10122000840C951CA61CB71C81E090E0A0E0B0E007
:1012300049815A816B817C814C155D056E057F0566
:1012400018F080E090E0DC01880D991DAA1DBB1DFF
:1012500041E050E060E070E088A899A8AAA8BBA887
:10126000CCA8DDA8EEA8FFA8C814D904EA04FB04A2
:1012700018F040E050E0BA01840F951FA61FB71F79
:10128000812C912C54018394C8ACD9ACEAACFBAC52
:101290002CAD3DAD4EAD5FAD2C153D054E055F054A
:1012A00018F0812C912C5401880E991EAA1EBB1E89
:1012B0004D855E854F5F5F4F5E874D87B8CEEF856A
:1012C000F889C190D190E190F190F88BEF87DB0124
:1012D000CA010197A109B1098C199D09AE09BF097D
:1012E000349780839183A283B383E1E084179507C9
:1012F000A607B70708F0E0E04E2F50E070E060E08E
:101300002F5F3F4F2C968EAC9FAC2C97281539053C
:10131000B4F203CE2F923F924F925F926F927F92E0
:101320008F929F92AF92BF92CF92DF92EF92FF92F5
:101330000F931F93CF93DF9300D01F92CDB7DEB7EB
:101340008B015C834B83FB01E150F04CEE0FFF1FE0
:10135000EE0FFF1FE80FF91F4081518162817381F9
:1013600077FD27C04C01B12CA12CC12CD12C7601CA
:10137000A016B10664F5F40161917191819191918A
:101380004F010E94B5314B815C810E940E339B015D
:10139000AC01C701B6010E94A1306B017C012B8119
:1013A0003C81205E3F4F3C832B833FEFA31AB30A5F
:1013B000DFCF9A838983312C212C81E090E0A0E05B
:1013C000B0E0C12CD12C760120163106CCF0C7013B
:1013D000B6010F900F900F900F90DF91CF911F915A
:1013E0000F91FF90EF90DF90CF90BF90AF909F90C4
:1013F0008F907F906F905F904F903F902F900895C7
:10140000E981FA814190519061907190FA83E9836A
:10141000409450946094709453014201880E991E38
:10142000AA1EBB1EC501B4010E94B5314B815C816F
:101430000E940E339B01AC01C701B6010E94A0308F
:101440006B017C0181E084149504A604B70408F0C4
:1014500080E090E0B0E0A0E02B813C81205E3F4F37
:101460003C832B833FEF231A330AAECFCF92DF9218
:10147000EF92FF926B017C019F7720E030E040E823
:1014800059E50E94183187FF2BC020E030E040E092
:101490005FE3C701B6010E94083387FD0EC020E05C
:1014A00030E040E05FE3C701B6010E94A130FF9049
:1014B000EF90DF90CF900C94F23120E030E040E0EC
:1014C0005FEBC701B6010E940833181684F420E0D0
:1014D00030E0A901C701B6010E9442336B017C01D3
:1014E000C701B601FF90EF90DF90CF90089520E004
:1014F00030E040E05FE3C701B6010E94A030FF90FA
:10150000EF90DF90CF900C9405312F923F924F9245
:101510005F926F927F928F929F92AF92BF92CF9283
:10152000DF92EF92FF920F931F93CF93DF93CDB78C
:10153000DEB763970FB6F894DEBF0FBECDBF88E06D
:10154000E8E3F2E0ABE1BAE001900D928A95E1F7B1
:10155000C0901402D0901502E0901602F09017028D
:10156000A70196016091A3097091A4098091A50932
:101570009091A6090E941831882341F0C092A309D6
:10158000D092A409E092A509F092A60981E090E02A
:1015900092DA409148025091490260914A0270915A
:1015A0004B024D835E836F837887092E000CAA0B54
:1015B000BB0B89839A83AB83BC8322E0E22EF12CA0
:1015C00003E11AE021E030E0AE014F5F5F4F61E0E0
:1015D00070E0CE0105960ADC34E0E32EF12C03EF37
:1015E00019E022E030E043E15AE062E070E088E395
:1015F00092E0FCDB50E040E064E070E0C8018ADE8D
:1016000020E030E040E05DE00E9442336093230A36
:101610007093240A8093250A9093260AC0901002A2
:10162000D0901102E0901202F0901302A7019601EF
:101630006091AD097091AE098091AF099091B009A8
:101640000E941831882341F0C092AD09D092AE09B2
:10165000E092AF09F092B00990E080E02CDA40917E
:101660004C0250914D0260914E0270914F024D8399
:101670005E836F837887092E000CAA0BBB0B8983CE
:101680009A83AB83BC8382E0E82EF12C0BE11AE055
:1016900021E030E0AE014F5F5F4F61E070E0CE01CE
:1016A0000596A4DB94E0E92EF12C03E01AE022E099
:1016B00030E04BE15AE062E070E080E492E096DBDB
:1016C00050E040E064E070E0C80124DE20E030E05B
:1016D00040E05DE00E9442336B017C01C092270A2A
:1016E000D092280AE092290AF0922A0AE0912C046A
:1016F000F0912D0480809180A280B3802090C90950
:101700003090CA094090CB095090CC09A5019401B2
:10171000B101C2010E94083387FD0EC0A5019401EA
:101720006091D1097091D2098091D3099091D40927
:101730000E94083387FF85C06090D1097090D2095C
:101740000091D3091091D4099301A801B101C201FC
:101750000E941831A501940187FF64C0B301C8013C
:101760000E94183187FD64C02091CD093091CE09C7
:101770004091CF095091D009310182016091230A33
:101780007091240A8091250A9091260A0E94A03027
:101790001B012C019301A801C501B4010E94A030D6
:1017A0009B01AC01C201B1010E941C31688B798B95
:1017B0008A8B9B8B8091D90989879091DA099D87C3
:1017C000A091DB09AE87B091DC09BF872090E109C9
:1017D0003090E2090091E3091091E409A501940118
:1017E000BC01CD010E9408339101A80187FD2EC0E4
:1017F000C501B4010E94183118160CF0F6C0910111
:10180000A80169857D858E859F850E94183187FD99
:1018100025C04090E5095090E6096090E709709076
:10182000E80930C0B101C2010E94083387FD9CCF96
:101830002091D5093091D6094091D7095091D80906
:101840009DCF188A198A1A8A1B8AB4CF69857D852B
:101850008E859F850E94183187FF08C09101A801DD
:10186000C501B4010E94083318169CF24090DD09AE
:101870005090DE096090DF097090E00929843D8472
:101880000E851F859101A801C501B4010E94A030F9
:101890004B015C01A3019201C701B6010E94A03077
:1018A000A50194010E941C3169877A878B879C87E8
:1018B0008090180290901902A0901A02B0901B021A
:1018C0002091230A3091240A4091250A5091260A3A
:1018D000C501B4010E9442332091000230910102FF
:1018E00040910202509103020E9442332B013C01BD
:1018F000A5019401C701B6010E9442332091040260
:101900003091050240910602509107020E94423335
:101910009B01AC01C301B2010E94A1302B013C012B
:10192000288939894A895B89C501B4010E944233FB
:10193000209108023091090240910A0250910B0255
:101940000E9442339B01AC01C301B2010E94A1304D
:101950002B013C0129853A854B855C85C501B40185
:101960000E94423320910C0230910D0240910E02F0
:1019700050910F020E9442339B01AC01C301B2019E
:101980000E94A13060932B0A70932C0A80932D0A39
:1019900090932E0A20911C0230911D0240911E024C
:1019A00050911F020E9442334B015C0180922F0A2A
:1019B0009092300AA092310AB092320A40902002EE
:1019C000509021026090220270902302A3019201A4
:1019D0000E940833181674F440922F0A5092300A6D
:1019E0006092310A7092320A15C019861A861B86D7
:1019F0001C865ECF40902402509025026090260203
:101A000070902702A3019201C501B4010E94183110
:101A100087FDE2CFA701960160912802709129020B
:101A200080912A0290912B020E9442336093330AE4
:101A30007093340A8093350A9093360A20913402C9
:101A400030913502409136025091370260912F0A51
:101A50007091300A8091310A9091320A0E940833C5
:101A600018160CF037C1C0902C02D0902D02E090D7
:101A70002E02F0902F0211E020E030E0A901C70112
:101A8000B6010E941831811110E0612F88E00E9498
:101A90004001C701B601EADC6B017C0120E030E0C7
:101AA00040E853E40E9418316FEF87FF0EC020E03A
:101AB00030E0A901C701B6010E94083360E087FD4C
:101AC00004C0C701B6010E94893187E00E9440012D
:101AD00066E070E080E090E00E947E019093C8098B
:101AE0008093C70960912F0A7091300A8091310A62
:101AF0009091320A9F770E94F2316B017C016DD385
:101B0000882309F4F0C070E060E0072E000C880B19
:101B1000990B0E94B731AB01BC018091C70990912C
:101B2000C8090E9447018091C9099091CA09A091F2
:101B3000CB09B091CC0989879A87AB87BC87C090C5
:101B40003F0AD090400AE090410AF090420AA70173
:101B50009601BC01CD010E94183100912C04109116
:101B60002D048111D7C0F80180819181A281B381B8
:101B70008093C9099093CA09A093CB09B093CC096B
:101B8000EDECF9E08091230A9091240AA091250AB6
:101B9000B091260A80839183A283B3838091D9096F
:101BA0009091DA09A091DB09B091DC0989879A87C5
:101BB000AB87BC879C01AD01C701B6010E941831FB
:101BC000D8018D909D90AD90BC908111D6C080922F
:101BD000D9099092DA09A092DB09B092DC09EDED07
:101BE000F9E08091270A9091280AA091290AB091E2
:101BF0002A0A80839183A283B38340911904509170
:101C00001A0460911B0470911C0490E080E05DD880
:101C10004091210450912204609123047091240486
:101C200081E090E052D86091190470911A0480917B
:101C30001B0490911C046F5F7F4F8F4F9F4F6093E9
:101C4000190470931A0480931B0490931C04009150
:101C50002C0410912D040E94B5319B01AC016091C0
:101C60001D0470911E0480911F04909120040E9415
:101C70004233F801608371838283938380912104CE
:101C800090912204A0912304B09124040196A11DF7
:101C9000B11D8093210490932204A0932304B09358
:101CA000240463960FB6F894DEBF0FBECDBFDF915C
:101CB000CF911F910F91FF90EF90DF90CF90BF9049
:101CC000AF909F908F907F906F905F904F903F90DC
:101CD0002F900895C0903002D0903102E0903202EF
:101CE000F0903302C8CEC701B60132D281110BCFBA
:101CF00020E030E040E857E4C701B6010E940C3212
:101D00000E9489316F3F710509F008F4FECE6FEF34
:101D100070E0FBCE4090D1095090D2096090D30979
:101D20007090D409D8018D909D90AD90BC90A30186
:101D30009201C701B6010E94183181110BC0809237
:101D4000D1099092D209A092D309B092D409E5EDBD
:101D5000F9E018CFA301920169857A858B859C856E
:101D60000E94183187FFEBCF8092C9099092CA096F
:101D7000A092CB09B092CC0903CF4090E1095090DA
:101D8000E2096090E3097090E409A3019201C701A0
:101D9000B6010E94183181110BC08092E109909226
:101DA000E209A092E309B092E409E5EEF9E019CF67
:101DB000A301920169857A858B859C850E941831E3
:101DC00087FFEBCF04CF8F929F92AF92BF92DF92AB
:101DD000EF92FF920F931F93CF93DF9384E090E0F5
:101DE00080D1EFE7F3E089E294E097838683CCE249
:101DF000D4E0D093C003C093BF030DE114E0158B72
:101E0000048BF093EA03E093E903F583E48321E094
:101E100030E0DC012D933C938DE992E0938782873B
:101E20002EE234E03983288340E050E060E87FEB25
:101E3000409325045093260460932704709328044C
:101E40004FE652E163E87AE3D8014D935D936D93D9
:101E50007C931397C7E0D4E08DE89FE6A8E9BFE440
:101E600088839983AA83BB8388EB97E6A5ECBBEBB9
:101E700080930B0490930C04A0930D04B0930E0474
:101E800088EC97E4AAE4B2E980930F0490931004DD
:101E9000A0931104B09312048DEA97E5AAE5B0E58A
:101EA0008093130490931404A0931504B093160424
:101EB000A3E7B3E0B383A283E7E6F3E01196FC93D4
:101EC000EE938FEA92E0918380839383828395835C
:101ED000848397838683918780879387828787E12E
:101EE00094E015969C938E9314971396DC93CE935F
:101EF000129717963C932E931697CDE9D9E0188246
:101F000000E012E0F80184899589A689B7898E835B
:101F10009F83A887B987812C912C5401839489824F
:101F20009A82AB82BC8243E150E062E170E081E0E2
:101F300090E00E949504DD24D394DD821A86F80196
:101F400080899189A289B389888B998BAA8BBB8B55
:101F50008B869C86AD86BE8643E050E062E070E0F2
:101F600090E080E00E949504DF861C8E8D8E9E8E10
:101F7000AF8EB8A261E088E00E943801D9A21C8A25
:101F80008D8A9E8AAF8AB88E61E087E00E94380110
:101F9000D98E1CA28DA29EA2AFA2B8A6E12CF12CD4
:101FA0008701A801970166E070E080E090E00E9460
:101FB000C2019BA78AA7D9A680913F0A9091400AA7
:101FC000A091410AB091420A8CA79DA7AEA7BFA7D6
:101FD0008CAB9DABAEABBFAB8CAF9DAFAEAFBFAF6D
:101FE0008093E1099093E209A093E309B093E40997
:101FF000DF91CF911F910F91FF90EF90DF90BF90F5
:10200000AF909F908F90089580919D09811103C09A
:1020100081E080939D098091A709811103C081E02F
:102020008093A7098091B909811103C081E0809351
:10203000B9098091B109811103C081E08093B10990
:102040008091C10981112EC081E08093C1098091E6
:10205000C2099091C309A091C409B091C509019723
:10206000A105B105F9F48091C6098823D9F066E08D
:1020700070E080E090E00E947E019093C809809318
:10208000C70940E050E0BA010E94470166E070E0F5
:1020900080E090E00E947E019093C8098093C70978
:1020A0000C941302089560E070E080E89FE70895C3
:1020B00060E070E080E89FE7089560E070E080E80D
:1020C0009FEF089560E070E080E89FEF089560E082
:1020D00070E080EC9FEF089560E070E080EC9FEF8F
:1020E0000895F5DF6093430A7093440A8093450A8C
:1020F0009093460AF1DF6093370A7093380A809311
:10210000390A90933A0ACFDF60933F0A7093400AEE
:102110008093410A9093420ACBDF60933B0A70930D
:102120003C0A80933D0A90933E0AC7DF6093470ABA
:102130007093480A8093490A90934A0AC3DF6093D8
:102140004B0A70934C0A80934D0A90934E0A08955F
:10215000CF92DF92EF92FF92CF936B017C01AC01A3
:102160009B0160913F0A7091400A8091410A9091D1
:10217000420A0E941831C1E0882371F0A70196013C
:102180006091470A7091480A8091490A90914A0AE1
:102190000E9418318111C0E08C2FCF91FF90EF90F9
:1021A000DF90CF9008950F931F938B019C01002720
:1021B000112720783F770115110520483F4749F442
:1021C000AB01BC016F77772781E0452B462B472B6E
:1021D00009F480E01F910F910895E5CF4F925F922F
:1021E0006F927F928F929F92AF92BF92CF92DF9227
:1021F000EF92FF920F931F93F894409042045090F7
:1022000043046090440470904504C0903604D0901C
:102210003704E0903804F09039044130510509F05A
:10222000A4C09B01AC0124193509460957092901AD
:102230003A0100913E0410913F04209140043091F6
:10224000410448015901840C951CA61CB71C80163A
:102250009106A206B306A0F400913A0410913B0443
:1022600020913C0430913D040F5F1F4F2F4F3F4F93
:1022700000933A0410933B0420933C0430933D04B4
:1022800080923E0490923F04A0924004B092410498
:1022900000913A0410913B0420913C0430913D049C
:1022A0008092460490924704A0924804B092490458
:1022B00000934A0410934B0420934C0430934D0434
:1022C00060934204709343048093440490934504C4
:1022D000A8EEB3E0A30192010E941F3C6C0D7D1D8E
:1022E0008E1D9F1D609336047093370480933804CD
:1022F00090933904009150021091510220915202A2
:10230000309153020F3F1F4F2F4F3F4FF1F000917D
:1023100050021091510220915202309153020E3F0F
:102320001F4F2F4F3F4F89F0C0905002D090510265
:10233000E0905202F090530221E08C149D04AE0410
:10234000BF0408F420E02093520478941F910F9169
:10235000FF90EF90DF90CF90BF90AF909F908F90C5
:102360007F906F905F904F9008954B015C018418AF
:102370009508A608B708A3019201261B370B480B46
:10238000590B6415750586059705D0F082169306DE
:10239000A406B50640F420E030E0A90181149104C0
:1023A000A104B10491F4A8EEB3E00E941F3CA70180
:1023B0009601261B370B480B590BCA01B901C5CF33
:1023C00082169306A406B50670F7A8EEB3E0A50141
:1023D00094010E941F3C6C0D7D1D8E1D9F1DB5CF6D
:1023E000FDCECF93DF9300D01F92CDB7DEB71C8216
:1023F0001B821A82198210924E0410924F0410927E
:10240000500410925104BE016F5F7F4FCE010396BE
:102410000E94EE2E69817A818B819C810E94DC274B
:10242000009761F4BE016F5F7F4FCE0103960E945B
:10243000FA2E69817A818B819C812FD50F900F9024
:102440000F900F90DF91CF910895FF920F931F93FC
:10245000CF93DF93082F60E070E0CB010E94E73557
:10246000FF24F3940E94C526EC01892B89F010E02B
:10247000CE3F8FEFD80769F0002361F160E070E094
:10248000CB010E94E73581E090E0892B59F322C00F
:1024900011E026D5EC01892B21F0CE3F8FEFD80734
:1024A00059F711111EC011E0229609F410E00E94A4
:1024B0007526EC01892B21F0CE3F8FEFD807E1F68E
:1024C000111111C011E0CE3F8FEFD80709F410E0D1
:1024D00001110BC0CE01DF91CF911F910F91FF90A1
:1024E000089511E0E4CF11E0F3CF60E070E0CB019C
:1024F0000E94E7351F25812F90E0C7CFCF93DF9350
:1025000080915204882321F060E070E0CB014DD629
:1025100036D6D0E0C0E0892B71F06AE070E080E050
:1025200090E00E94E73581E090DF29D62196C03DFA
:1025300027E0D20781F728D60E94302810926A043B
:10254000109269041092630410926404109265045E
:102550001092660410925F0410926004109261045D
:102560001092620410925B0410925C0410925D045D
:1025700010925E041092570410925804109259045D
:1025800010925A041092530410925404109255045D
:10259000109256044EEF5FEF6FEF7FEF40935002C3
:1025A000509351026093520270935302109252045E
:1025B000E6E4F4E028E0DF011D922A95E9F71092A5
:1025C0004204109243041092440410924504109265
:1025D0003E0410923F041092400410924104109265
:1025E0003A0410923B0410923C0410923D04109265
:1025F0003604109237041092380410923904DF9197
:10260000CF91089510927604109277041092780476
:10261000109279041092750480917E0490917F0449
:102620009093740480937304109272041092710456
:1026300010926D0410926E0410926F041092700448
:1026400010927B0410927A0490E080E00895CF927B
:10265000DF92EF92FF920F931F93CF938C0101971C
:1026600009F055C020917E0430917F04809173045D
:102670009091740440917E0450917F0450937404AF
:10268000409373042817390781F010927204109256
:10269000710410926D0410926E0410926F041092E7
:1026A000700410927B0410927A0480917E049091C1
:1026B0007F04019761F580917A0490917B04892BC6
:1026C00021F480915402811112C080917A0490917A
:1026D0007B040197E1F480916D0490916E04A091C8
:1026E0006F04B09170040197A105B10581F41092B7
:1026F0006D0410926E0410926F0410927004109288
:10270000540282E090E090937B0480937A0480915D
:102710007E0490917F04019709F01CC1809194047C
:10272000909195048017910709F014C1809190044D
:1027300090919104A0919204B0919304009709F4B0
:1027400009C120918F0421110DC040919004509136
:1027500091046091920470919304452B462B472B72
:1027600009F4F8C020917A0430917B0422303105BD
:1027700009F0F0C0209171042111ECC0FC01C0806F
:10278000D180E280F38080917504882309F4D3C05E
:102790008091810490918204892B09F4FEC02091DC
:1027A00081043091820481E02230310509F080E01B
:1027B0002091810430918204C1E02130310549F03B
:1027C0002091810430918204C1E02230310509F06A
:1027D000C0E0882309F456C020918B0430918C040A
:1027E00040918D0450918E04C701B6010E940833B8
:1027F00087FD14C020918B0430918C0440918D048E
:1028000050918E04609176047091770480917804E1
:10281000909179040E94183187FD22C020918B0489
:1028200030918C0440918D0450918E04C701B60103
:102830000E940833181634F520918B0430918C04D3
:1028400040918D0450918E046091760470917704CC
:1028500080917804909179040E941831811112C0FE
:102860008091830490918404A0918504B0918604A2
:10287000892B8A2B8B2B19F481E08093720481E0E1
:1028800080937104CC2309F456C020918B043091BD
:102890008C0440918D0450918E04C701B6010E94B2
:1028A000183187FF14C020918B0430918C04409123
:1028B0008D0450918E04609176047091770480911C
:1028C0007804909179040E94083387FF22C02091F8
:1028D0008B0430918C0440918D0450918E04C7017B
:1028E000B6010E941831811126C020918B043091CD
:1028F0008C0440918D0450918E0460917604709107
:10290000770480917804909179040E940833181616
:1029100094F48091830490918404A0918504B091F3
:102920008604892B8A2B8B2B19F481E08093720407
:1029300081E08093710481E090917104911180E0B5
:1029400080937504C0927604D0927704E092780464
:10295000F09279040130110509F067C180917A0481
:1029600090917B04892BD9F4109280041092710409
:1029700080915402882379F082E090E090937B0468
:1029800080937A041092540220917E0430917F0447
:1029900081E0232BE9F080E01BC081E009CF109299
:1029A000540280918004882349F01092720410929E
:1029B0007B0410927A0410928004EDCF80917E0403
:1029C00090917F04892BE1F0809171041092710441
:1029D00020917A0430917B042230310509F45EC0E5
:1029E00088F42115310509F448C02130310509F476
:1029F000F3C010927204109271041092800438C0D7
:102A000081E0E6CF2330310509F4B1C0243031052F
:102A100081F740916D0450916E0460916F04709144
:102A20007004411551056105710561F0415051096E
:102A30006109710940936D0450936E0460936F04B3
:102A40007093700440916D0450916E0460916F0416
:102A500070917004452B462B472BD9F420917C04B0
:102A600030917D042130310509F046C01092720486
:102A700010927B0410927A040CC080915402882337
:102A800041F082E090E090937B0480937A0410926E
:102A9000540210926B0480917204CEC08823C9F353
:102AA0008091830490918404A0918504B091860460
:102AB000181619061A061B060CF07DC080917E04BC
:102AC00090917F04019709F076C0809183049091E2
:102AD0008404A0918504B091860480936D04909342
:102AE0006E04A0936F04B093700483E090E0909321
:102AF0007B0480937A04CDCF409187045091880461
:102B00006091890470918A04452B462B472BA9F0CC
:102B1000109272048091870490918804A091890496
:102B2000B0918A0480936D0490936E04A0936F0417
:102B3000B093700481E090E0DACF882399F080911F
:102B4000550290915602A0915702B091580280937D
:102B50006D0490936E04A0936F04B093700484E0AE
:102B600090E0C5CF1092720482E090E0C0CF8091D7
:102B70006D0490916E04A0916F04B0917004009761
:102B8000A105B10559F00197A109B10980936D0420
:102B900090936E04A0936F04B093700480916D04C1
:102BA00090916E04A0916F04B0917004892B8A2BD0
:102BB0008B2B09F06ECF8091550290915602A09117
:102BC0005702B0915802892B8A2B8B2B09F44ECFD8
:102BD00081E080937204B3CF40916D0450916E04F4
:102BE00060916F0470917004411551056105710584
:102BF00061F0415051096109710940936D0450938E
:102C00006E0460936F047093700440916D04509152
:102C10006E0460916F0470917004452B462B472B16
:102C200009F037CF8111C7CF9FCF80916B048823E4
:102C300009F431CF80916C04CF911F910F91FF90D7
:102C4000EF90DF90CF900895109276041092770461
:102C500010927804109279041092750410927B04FB
:102C600010927A04109274041092730410929504D6
:102C700010929404109272041092710410926D04D8
:102C800010926E0410926F041092700410926C04F3
:102C900010926B041092900410929104109292047E
:102CA0001092930410928F0410928B0410928C0453
:102CB00010928D0410928E0488EE93E0A0E0B0E0B4
:102CC0008093550290935602A0935702B0935802F6
:102CD00010928704109288041092890410928A043A
:102CE000109283041092840410928504109286043A
:102CF000109282041092810481E080935402109219
:102D0000800410927F0410927E0410927D04109231
:102D10007C0490E080E0089580917E0490917F048F
:102D2000892B19F580915402882351F080918004F9
:102D3000811106C081E080936C0480936B04089538
:102D4000209180043091540281E090E0332311F00F
:102D500090E080E030E082239323892B21F01092D1
:102D60006C0481E0EACF10926B04089582E090E059
:102D7000FA01918380838FEF9FEF0895CF93DF93C4
:102D8000EA01009711F00E9450291982188290E000
:102D900080E0DF91CF910895DB01009719F48FEF68
:102DA0008C9308952EEF2C93FC013F96EF30F105A4
:102DB00008F034C08827E052F94E8F4F0C94173C2E
:102DC0000C170A1708170617041700170217FE1624
:102DD000FC16FA16F716F316EF16F5160E1780E323
:102DE00011968C93089589E2FBCF82E2F9CF119678
:102DF0001C92089583E2F4CF81E2F2CF81E1F0CF1B
:102E000087E2EECF8AE2ECCF80E1EACF84E2E8CF3E
:102E100088E2E6CF86E2E4CF81E3E2CF80E2E0CF52
:102E20008091A2049091A30408959093A3048093A9
:102E3000A20408958091A10408959091A104892B82
:102E40008093A1040895982F90958091A1048923DF
:102E50008093A10408958091A004089580919E0418
:102E600090919F0408956115710559F0FB0130E0C0
:102E700020E070E060E02417350719F06115710556
:102E800011F0CB010895A081B181A817B90709F409
:102E9000BF012F5F3F4F3696EECF8091A404811182
:102EA0001CC060D266D290939704809396040E94CF
:102EB0004E210E94602190939B0480939A040E946B
:102EC000DD250E94E425909399048093980481E085
:102ED0008093A40490E080E0089584EF9FEF08952C
:102EE0008F929F92AF92BF92CF92DF92EF92FF921A
:102EF0000F931F93CF93DF9300D000D000D01F9289
:102F0000CDB7DEB71A86198618861F821E821D82EB
:102F10001C821B821A8219828091A40407EF1FEF82
:102F2000882309F49CC08E010D5F1F4F9E012B5F0B
:102F30003F4FAE01495F5F4FBE01675F7F4F90E03B
:102F400080E00E9461278C01009721F0059602978E
:102F500008F0DBC029853A852115310509F402C145
:102F6000ED80FE804B815C81B701640F751F8F81FE
:102F700098858617970708F4F5C0E20EF31ED7016F
:102F80009C91903C09F07FC04230510508F47BC011
:102F900011968C914091A2045091A304452B09F401
:102FA0009CC0913F08F071C02CE1290F2D3008F42E
:102FB0008BC02DE2290F203108F489C0903C21F408
:102FC0008150823008F483C088E3890F8B3008F485
:102FD00081C09CECC92E96E1D92EE6EBF6E16D811D
:102FE0007E81AE014F5F5F4F89859A8519955C019F
:102FF000C114D104A1F189809A808114910479F1DE
:103000008B819C818815990508F487C010E000E049
:103010004B815C8170E060E0C7010E94413C01157A
:103020001105E9F449815A8169857A858D819E81EE
:10303000680F791FC501F6011995E980FA800D81A5
:103040001E812F81388549855A856FEF7FEF81E09A
:1030500090E00E94FC268C01892B09F056C0C80123
:103060002A960FB6F894DEBF0FBECDBFDF91CF9189
:103070001F910F91FF90EF90DF90CF90BF90AF9096
:103080009F908F90089580E085CF30E020E0220F60
:10309000331FF901EA56FB4F0190F081E02D309784
:1030A00009F497CF892F90E01995009709F491CFF3
:1030B000DC011296ED91FC9113971496CD90DC9063
:1030C000309709F08CCF1FC021E030E0E0CF22E044
:1030D00030E0DDCF23E030E0DACFD12CC12CEEEBB5
:1030E000F6E19F3F09F07BCFE0919604F0919704C1
:1030F000309721F4C90104EF1FEF0CC08FEF90E06F
:1031000019950097A9F604EF1FEF89859A85009716
:1031100009F4A5CF0E945029A2CF0E942B288C0130
:1031200089859A850E94502970E060E0C4010E9460
:10313000C42798878F830E94F9269E838D836F8191
:1031400078856115710559F0C8010E94DC2A9A87BB
:10315000898706EF1FEF892B09F058CF59CF08EF69
:103160001FEF56CF08EF1FEFD0CF2091A4042223EA
:1031700019F020E00C94652187EF9FEF089580916E
:10318000A2049091A30408950E94E9250E9443257A
:10319000F5D0E6E9F4E088E0DF011D928A95E9F7D1
:1031A0001092A40490E080E008950C94A12321E003
:1031B00040E050E0BA010C94652186E090E0FA010D
:1031C0009183808390E080E0089547E050E062EBD7
:1031D00072E049CEDF92EF92FF920F931F93CF934D
:1031E000DF938A01EC01C60FD71FE090A804F0908E
:1031F000A904D9800E941328D816190678F082E015
:1032000090E0F801918380838EEF9FEFDF91CF9163
:103210001F910F91FF90EF90DF900895EF2841F4F8
:1032200082E090E0F8019183808384EF9FEFEECFFE
:1032300089818093A70490E00196F80191838083AF
:1032400090E080E0E3CFCF93DF93EA010E94522425
:10325000882321F00E9420280E94532482E090E0DD
:10326000998388838BEF9FEFDF91CF910895CF9360
:10327000DF93EB0186E0FB0111928A95E9F78FEF6E
:103280008883D8DD8983E7DD8A83E8DD9D838C83AD
:10329000DF91CF910895CF93DF93EA010E945524E7
:1032A000811109C082E090E09983888385EF9FEFC8
:1032B000DF91CF91089590E080E0B7DD81E090E06C
:1032C0009983888390E080E0F3CF0F931F93CF938F
:1032D000DF93EA018C01060F171F0E94552481110C
:1032E0000BC082E090E09983888385EF9FEFDF91A8
:1032F000CF911F910F910895F8018181823038F0AC
:1033000082E090E0998388838EEF9FEFF0CF81E099
:1033100090E08BDD88E090E09983888390E080E006
:10332000E6CFCF93DF930097D1F4EB01FB01329608
:1033300086E0DF011D928A95E9F78FEF888385E0AB
:1033400089831A820E9413288B830E9412289D83EE
:103350008C8381E08E838F83DF91CF910895DF91FD
:10336000CF911ACD85EE98E19093A6048093A504A1
:1033700008958091A5049091A60408951092A60442
:103380001092A50408958091A8049091A90408952D
:10339000411105C0611571058105910561F06093CA
:1033A000A8047093A9048093AA049093AB0440935B
:1033B000AC0481E0089580E00895FF920F931F937D
:1033C000CF93DF938A01EC01C60FD71FF9800E94CB
:1033D0001328F816190668F082E090E0F80191834E
:1033E00080838EEF9FEFDF91CF911F910F91FF9020
:1033F00008956C817D818E819F814B81C9DF811110
:1034000008C082E090E0F8019183808384EF9FEF11
:10341000EACF89818093A70490E00196F801918317
:10342000808390E080E0DFCFCF93DF93EA01FC015F
:10343000E60FF71F64817581868197814381A8DF3C
:10344000811109C082E090E09983888384EF9FEF27
:10345000DF91CF91089581E090E09983888390E097
:1034600080E0F6CFE8EAF4E0408151816281738127
:10347000480F511D611D711D408351836283738309
:103480000895CF93C091A7044C2F50E06091A804F9
:103490007091A90401960E94383C8C2FE3DF1092B2
:1034A000A704CF910895009799F48091A804909172
:1034B000A9042FEFFB012083892B59F02091A70449
:1034C00030E02F5F3F4F2417350719F4CB01D9CFD8
:1034D00063CC0895009799F48091A8049091A90471
:1034E0002FEFFB012083892B59F02091A70430E0B6
:1034F0002F5F3F4F2417350719F4CB01C2CF4CCCB7
:10350000089523E1AC01249FC001259F900D112453
:10351000E091B104F091B204E80FF91F23813481E6
:103520002250310981E02230310508F080E0089511
:103530000F931F93CF93DF930091B3041091B404C2
:10354000D0E0C0E080E00C171D0749F491E0811144
:1035500090E0892FDF91CF911F910F9108958111F4
:10356000F5CFCE01CEDF2196EECFA091B104B09180
:10357000B204109729F12091B3043091B40482175A
:103580009307F0F453E1589F9001599F300D112497
:10359000A20FB31FED91FC911197309789F012960D
:1035A0008C91681768F48DE0689FE00DF11D11247F
:1035B00080819181892B21F081E09281491708F067
:1035C00080E008959C0143E1429FC001439F900D1C
:1035D0001124E091B104F091B204E80FF91F838542
:1035E000823091F481E090E06581768140915902CA
:1035F00050915A026417750711F490E080E0892B0E
:1036000019F081E0232B09F080E00895FC01A081EE
:10361000B1818DE0689FA00DB11D112413964D91CD
:103620005C9185859685489F9001499F300D589FF4
:10363000300D1124C9010196611103C0478144FD79
:1036400004960895EF92FF920F931F93CF93DF9309
:10365000EA01FC01E60FF71F02811381E480F58087
:103660004F2D6E2DC80181DF81110DC082E090E0E9
:10367000998388838EEF9FEFDF91CF911F910F91F8
:10368000FF90EF900895C8013CDF882339F082E075
:1036900090E09983888388EF9FEFEECF10936002CC
:1036A00000935F02E0926102F092620281E090E09A
:1036B0009983888390E080E0DFCFCF92DF92EF9212
:1036C000FF920F931F93CF93DF937A01EC01C60F04
:1036D000D71FC0905F02D0906002009161021091EC
:1036E0006202412F602FC60140DF811110C082E0CD
:1036F00090E0F701918380838AEF9FEFDF91CF9174
:103700001F910F91FF90EF90DF90CF900895C60129
:10371000F8DE882341F082E090E0F7019183808316
:1037200088EF9FEFEBCF4C815D816E817F819A8125
:1037300089818F3F41F082E090E0F701918380839F
:103740008EEF9FEFDBCFE3E1EC9D9001ED9D300D1F
:103750001124E091B104F091B204E20FF31F019043
:10376000F081E02D2DE0029FE00DF11D112401906C
:10377000F081E02D27E0129FE00DF11D11248083E0
:1037800091838B81828343835483658376831F5F18
:103790001093620281E090E0F7019183808390E0D2
:1037A00080E0ACCFEF92FF920F931F93CF93DF9304
:1037B0007A018C01060F171FC091B104D091B20499
:1037C000209781F021E030E0F801828193814091DF
:1037D000B3045091B4048417950710F030E020E052
:1037E000232B71F482E090E0F701918380838EEFC8
:1037F0009FEFDF91CF911F910F91FF90EF90089570
:1038000043E1489F9001499F300D1124C20FD31FFF
:1038100078DE882341F082E090E0F7019183808395
:1038200088EF9FEFE6CFF8012481358120383105FC
:10383000C8F687818111D6CF4181842F90E08F7E99
:10384000009741F082E090E0F7019183808386EF5A
:103850009FEFCFCF4F833E832D8326812887198604
:10386000223010F421E0288721E030E0F701318395
:103870002083BFCF88E090E0FA019183808390E0BD
:1038800080E00895FB018FEF808381E181838FEFDA
:103890009FEF9383828380E890E0958384831682F0
:1038A00017820895FB018FEF808391E091838283DB
:1038B0009383848384E3858381E090E09783868388
:1038C0000895DF92EF92FF920F931F93CF93DF93B0
:1038D000EA01FC01E60FF71F8181813071F082E07F
:1038E00090E0998388838FEF9FEFDF91CF911F91B5
:1038F0000F91FF90EF90DF90089582819381D480A3
:103900002581E680F7800091B1041091B204011581
:10391000110539F482E090E0998388838CEF9FEF62
:10392000E4CF4091B3045091B4048417950738F064
:1039300082E090E0998388838EEF9FEFD6CF892B2A
:1039400039F082E090E09983888386EF9FEFCDCFB6
:103950008D2D8D7FB1F72130A1F781E0D11006C008
:1039600091E0E916F10431F080E004C0E2E0EE16E7
:10397000F104D0F3882329F390E080E0C2DD8823AE
:1039800039F082E090E09983888388EF9FEFADCF94
:10399000F801D38681E08487F686E586108A17864B
:1039A00081E090E09983888390E080E09ECF4CE0B6
:1039B00050E06CED72E057CA8F929F92BF92CF9207
:1039C000DF92EF92FF920F931F93CF93DF93EA0161
:1039D000FC01E60FF71F828193810481B580E0919D
:1039E000B104F091B204309791F482E090E09983B1
:1039F00088838CEF9FEFDF91CF911F910F91FF9004
:103A0000EF90DF90CF90BF909F908F90089520917E
:103A1000B3043091B4048217930738F082E090E049
:103A2000998388838EEF9FEFE6CF23E1289F600183
:103A3000299FD00C1124EC0DFD1DE080F180E114D4
:103A4000F10499F28281081748F78DE0089F800100
:103A50001124E00EF11EF70180819181892B29F656
:103A6000BB20E1F2F7E0BF9E40011124C4010E9497
:103A70001729F70191838083E091B104F091B2049A
:103A8000EC0DFD1D0190F081E02DE00FF11F808114
:103A90009181009739F482E090E0998388838DEFDB
:103AA0009FEFA9CFA40170E060E00E94413C8091AB
:103AB000B1049091B204C80ED91EF60180819181A3
:103AC000080F191FF801B28281E090E09983888382
:103AD00090E080E090CFAF92BF92CF92DF92FF92C2
:103AE0000F931F93CF93DF93EA01FC01E60FF71FBB
:103AF00082819381F4800091B1041091B204011588
:103B0000110581F482E090E0998388838CEF9FEF28
:103B1000DF91CF911F910F91FF90DF90CF90BF90D9
:103B2000AF9008952091B3043091B40482179307A5
:103B300038F082E090E0998388838EEF9FEFE8CFA2
:103B40002FEF2F0D2C3FA8F723E1289F6001299F1D
:103B5000D00C11240C0D1D1DF80180819181892B41
:103B600089F6FDE0FF9E50011124C5010E9417292E
:103B7000F80191838083E091B104F091B204EC0DDF
:103B8000FD1D80819181009739F482E090E0998356
:103B900088838DEF9FEFBCCFA50170E060E00E94AD
:103BA000413CE091B104F091B204EC0DFD1DF282B4
:103BB00081E090E09983888390E080E0A9CFCF9264
:103BC000DF92EF92FF920F931F93CF93DF93860FB5
:103BD000971FFC01028113818091B1049091B2047E
:103BE000892B81F082E090E0FA01918380838CEF51
:103BF0009FEFDF91CF911F910F91FF90EF90DF909A
:103C0000CF900895C801B0E0A0E00197A109B109E3
:103C10008F3F9F4FA105B10540F082E090E0FA018F
:103C2000918380838EEF9FEFE4CF7A0183E1809FC1
:103C30006001819FD00C1124C6010E941729EC015C
:103C4000009741F482E090E0F701918380838DEF4B
:103C50009FEFCFCFA60170E060E00E94413CD0937F
:103C6000B204C093B1041093B4040093B30490E081
:103C700080E02FEF3FEF41E061E070E080179107B7
:103C800041F481E090E0F7019183808390E080E04F
:103C9000B0CF3A8B298B1B864C877E876D87188A1D
:103CA0001F8601966396EACFEF92FF921F93CF9300
:103CB000DF93EC0110E0F12CE12C6A811617B0F0D3
:103CC00083E0689FB0011124AE014F5E5F4FC701D2
:103CD0000E947C29009721F02FEF3FEF3A8B298B30
:103CE000DF91CF911F91FF90EF900895612FCE014A
:103CF0008DDC61E070E00E94C427E816F90608F444
:103D00007C011F5FDACFF8942091AF043091B004AA
:103D100081E02115310509F080E0232B09F078942A
:103D200008952F923F924F925F926F927F928F925F
:103D30009F92AF92BF92CF92DF92EF92FF920F933A
:103D40001F93CF93DF933C01660E771EF3018281B0
:103D500093814C01B12CA12CC091B104D091B2043B
:103D6000209769F021E030E06091B3047091B404D1
:103D70008617970710F030E020E0232BD1F482E083
:103D800090E0FA01918380838EEF9FEFDF91CF91D6
:103D90001F910F91FF90EF90DF90CF90BF90AF9069
:103DA0009F908F907F906F905F904F903F902F905B
:103DB00008958092630290926402A0926502B0928C
:103DC000660263E1689F9001699F300D1124C20F64
:103DD000D31FF3018181833040F082E090E0FA014B
:103DE0009183808386EF9FEFD1CF2A012B813C8185
:103DF000232BF1F4288139819F8191FF2EC0232B41
:103E000009F46FC02091B6049A81422F490F5527BB
:103E1000551FBA0141E050E06138710514F050E0DF
:103E200040E0452B09F45DC02A87920F9093B604B9
:103E30008150823008F481C066DF882309F4D8C03D
:103E4000F3018181813009F48DC008F47BC0823098
:103E500009F4C6C090E080E0ADC0232B09F441C056
:103E60002091B5049A81E22FE90FFF27FF1F41E05F
:103E700050E0ED3FF10514F050E040E0452B89F1B2
:103E80002A87920F9093B504D3CFA081B181A20F5E
:103E9000B31F11966C91060F111D0196295F3F4FBC
:103EA0008417950794F38D859E85089F1001099FBF
:103EB000300C189F300C1124C114D104D1F48F811F
:103EC00084FF17C00E941228F5E02F0E311C21E05C
:103ED0008215930508F420E0A701435F5F4F21118D
:103EE0000EC082E090E0F2019183808387EF9FEF24
:103EF0004DCF0E9412282FEF221A320AE8CF888174
:103F00009981E80EF91EF70114830383FFEFCF1A9E
:103F1000DF0A7A018A818C151D0409F00CF48CCF1C
:103F2000E881F981EE0DFF1D428150E030E020E094
:103F300010E000E090E080E0B3CFF12CE12CD12C38
:103F4000C12CE8CF81E090E09C838B83F1DA882359
:103F500009F480CF81E090E00E94151780E40E9470
:103F6000231778CF89899A89019661F083E090E0E0
:103F70009C838B8382E090E00E94151780E40E946E
:103F80001D1768CF8D819E812091590230915A0270
:103F900082179307D1F460915D0270915E02AE01C9
:103FA0004F5E5F4F80915B0290915C020E949B2A62
:103FB0000097E1F2789422E030E0F201318320832F
:103FC000892B99F08DEF9FEFE1CE89288A288B28E5
:103FD00069F6029758F6CE0167DE188A1F86E8CF89
:103FE00082E090E09C838B8335CF90E080E0CECE62
:103FF00082E090E0F2019183808385EF9FEFC6CE4F
:104000008F929F92AF92BF92CF92DF92EF92FF92E8
:104010000F931F93CF93DF93EA018C01060F171FB5
:10402000F8018181833098F082E090E09983888361
:1040300086EF9FEFDF91CF911F910F91FF90EF904F
:10404000DF90CF90BF90AF909F908F900895809118
:10405000B1049091B204892B61F081E090E020914D
:10406000B3043091B404232B11F490E080E0892B49
:1040700039F482E090E0998388838EEF9FEFDACF66
:1040800042DE882309F4E0C0F8018181813009F41F
:1040900096C0E8F0823099F42091B3043091B404D2
:1040A000E091B104F091B20490E080E041E050E092
:1040B0002817390709F0BEC03BDA811117C0789480
:1040C00081E090E09983888390E080E0B3CF2091F5
:1040D000B3043091B404E091B104F091B20490E0E3
:1040E00080E041E050E02817390741F481E090E09A
:1040F0000E94151780E40E942317E1CF6381748129
:10410000672B11F05483438301967396ECCFE091B3
:10411000B104F091B204E00FF11F23813481223009
:104120003105D9F4218932892F3F3F4FB1F42581E0
:1041300036814091590250915A022417350761F592
:10414000AF014F5E5F4F60915D0270915E028091A2
:104150005B0290915C020E949B2AEFEFCE1ADE0A6E
:10416000EE0AFE0A0D5E1F4F4091B3045091B40455
:1041700070E060E0C416D506E606F70644F5009741
:1041800031F27894892B09F49BCF82E090E09983F7
:1041900088838DEF9FEF4ECFC114D104E104F10469
:1041A000E1F622303105C8F6CF017EDDE091B104A1
:1041B000F091B204E00FF11F108A1786CECF10E005
:1041C00000E090E080E0C12CD12C7601CDCF0097AB
:1041D000C1F610E000E0812C912C540183E0E82E20
:1041E000F12C1AC0E091B104F091B204E00FF11F7C
:1041F00083819481029749F4F482E38282E090E023
:104200000E94151780E40E941D17FFEF8F1A9F0A66
:10421000AF0ABF0A0D5E1F4F8091B3049091B404A2
:10422000B0E0A0E088169906AA06BB06DCF290E092
:1042300080E0A7CF638174816230710511F45483EB
:1042400043830196739634CF82E090E0998388830C
:1042500085EF9FEFEFCE0097B9F48FEFFB018083DE
:10426000209163023091640243E1429FC001439F69
:10427000900D1124E091B104F091B204E80FF91F00
:104280008285FB01818308950C94CC1688E090E030
:10429000FA019183808390E080E008951092B00449
:1042A0001092AF04E1EBF4E086E0DF011D928A9505
:1042B000E9F787ED9CE19093AE048093AD040895F7
:1042C0008091AD049091AE0408952F923F924F9249
:1042D0005F926F927F928F929F92AF92BF92CF9296
:1042E000DF92EF92FF920F931F93CF93DF93CDB79F
:1042F000DEB72F970FB6F894DEBF0FBECDBFF89490
:10430000E091AF04F091B0043196F093B004E093E3
:10431000AF0478944090B1045090B2044114510419
:1043200009F40CC2E091B304F091B404EF2B09F44A
:1043300005C22D8749875A876B877C8798878F832B
:104340001201B12CA12C10E000E08091B3049091F7
:10435000B404A816B90618F40115110529F1F8944A
:104360008091AF049091B00401979093B004809332
:10437000AF047894C8012F960FB6F894DEBF0FBE35
:10438000CDBFDF91CF911F910F91FF90EF90DF9004
:10439000CF90BF90AF909F908F907F906F905F90E5
:1043A0004F903F902F9008957101E418F508D101C6
:1043B00017968C91179781FD54C013968D919C91FF
:1043C0001497039709F04DC015968D919C91EF813C
:1043D000F8858E179F0709F044C0B50190E080E092
:1043E0007FD48A832091B1043091B2043D832C8321
:1043F0003D85332309F44CC04C815D81452B09F484
:104400009AC18091B3049091B404A816B90608F03B
:1044100092C1C501D7D88823E9F06C817D816E0DEA
:104420007F1D7D836C83DB011F968D919C91892B71
:1044300089F0D12CC12CF12CE12CAC81BD811296DC
:104440008C9112978E151F0409F094F450961C92CB
:104450001E921F972A81222321F0B50190E080E06F
:1044600041D43FEFA31AB30A43E1240E311C6DCFB0
:10447000AC81BD81ED91FC91EC0DFD1D8581968196
:104480000FD7BFEFEB1AFB0AEDE0CE0ED11CD5CF54
:10449000EC81FD81309709F44EC18091B304909175
:1044A000B404A816B90608F046C1EE0DFF1DFF873B
:1044B000EE87C50187D88B83882339F1AE85BF8508
:1044C0001F968D919C915097019621E01D964D91DC
:1044D0005C918417950709F020E02E831982712CD6
:1044E00010E000E0AE85BF8512968C91781608F436
:1044F0005DC0EE85FF858785908901966585768507
:104500000E94E13B908B8787A5CFB1E0BE83E6CFC9
:10451000992493946BC08BD6F6019683858382C0D1
:10452000D601ED90FC90B7E06B9EE00CF11C1124DD
:10453000F7016381748180818F3F61F121E030E078
:1045400002C0220F331F8A95E2F7C901092E000C21
:10455000AA0BBB0BFB0140815181628173818423D3
:104560009523A623B72321E0892B8A2B8B2B09F4D3
:1045700020E0D4012C93D70111968C91F60123856C
:104580003485820F932F911D880E991E14861386F1
:1045900063949BC0418150E0C4010E94383CEBCF42
:1045A000998206EF1FEFC5C01982C3C0F981F111CE
:1045B000A0CFEDE07E9E70011124AE85BF85CD9029
:1045C000DC90CE0CDF1C15D49D838C83BB81BB2378
:1045D00009F49ECF81E0EE85FF8527853089232B66
:1045E00009F080E0982E882309F458C0672D8E8545
:1045F0009F850CD8D60118969C938E93179761E0EF
:1046000070E0C2D4EE85FF85218932892F3F3207C1
:1046100009F481CFBC01C901CFD7D60116969C936E
:104620008E931597D60115968D919C9116970097AC
:1046300009F4B6CFEC81FD818E0F9F1F1A969C93D3
:104640008E931997AE85BF85ED91FC911197EE0E73
:10465000FF1EF70121853285148613861A968C91E8
:10466000870DD9018D93711016C0EE85FF85878166
:1046700084FF11C049855A856B857C85F90141838A
:10468000528363837483F701838594850496A80F0E
:10469000B91F14861386F701B287A187D601159634
:1046A0008D919C911697892B09F443C0EE85FF8567
:1046B000258136818091590290915A022817390735
:1046C00079F019968D909C90612CD60112968C9160
:1046D0001297681608F424CF1A969C928E92199716
:1046E000BE81BB2309F460CF61E070E0F6018781F1
:1046F00090854AD4D6011796ED90FC9018971596A0
:104700004D915C91E1E0F0E0BA81BB2311F0F0E063
:10471000E0E00C811D819C01B501882799278E1B43
:104720009F0B6AD38C01892B21F0F601858196813C
:10473000B7D57394D7CE0FEF1FEF8CCE10E000E00B
:104740000ECE2F923F924F925F926F927F928F92F6
:104750009F92AF92BF92CF92DF92EF92FF920F9310
:104760001F93CF93DF938091B1049091B20410E036
:1047700000E0892BA9F0C7DA0AEF1FEF882381F048
:104780002090B3043090B404C091B104D091B2042D
:10479000D12CC12C10E000E02C143D04A9F4789435
:1047A000C801DF91CF911F910F91FF90EF90DF90A3
:1047B000CF90BF90AF909F908F907F906F905F90C1
:1047C0004F903F902F900895C6010E94E21A8823CF
:1047D00009F18B819C810397E9F48F859889892B56
:1047E000C9F0B60190E080E07BD221E030E0882380
:1047F00011F030E020E044245524421A530AB12C31
:10480000A12C912C812C8A818815190409F038F487
:10481000188A1F864FEFC41AD40A6396BDCFE88169
:10482000F981EA0DFB1D85819681892BA1F161E05B
:1048300070E087819085A8D33C01DBD28C01E881B0
:10484000F981EA0DFB1D8185928525813681200F36
:10485000311FAC01421B530B9A0147815085421B0B
:10486000530B70E060E00E94413CE881F981EA0D61
:10487000FB1DE780F084458156819301B601C2019A
:10488000BBD28C01892B39F0E881F981EA0DFB1D3F
:104890008581968105D55FEF851A950A8DE0A80E72
:1048A000B11CB1CF30CA789408952F923F924F92A5
:1048B0005F926F927F929F92AF92BF92CF92DF9260
:1048C000EF92FF920F931F93CF93DF9300D000D00E
:1048D000CDB7DEB70091B1041091B204992493943E
:1048E0000115110509F43EC0A090B304B090B404C2
:1048F0000ADA982E8823B1F11092B2041092B10412
:104900001092B4041092B3041092B5041092B6043D
:104910008FEF9FEFDC018093630290936402A0937A
:104920006502B093660278947FD31E830D83C12CF9
:10493000D12C7601C501B0E0A0E089839A83AB83D6
:10494000BC8322242A94322C89819A81AB81BC8138
:10495000C816D906EA06FB06F4F0C801A1D480E423
:104960000E942317892D26960FB6F894DEBF0FBE3E
:10497000CDBFDF91CF911F910F91FF90EF90DF900E
:10498000CF90BF90AF909F907F906F905F904F902F
:104990003F902F900895AD81BE8115968D919C9189
:1049A00016972091590230915A0282179307D1F439
:1049B00051968D919C91EED5ED81FE818081918102
:1049C000B12CA12C412C512C3201892B89F5BFEF40
:1049D000CB1ADB0AEB0AFB0AED81FE817396FE839C
:1049E000ED83B2CFC114D104E104F10429F7029799
:1049F00018F7ED81FE81818992898F3F980709F030
:104A000029D5AD81BE8152963C922E925197D4CF3A
:104A10008A0D9B1DDC018D919C91009709F040D47B
:104A2000BFEF4B1A5B0A6B0A7B0AEDE0AE0EB11CBE
:104A3000AD81BE818D919C91119712964C9150E061
:104A400070E060E044165506660677060CF328D43D
:104A5000BECFCF93DF93EA0128DF811109C082E046
:104A600090E09983888385EF9FEFDF91CF91089540
:104A700081E090E00E94151781E090E0998388839F
:104A800090E080E0F2CF11DF1092AE041092AD04FE
:104A9000089542E050E064E273E00C943317FF9213
:104AA0000F931F93CF93DF938A01EC01C60FD71F9B
:104AB000F980B9D20897F816190671F068F082E00B
:104AC00090E0F801918380838EEF9FEFDF91CF918B
:104AD0001F910F91FF9008956C817D818E819F8140
:104AE0004B810E94C819811108C082E090E0F80152
:104AF0009183808384EF9FEFE9CFF9800E94C319EF
:104B00004F2D50E0BE01685F7F4F0E94383C898185
:104B10000E94321A81E090E0F8019183808390E056
:104B200080E0D4CFDF92EF92FF920F931F93CF9349
:104B3000DF938A01EC01C60FD71F0E94C3197C01C5
:104B4000D98071D2DD2059F0029721E030E0D816EB
:104B5000190619F010F030E020E0232B79F482E000
:104B600090E0F801918380838EEF9FEFDF91CF91EA
:104B70001F910F91FF90EF90DF900895EF2841F47F
:104B800082E090E0F8019183808384EF9FEFEECF85
:104B9000F9800E94C3194F2D50E0BE016E5F7F4F18
:104BA0000E94383C89810E94321A81E090E0F8012D
:104BB0009183808390E080E0D9CF89E495E290935F
:104BC000B8048093B70408958091B7049091B80415
:104BD00008950895FC0111821082938382830895C1
:104BE000DB011D921C92DC011296ED91FC91139752
:104BF0007183608313967C936E9312970895FC01E2
:104C000080819181DB018D939C93A081B18110976C
:104C100041F08D919C9191838083892B11F4F383D2
:104C2000E2830895FC0180819181DB018D939C9347
:104C3000892B11F473836283718360830895FC016F
:104C400011821082938382830895CF93DF931F9202
:104C50001F92CDB7DEB71A821982F894BE016F5F3A
:104C60007F4F8EEB94E0CBDF89819A81009709F02A
:104C700017D389819A81892B89F7BE016F5F7F4F96
:104C800082EC94E0BCDF89819A81009709F008D317
:104C900089819A81892B89F778940F900F90DF9101
:104CA000CF910895CF93DF931F921F92CDB7DEB7B8
:104CB0001A821982F894BE016F5F7F4F8AEB94E0ED
:104CC0009EDF89819A81009709F0EAD289819A81D1
:104CD000892B89F778940F900F90DF91CF910895E9
:104CE00081E0089590E080E00895EF92FF920F93A5
:104CF0001F93CF93DF931F921F92CDB7DEB71A8217
:104D000019828091B90407EF1FEF8823A1F1F8946D
:104D1000BE016F5F7F4F82EC94E071DF78948981F0
:104D20009A81EE24E394F12C892B51F4F894BE017E
:104D30006F5F7F4F8EEB94E062DF7894F12CE12C73
:104D400089819A810EEF1FEF0097A9F0FC01428143
:104D5000538164E070E076D68C01892B61F0F89481
:104D600069817A81C701880F991F880F991F825422
:104D70009B4F58DF7894C8010F900F90DF91CF912F
:104D80001F910F91FF90EF9008950F931F93CF9372
:104D9000DF9300D01F92CDB7DEB71C821B821A8230
:104DA00019828091B90407EF1FEF8823C1F0AE018B
:104DB0004D5F5F4F64E070E0CE010196B6D68C0186
:104DC000892B69F4E981FA818B819C8193838283A9
:104DD000F89469817A818AEB94E002DF7894C801C3
:104DE0000F900F900F900F90DF91CF911F910F9127
:104DF0000895BBD7049608958F929F92AF92BF9269
:104E0000CF92DF92EF92FF920F931F93CF93DF9396
:104E10001F921F92CDB7DEB71A821982BC016F5F55
:104E20007F4F6330710598F0AA24AA94BA2CC5016B
:104E30000F900F90DF91CF911F910F91FF90EF9006
:104E4000DF90CF90BF90AF909F908F9008954115C5
:104E5000510551F3480159018A016C01CADF8815D7
:104E6000990511F7E114F104F9F28E0D9F1DA816B2
:104E7000B906D0F28091B9048823F1F0F894B50115
:104E8000645071099701AE014F5F5F4FC8010496EE
:104E9000E1D65C01892B71F489819A81F8019383B1
:104EA0008283C601880F991F880F991FB801825409
:104EB0009B4F96DE7894BBCF87EFA82EBB24BA9485
:104EC000B6CFAF92BF92CF92DF92EF92FF920F9345
:104ED0001F93CF93DF931F921F92CDB7DEB71A8235
:104EE0001982892B09F047C06115710509F443C087
:104EF0004115510509F43FC02115310509F43BC0A6
:104F000001151105C1F18091B9048823B9F1790126
:104F10006A015B01F894BE016F5F7F4F8AEB94E0FA
:104F20006EDE789489819A81009759F1DC0112969E
:104F30006D917C91A8010496A6D68C01E981FA8135
:104F4000D501ED93FC93828193810496F6019183C0
:104F500080834FDFD7018D939C93C8010F900F90F2
:104F6000DF91CF911F910F91FF90EF90DF90CF9045
:104F7000BF90AF9008950FEF1FEFEFCF07EF1FEF38
:104F8000ECCF0EEF1FEFE9CFCF93DF93EC01672B50
:104F900071F4F4D68C179D0760F0E7D62496C80FFD
:104FA000D91FE6D68C0F9D1FDF91CF910895E3D6D0
:104FB000F1CF90E080E0F8CF0F931F93CF93DF9372
:104FC0002091B90421112BC08B01EC018EEB94E0F0
:104FD00001DE82EC94E0FEDD8AEB94E0FBDD97D00D
:104FE0000097C1F4CBD670E060E0CEDF47E652E038
:104FF00062E070E081D1009769F48091670290913E
:105000006802CED6B801CE0103D5009719F421E08D
:105010002093B904DF91CF911F910F91089584EFF0
:105020009FEFF8CFA8C6AAC6CF93DF93AAD6EC010C
:10503000892B11F40ADE36DECE01DF91CF9108957F
:10504000CF93DF939ED6EC01892B09F4FEDDCE01D0
:10505000DF91CF9108958091670290916802089541
:10506000CF93DF938091B904D0E0C0E08823D1F0E2
:105070009CD6EC01892BB1F4E8DD14DE8091670247
:1050800090916802E7D1E8D2EC01892B59F48EEBBC
:1050900094E0D5DD82EC94E0D2DD8AEB94E0CFDDC4
:1050A0001092B904CE01DF91CF910895EF92FF9253
:1050B0000F931F93CF93DF93EC017A018B010F5F66
:1050C0001F4F0E9DA0010F9D500D1E9D500D1124D0
:1050D00070E060E00E94413C90E080E0F0E0E0E0C1
:1050E0002FEFE816F90639F4DF91CF911F910F9158
:1050F000FF90EF9008951A8219822883309711F05B
:10510000D283C1830196FE01C00FD11FEACFCF9297
:10511000DF92EF92FF920F931F93CF93DF930BE5F4
:1051200016E00C7F43E050E069E672E08FE692E023
:105130001CD489E6E82E82E0F82E9FE6C92E92E084
:10514000D92EC2EED6E0D7014D915D917D01F601D9
:10515000619171916F01198308835D834C835B8337
:105160004A837F836E839B012F5F3F4F249FC00143
:10517000259F900D349F900D1124998788870115E4
:10518000110511F0C80192DF88859985080F191F54
:105190002A96FFE6EF16F2E0FF06A9F6E8ECF4E047
:1051A00080E991E0DF019C011D9221503040E1F740
:1051B0001092C7041092C6041092010710920007C3
:1051C000109205071092040710920307109202072D
:1051D000109207071092060710920907109208070D
:1051E00010920B0710920A0710920F0710920E07E9
:1051F00010920D0710920C071092110710921007D1
:1052000010921307109212071092DF061092DE061A
:105210001092E1061092E00690E080E0DF91CF91DD
:105220001F910F91FF90EF90DF90CF90089500971E
:10523000F1F0F894AFE6B2E0E2EEF6E030E020E024
:105240004D915D9148175907A8F04281538141154E
:10525000510581F08AE0829FF001839FF00D1124B7
:10526000EE51F94F80819181009759F4789490E044
:1052700080E008952F5F3F4F3A962330310501F7C4
:10528000F5CFDC0111966D917C9171836083415063
:10529000510953834283FC012193CF0178940895EF
:1052A000009749F1DC018E91853041F4E091E006F0
:1052B000F091E1063097F9F0CD0119948530D8F4DA
:1052C000282F30E0F8948FEF8C938AE0829FF001D2
:1052D000839FF00D1124EE51F94F80819181129638
:1052E0009C938E931197B183A083828193810196C1
:1052F0009383828378940895CF92DF92EF92FF9206
:105300000F931F93CF93DF939C018BEC94E08C7FE2
:105310004115510509F49BC02115310509F497C0C9
:105320006115710509F493C07A01AB01B9016D5F94
:105330007F4F6C7F9B012F5F3F4F249F8001259FF4
:10534000100D349F100D1124F89420910007309116
:105350000107232B59F420910807309109072115E3
:10536000310569F12017310708F058C020910A076C
:1053700030910B07232B91F42091080730910907F6
:10538000820F931F209112073091130721153105C9
:1053900009F441C02017310708F056C07894CFEFC8
:1053A000DFEF86EF9FEFF701D183C083DF91CF91CD
:1053B0001F910F91FF90EF90DF90CF900895C3E081
:1053C000D0E0C090C604D090C7042DE831E02C197D
:1053D0003D092017310710F32AE02C9FF0012D9F83
:1053E000F00D1124EE51F94F91838083558344834E
:1053F000538342837783668311870087009709F080
:1054000055DE0C0D1D1D1093C7040093C60478943F
:1054100090E080E0C8CFC4E0D0E0D3CFC3E0D0E0DC
:105420002AE02C9FF0012D9FF00D1124EE51F94F31
:105430009183808355834483538342837783668338
:10544000009729F333DEE3CFC4E0D0E0E9CF8FEF5C
:105450009FEFACCF9C010397029708F069C0F894C6
:1054600084E09AE0482F50E0241735070CF44DC033
:1054700091E08AE0829FF001839FF00D1124EE51AC
:10548000F94F1182108215821482138212821782C0
:1054900016829923B1F18091000790910107892B21
:1054A000A9F420910807309109072115310571F001
:1054B0008091C6049091C704821B930B9093C704FC
:1054C0008093C604109209071092080780910A077A
:1054D00090910B07892BA9F42091120730911307A3
:1054E0002115310571F08091C6049091C704821B8B
:1054F000930B9093C7048093C604109213071092E5
:105500001207789490E080E00895949FF001959FB1
:10551000F00D1124EE51F94F40815181452B31F4AA
:1055200040855185452B11F481509CCF90E0A1CF4F
:105530008FEF9FEF08954115510549F1009739F11B
:105540006115710521F1F8942091DE063091DF0696
:10555000232BB9F42091E0063091E106232B89F446
:105560009093DF068093DE067093E1066093E00679
:10557000789425E030E090E080E0FA0131832083E8
:10558000089578942FEF3FEF86EF9FEFF6CF8FEFE0
:105590009FEF0895059769F4F8941092DF06109232
:1055A000DE061092E1061092E006789490E080E02A
:1055B00008958FEF9FEF08956115710519F4F0E0DC
:1055C000E0E011C08530910581F4E091DE06F091B4
:1055D000DF063097A1F3CB0101961995009779F377
:1055E000FC0185E08193CF0108959C01235031098E
:1055F0002230310520F72AE0289FD001299FB00DE5
:105600001124AE51B94F2D913C911197232BB9F232
:1056100016962D913C9117972617370780F2F8942C
:1056200012962D913C9113972115310529F0ED919A
:10563000FC911197309711F47894C1CF4181528138
:1056400011965C934E932150310913963C932E93FF
:10565000129781937894C7CFE8E5F6E086E8DF01FA
:105660001D928A95E9F7E8ECF4E080E991E0DF012A
:105670009C011D9221503040E1F71092C704109216
:10568000C604E2EEF6E082E3DF011D928A95E9F7B7
:10569000EEEDF6E084E0DF011D928A95E9F790E0F7
:1056A00080E00895CF93DF93C0917502D091760288
:1056B000CF3FDC0759F423D4909376028093750290
:1056C00097FF09C0D0937602C093750284EF9FEFD5
:1056D000DF91CF91089590E080E0FACF823091057C
:1056E00028F48093140790E080E008958FEF9FEFF7
:1056F00008954F925F926F927F92AF92BF92CF9236
:10570000DF92EF92FF920F931F93CF93DF931F923D
:105710001F92CDB7DEB71A821982009709F479C0BB
:105720006115710509F475C02091750230917602FA
:1057300007EF1FEF2F3F3F4F09F445C06B015C019E
:10574000412C512C3201F12CE12C10E000E09E01A3
:105750002F5F3F4FA6014E195F09B5016E0D7F1DEA
:1057600080917502909176022ED4892B09F04BC05E
:1057700089819A81009741F4E114F10429F4209180
:105780001407222309F442C0E80EF91EEC14FD04AC
:10579000D0F480E8481684E858068EE16806710463
:1057A00020F560E070E0CB010E94E7352AE0420E70
:1057B000511C611C711C0A3F4FEF140721F0043F7C
:1057C0008FEF1807A1F4C8010F900F90DF91CF91D0
:1057D0001F910F91FF90EF90DF90CF90BF90AF900F
:1057E0007F906F905F904F90089501EF1FEF81E0E1
:1057F00090E0013F2FEF120711F090E080E0892B3D
:1058000009F4A5CFE0CF04EF1FEFDDCF0AEF1FEFC4
:10581000DACF0FEF1FEFD7CF4F925F926F927F9249
:10582000AF92BF92CF92DF92EF92FF920F931F93AE
:10583000CF93DF931F921F92CDB7DEB71A821982E2
:10584000009709F479C06115710509F475C02091BC
:1058500075023091760207EF1FEF2F3F3F4F09F49B
:1058600045C06B015C01412C512C3201F12CE12C23
:1058700010E000E09E012F5F3F4FA6014E195F0927
:10588000B5016E0D7F1D80917502909176024ED309
:10589000892B09F04BC089819A81009741F4E1146A
:1058A000F10429F420911407222309F442C0E80EE0
:1058B000F91EEC14FD04D0F480E4481682E4580686
:1058C0008FE06806710420F560E070E0CB010E9473
:1058D000E7352AE0420E511C611C711C0E3F4FEF50
:1058E000140721F0043F8FEF1807A1F4C8010F90AF
:1058F0000F90DF91CF911F910F91FF90EF90DF906C
:10590000CF90BF90AF907F906F905F904F90089531
:1059100002EF1FEF81E090E0023F2FEF120711F03E
:1059200090E080E0892B09F4A5CFE0CF04EF1FEFD2
:10593000DDCF0EEF1FEFDACF0FEF1FEFD7CF809144
:105940007502909176028F3F980749F0D0D2892B4B
:1059500049F48FEF9FEF909376028093750290E069
:1059600080E0089584EF9FEF0895CF92DF92EF9249
:10597000FF920F931F93CF93DF9321E041155105C1
:1059800009F020E04150510921112CC0DC01FB013C
:10599000D12CC12C21E022C03FEFC31AD30A7D01D4
:1059A0000D911D91E701EA80FB80E016F106A8F455
:1059B00020813181E280F380F182E082338322838F
:1059C000ED90FC9011979D0122503109E901F98277
:1059D000E88211961C930E9320E03296C416D506E9
:1059E000D8F2D2CFDF91CF911F910F91FF90EF901E
:1059F000DF90CF900895FC01680F791F90E080E060
:105A0000E617F70709F408952191820F911DF8CF49
:105A100020911507211113C045DE009791F41092D3
:105A20001B0710921A07109219071092180710926C
:105A300017071092160721E020931507089584EFA9
:105A40009FEF0895AF92BF92CF92DF92EF92FF92B5
:105A50000F931F93CF93DF93009709F460C04630F4
:105A6000510508F45CC020911507C7EFDFEF222332
:105A700009F449C08C01060F171FF801C080D180BE
:105A8000C114D10409F44EC096012A5F3F4F42175A
:105A9000530708F447C07C0180911A0790911B07B7
:105AA00093838283B6016C5F7F4F5801A60EB71EA9
:105AB000C801A1DFF5019183808364E070E0C80133
:105AC00018DEEC01892BF9F481E090E007DEB601E5
:105AD000C80104960EDEEC01892B91F462E070E0BF
