:1000000005C100000C941B340C9446340C947134DC
:100010000C949C340C94C7340C94F2340C941D351D
:100020000C94483524C1000022C1000020C100000A
:100030001EC100001CC100001AC1000018C1000050
:1000400016C1000014C1000012C1000010C1000060
:100050000EC100000CC100000AC100000C947335F1
:1000600006C100000C946F390C94A53900C1000042
:10007000FEC00000FCC00000FAC00000F8C0000094
:10008000F6C00000F4C00000F2C00000F0C00000A4
:100090000C94FB390C94313AEAC00000E8C000002F
:1000A000E6C00000E4C00000E2C00000E0C00000C4
:1000B000DEC00000DCC00000DAC00000D8C00000D4
:1000C000D6C00000D4C000000C94412F0C94873A95
:1000D0000C94BD3ACCC000000C94133B0C94493BEB
:1000E000C6C0000000000A0B02090C0D0E08070331
:1000F00004010000000000000000000000000000FB
:1001000000000000000000000000000000000000EF
:1001100012111000000000000000000000000000AC
:100120000000000000000000000001021020200874
:100130000810204010204080020102010804020142
:1001400001020408102040808040201008040201B1
:10015000800402018040201008040201080402010A
:100160000102040810204080010204081020408091
:1001700005050505070508080808020202020A0A23
:100180000808040404040101010101010101030341
:10019000030303030303040707070C0C0C0C0C0CEC
:1001A0000C0C0202020206060606060606060B0BE9
:1001B0000B0B0B0B0B0B000020002300260029006B
:1001C0002C002F003200000100000301060109018C
:1001D00000002200250028002B002E0031003400F2
:1001E00002010000050108010B01000021002400AC
:1001F00027002A002D003000330001010000040117
:1002000007010A01CE395A3AE63A723B11241FBE61
:10021000CFEFD1E2DEBFCDBF00E00CBF13E0A0E026
:10022000B2E0ECE6F8E700E00BBF02C007900D92E9
:10023000A03CB107D9F729E0A0ECB3E001C01D92C2
:10024000A13CB207E1F711E0C6E0D1E000E006C052
:1002500021970109802FFE010E94033CC230D10783
:1002600080E00807A9F70E9449300C94343CC8CEBE
:10027000611102C00C94B4376130E1F362E0FACF4F
:10028000662319F061E00C94F03760E0FCCFCF9268
:10029000DF92EF92FF92CF93882351F16A017B01A5
:1002A000CFEFC80F20E030E0A901CB01B6010E94DA
:1002B000493118168CF0C701B60190580E94BA3126
:1002C0009B01AC016C2F70E090E080E0CF91FF903B
:1002D000EF90DF90CF90B2C0C701B6010E94B53158
:1002E0008C2FCF91FF90EF90DF90CF900C947A36C7
:1002F000CF91FF90EF90DF90CF9008950F931F93D1
:100300008B019C0183E036952795179507958A9573
:10031000D1F700541C4F462F477021E030E0F9011F
:1003200002C0EE0FFF1F4A95E2F7AF01F8012081EE
:100330002423CB010196211102C090E080E01F919F
:100340000F9108950F931F938B019C0183E03695C5
:100350002795179507958A95D1F7677081E090E00A
:1003600001C0880F6A95EAF7F801E054FC4F20813C
:10037000452B31F48095822380831F910F9108953E
:10038000822BFACF2F923F924F925F926F927F9281
:100390008F929F92AF92BF92CF92DF92EF92FF9295
:1003A0000F931F93CF93DF93D62EC72E782E692EEF
:1003B00049015A01280161E08D2D0E94B437CD2DED
:1003C000DC2D8E010F5F1F4FA8016D2D7C2D872D19
:1003D000962DB8DF20E030E0A901C201B7010E94EC
:1003E0003933181664F4C201B7010E94BA312B01E7
:1003F000C501B4010E94BA31A201CE0123D0C801C7
:10040000DF91CF911F910F91FF90EF90DF90CF90F0
:10041000BF90AF909F908F907F906F905F904F9024
:100420003F902F900895882341F08150682F70E00D
:1004300090E080E050E040E085CF0895862FB9013C
:100440000C947A369C01FC01EC51FF4FE491E15091
:10045000E231E0F4F0E08827EF5CFD4F8F4F0C9421
:10046000033C43024A024D026402790246028E02B4
:100470009A029E02B502CA02DF02F6020B0346028E
:10048000200337034C0384B5806884BD60E0822F6D
:100490000C94F03784B58062F8CF809180008C7F17
:1004A00082608093800080918100807E8061682BD3
:1004B0006093810050938700409386008091800074
:1004C000806880938000E2CF809180008C7F826082
:1004D0008093800080918100807E8061682B609392
:1004E0008100509387004093860080918000806255
:1004F000E8CF809180008C7F826080938000809123
:100500008100807E8061682B60938100509387001A
:1005100040938600809180008860D3CF8091B000A6
:1005200080688093B0008091B100887F682B6093D1
:10053000B100ACCF8091B0008062F3CF8091900089
:100540008C7F82608093900080919100807E80619A
:10055000682B609391005093970040939600809190
:10056000900080688093900091CF809190008C7F64
:1005700082608093900080919100807E8061682BE2
:100580006093910050939700409396008091900063
:100590008062E8CF809190008C7F82608093900091
:1005A00080919100807E8061682B609391005093D0
:1005B000970040939600809190008860D3CF8091FF
:1005C000A0008C7F82608093A0008091A100807E3B
:1005D0008061682B6093A1005093A7004093A60010
:1005E0008091A00080688093A00050CF8091A000EF
:1005F0008C7F82608093A0008091A100807E8061CA
:10060000682B6093A1005093A7004093A6008091AF
:10061000A0008062E8CF8091A0008C7F82608093F0
:10062000A0008091A100807E8061682B6093A10072
:100630005093A7004093A6008091A0008860D3CF7C
:10064000809120018C7F8260809320018091210124
:10065000807E8061682B6093210150932701409335
:100660002601809120018068809320010FCF809126
:1006700020018C7F82608093200180912101807E07
:100680008061682B609321015093270140932601DC
:10069000809120018062E8CF809120018C7F826070
:1006A0008093200180912101807E8061682B60937E
:1006B00021015093270140932601809120018860F9
:1006C000D3CFCF93DF93EC0170E060E06C177D0730
:1006D0000CF5072E000C880B990B0E94E83120E0E6
:1006E00030E0A9010E94D23020E030E0A9010E9450
:1006F000D23020E030E040E450E40E94D23020E0EC
:1007000030E040E450E40E94D1300E94B5316F5F88
:100710007F4FDCCFDF91CF910895CF93DF9380910E
:10072000D9039091DA030E941D38EC018091DF0318
:100730009091E003C6DF8091DB039091DC030E947F
:100740001D38019771F48091DD039091DE032197AC
:1007500071F401969093DE038093DD03DF91CF91D6
:1007600008958091DD039091DE03CD2B91F30197E5
:10077000F1CFCF93DF938091D1039091D2030E9468
:100780001D38EC018091D7039091D8039ADF8091B6
:10079000D3039091D4030E941D38019771F4809186
:1007A000D5039091D603219771F401969093D603C7
:1007B0008093D503DF91CF9108958091D5039091D7
:1007C000D603CD2B91F30197F1CFCF93DF93809197
:1007D000C9039091CA030E941D38EC018091CF0398
:1007E0009091D0036EDF8091CB039091CC030E9457
:1007F0001D38019771F48091CD039091CE0321971C
:1008000071F401969093CE038093CD03DF91CF9145
:1008100008958091CD039091CE03CD2B91F3019754
:10082000F1CFCF93DF938091D3039091D4030E94B3
:100830001D38EC018091D7039091D80342DF80915D
:10084000D1039091D2030E941D38019771F48091D9
:10085000D5039091D603CD2B71F401969093D603D6
:100860008093D503DF91CF9108958091D503909126
:10087000D603219791F30197F1CFCF93DF93809126
:10088000CB039091CC030E941D38EC018091CF03E3
:100890009091D00316DF8091C9039091CA030E9402
:1008A0001D38019771F48091CD039091CE03CD2B2B
:1008B00071F401969093CE038093CD03DF91CF9195
:1008C00008958091CD039091CE03219791F30197E4
:1008D000F1CFCF93DF938091DB039091DC030E94F3
:1008E0001D38EC018091DF039091E003EADE8091F6
:1008F000D9039091DA030E941D38019771F4809119
:10090000DD039091DE03CD2B71F401969093DE030D
:100910008093DD03DF91CF9108958091DD03909165
:10092000DE03219791F30197F1CF0F931F93CF939C
:10093000DF938C01EC0183E0CC0FDD1F8A95E1F79A
:10094000C753DC4F798368835B834A8388819981AD
:1009500060E00E94B4378A819B8160E00E94B437D6
:100960008881998161E00E94F0378A819B8161E0F2
:100970000E94F03701301105D9F10230110509F458
:1009800066C0012B09F092C08091C9039091CA03FF
:1009900002978431910530F5875E9C4FFC01808180
:1009A000082E000C990B41E050E06DE374E00E94CA
:1009B000A1338091CB039091CC03029784319105B0
:1009C000A0F4875E9C4FFC018081082E000C990BDF
:1009D00041E050E065EE73E0DF91CF911F910F9100
:1009E0000C94A1338FEF9FEFDECF8FEF9FEFF0CF0F
:1009F0008091D1039091D20302978431910508F53B
:100A0000875E9C4FFC018081082E000C990B41E011
:100A100050E061E174E00E94A1338091D303909192
:100A2000D40302978431910578F4875E9C4FFC01D2
:100A30008081082E000C990B41E050E069EB73E0D7
:100A4000CBCF8FEF9FEFE3CF8FEF9FEFF5CF80916D
:100A5000D9039091DA0302978431910508F5875EF6
:100A60009C4FFC018081082E000C990B41E050E066
:100A700069E674E00E94A1338091DB039091DC036E
:100A800002978431910578F4875E9C4FFC01808148
:100A9000082E000C990B41E050E06DE873E09CCF0C
:100AA0008FEF9FEFE3CF8FEF9FEFF5CFDF91CF91E8
:100AB0001F910F91089523E0880F991F2A95E1F760
:100AC000FC01E753FC4F84819581089590E080E01C
:100AD00008950F931F93009709F489C0611571055C
:100AE00009F485C00091E0021091E1022091E20238
:100AF0003091E3020E3F1F4F2F4F3F4F09F068C068
:100B00004FEF5FEFBA014093E0025093E102609330
:100B1000E2027093E3024091E0025091E1026091A1
:100B2000E2027091E302DC011296ED91FC9180816A
:100B30009181A281B38180935D0490935E04A09320
:100B40005F04B093600484819581A681B78180930E
:100B5000590490935A04A0935B04B0935C0480857D
:100B60009185A285B3858093550490935604A093F4
:100B70005704B093580484859585A685B7858093DE
:100B8000510490935204A0935304B09354041092D0
:100B90004D0410924E0410924F04109250040E9483
:100BA00027138CE493E19093E2038093E103909305
:100BB000E4038093E3030E941612009731F421E0CE
:100BC00030E030936204209361041F910F910895E7
:100BD0000091E0021091E1022091E2023091E302E3
:100BE000DB010D931D932D933C93139794CF8FEFBF
:100BF0009FEFEBCF8F929F92AF92BF92CF92DF92F7
:100C0000EF92FF921F93CF93DF934B015C01109102
:100C1000640482E090E09093620480936104811404
:100C20009104A104B10441F480916404811104C0D1
:100C300080916304C1E08111C0E0C12CD12C760108
:100C400080916404811106C080916304811102C007
:100C5000CC23D9F083E090E0909362048093610408
:100C6000CC2381F1CCE9DFEF111102C00E94B01654
:100C7000CE01DF91CF911F91FF90EF90DF90CF9049
:100C8000BF90AF909F908F9008956AE070E080E0F1
:100C900090E00E94E23580E1C80E87E2D81EE11C98
:100CA000F11C8FEF88169806A806B80631F0C1E04F
:100CB0008C149D04AE04BF0408F0C0E080E00E94E4
:100CC0004A12BECFD0E0C0E0CFCFCF92DF92EF92FA
:100CD000FF920F931F93CF93DF938F3F910511F0F6
:100CE00008F051C020916104309162042330310535
:100CF00039F020916104309162042130310531F4E2
:100D000024E030E030936204209361046A017B01A7
:100D1000EC0182309105A8F011E0AE01C701B601E7
:100D20000E941512AB01BC01CE011123F9F0DF9135
:100D3000CF911F910F91FF90EF90DF90CF900C9487
:100D4000D9188C01000F111F0F511C4FD8018D9124
:100D50009C91892B09F30E94E3180297E9F6D801C8
:100D6000ED91FC91CE011995182FD7CF0E94FB1859
:100D700090E080E0DF91CF911F910F91FF90EF9075
:100D8000DF90CF9008958FEF9FEFF4CF80E00C9429
:100D90004A12CF93DF9386E090E0909362048093B1
:100DA00061040E94A312EC01E1EEF3E084E0DF01B4
:100DB0001D928A95E9F70E944816109262041092DB
:100DC0006104CE01DF91CF9108958091630408956D
:100DD00080914C0408956093E0027093E102809347
:100DE000E2029093E30290E080E008954F925F92D8
:100DF0006F927F928F929F92AF92BF92CF92DF922B
:100E0000EF92FF92CF93DF9300D01F92CDB7DEB762
:100E10004B015C0169017A010E9413118823E9F0FA
:100E20008090B3099090B409A090B509B090B6092C
:100E3000C501B4010F900F900F900F90DF91CF91EB
:100E4000FF90EF90DF90CF90BF90AF909F908F90EA
:100E50007F906F905F904F900895C701B6010E94F8
:100E600013118111DDCFC501B4010E94CE10811193
:100E7000D7CFC701B6010E94CE108111D9CF20E093
:100E800030E0A901C701B6010E94493187FF4CC07B
:100E9000C701B6010E9436312B013C01A30192012A
:100EA000C701B6010E944931882309F44CC0A7014B
:100EB0009601C501B4010E944D312B013C01E8941B
:100EC00077F820E030E040E05FE3C301B2010E9428
:100ED000D2300E9423329B01AC01C301B2010E94B7
:100EE000D1309B01AC015F7729833A834B835C83CC
:100EF00020E030E040E054E3C301B2010E943D3302
:100F00009B01AC0169817A818B819C810E9439337C
:100F10001816CCF020E030E0A901C501B4010E9410
:100F20003D334B015C0184CFC701B6010E942332DF
:100F30002B013C0120E030E0A901C701B6010E946D
:100F400049318111ABCFA7019601C501B4010F90C2
:100F50000F900F900F90DF91CF91FF90EF90DF9067
:100F6000CF90BF90AF909F908F907F906F905F9049
:100F70004F900C943D32CF92DF92EF92FF926B0133
:100F80007C019F7720E030E040E859E50E9449313C
:100F900087FF2BC020E030E040E05FE3C701B601EF
:100FA0000E94393387FD0EC020E030E040E05FE36F
:100FB000C701B6010E94D230FF90EF90DF90CF9032
:100FC0000C94233220E030E040E05FEBC701B60133
:100FD0000E943933181684F420E030E0A901C701DB
:100FE000B6010E943D336B017C01C701B601FF9041
:100FF000EF90DF90CF90089520E030E040E05FE395
:10100000C701B6010E94D130FF90EF90DF90CF90E2
:101010000C9436312F923F924F925F926F927F9253
:101020008F929F92AF92BF92CF92DF92EF92FF92F8
:101030000F931F93CF93DF93CDB7DEB72F970FB6E4
:10104000F894DEBF0FBECDBFC0906002D0906102A9
:10105000E0906202F0906302A701960160916D0931
:1010600070916E0980916F09909170090E944931C9
:10107000882341F0C0926D09D0926E09E0926F0909
:10108000F092700990E080E016DDBC01990F880BAA
:10109000990B0E94E83120917C0230917D024091B1
:1010A0007E0250917F020E943D3320918002309158
:1010B000810240918202509183020E943D336983F4
:1010C0007A838B839C8320918402309185024091A6
:1010D0008602509187020E94D2306B017C01C0923F
:1010E0004709D0924809E0924909F0924A092091B3
:1010F00088023091890240918A0250918B020E94AD
:10110000393387FDC7C08090640290906502A0903B
:101110006602B090670220916802309169024091A6
:101120006A0250916B02C701B6010E94D230A5013C
:1011300094015CDE9B01AC0160916C0270916D02C8
:1011400080916E0290916F020E94D23060934B09A1
:1011500070934C0980934D0990934E09C0905C02A6
:10116000D0905D02E0905E02F0905F02A7019601D0
:1011700060917709709178098091790990917A0945
:101180000E944931882341F0C0927709D0927809B2
:10119000E0927909F0927A0981E090E08CDCBC0160
:1011A000990F880B990B609363097093640980937E
:1011B0006509909366090E94E83120918C02309174
:1011C0008D0240918E0250918F020E943D332091FA
:1011D00090023091910240919202509193020E94AC
:1011E0003D336B017C0120914F09309150094091B2
:1011F00051095091520960913002709131028091F1
:101200003202909133020E943D334B015C014090C9
:1012100028025090290260902A0270902B02AC01A3
:101220009B01C301B2010E94493118166CF4C3013D
:10123000B201F9D7811108C080902802909029024C
:10124000A0902A02B0902B028091A509882309F46E
:1012500053C0C0929309D0929409E0929509F092FC
:10126000960940909C0250909D0260909E02709062
:101270009F02A7019601C301B2010E94493187FF75
:101280002BC04092930950929409609295097092F4
:10129000960932C08090700290907102A090720204
:1012A000B0907302209174023091750240917602E1
:1012B00050917702C701B6010E94D230A501940176
:1012C00095DD9B01AC01609178027091790280916B
:1012D0007A0290917B0238CF4090A0025090A102F8
:1012E0006090A2027090A302A7019601C301B2010F
:1012F0000E94393318162CF220E030E0A9016091E9
:1013000094027091950280919602909197020E94AA
:101310004931811104C08091A309882389F1C092C9
:101320009309D0929409E0929509F0929609409021
:101330009C0250909D0260909E0270909F02A701B7
:101340009601C301B2010E94493187FF09C0409252
:10135000930950929409609295097092960910C071
:101360004090A0025090A1026090A2027090A3024F
:10137000A7019601C301B2010E94393318163CF34C
:101380004090930950909409609095097090960947
:101390000091A4021091A5028091A6028E839091E3
:1013A000A7029D839801AC01B201C3010E943933A9
:1013B0001816ACF00091A8021091A902A091AA02FF
:1013C000AE83B091AB02BD839801AD01B201C30100
:1013D0000E94493187FD03C082016E827D8220E038
:1013E00030E0A901C501B4010E94493120E030E09C
:1013F000A901811104C020E030E040E855E2C501B8
:10140000B4010E94D2309B01AC0160E070E080E842
:101410009FE30E944D314B015C0198014E815D813B
:10142000C701B6010E94D130A50194010E943D334D
:101430006E837F8388879987209157093091580957
:101440004091590950915A096091340270913502C6
:1014500080913602909137020E943D332B013C016E
:1014600080902C0290902D02A0902E02B0902F021E
:10147000AC019B01C501B4010E94493118166CF4FE
:10148000C501B401D0D6811108C040902C02509003
:101490002D0260902E0270902F028091A609882361
:1014A000B9F189819A81AB81BC818093970990932E
:1014B0009809A0939909B0939A098090B4029090EA
:1014C000B502A090B602B090B7029C01AD01C50173
:1014D000B4010E94493187FF09C080929709909218
:1014E0009809A0929909B0929A0912C08090B80206
:1014F0009090B902A090BA02B090BB0229813A81C3
:101500004B815C81C501B4010E94393318162CF35C
:1015100020E030E0A9016091AC027091AD028091B1
:10152000AE029091AF020E944931811104C08091B6
:10153000A4098823B9F189819A81AB81BC81809308
:10154000970990939809A0939909B0939A0980906C
:10155000B4029090B502A090B602B090B7029C0180
:10156000AD01C501B4010E94493187FF09C08092D5
:10157000970990929809A0929909B0929A0912C07D
:101580008090B8029090B902A090BA02B090BB02CD
:1015900029813A814B815C81C501B4010E943933B4
:1015A00018162CF3B0909709A0909809909099097B
:1015B00080909A091091BC029091BD029A87A091E7
:1015C000BE02AD830091BF02212F392F4A2F502F29
:1015D0006B2D7A2D892D982D0E9439331816D4F051
:1015E0001091C002B091C102BA878091C2028D836E
:1015F0000091C302212F3B2F482F502F6B2D7A2DA6
:10160000892D982D0E94493187FD04C01B2DAA8683
:101610009D82082D20E030E0A901C301B2010E94A3
:101620004931812C912C5401811106C0812C912CBF
:1016300030E8A32E35E2B32E212F3A854D81502F6D
:1016400069817A818B819C810E94D13069837A8300
:101650008B839C83A5019401C301B2010E94D23007
:101660009B01AC0160E070E080E89FE30E944D3197
:1016700029813A814B815C810E943D336A877B8757
:101680008C879D8760914B0970914C0980914D0921
:1016900090914E099F772091C4023091C5024091EC
:1016A000C6025091C7020E94393318160CF014C1BB
:1016B0008091380290913902A0913A02B0913B0298
:1016C00080935F0990936009A0936109B0936209C8
:1016D00000915F0910916009A0916109AD83B091FB
:1016E0006209B983C090C802D090C902E090CA02D2
:1016F000F090CB02A7019601B801CD010E943933C9
:101700001816A4F0C090CC02D090CD02E090CE028A
:10171000F090CF02A7019601B8018D8199810E94B6
:10172000493187FD03C06801ED80F980C701B6012A
:101730007AD5882309F407C28090B3099090B40940
:10174000A090B509B090B609A50194016091D802A6
:101750007091D9028091DA029091DB020E944931A6
:1017600018160CF413C26091D0027091D1028091CE
:10177000D2029091D302FFDB2B013C0120E030E04C
:1017800040E853E40E9449316FEF87FF0EC020E02C
:1017900030E0A901C301B2010E94393360E087FD46
:1017A00004C0C301B2010E94BA3187E00E94400127
:1017B000A50194016091DC027091DD028091DE024E
:1017C0009091DF020E94493118160CF4E8C1609133
:1017D000D4027091D5028091D6029091D702CBDBD2
:1017E0004B015C0120E030E040E853E40E944931C5
:1017F0006FEF87FF0EC020E030E0A901C501B40102
:101800000E94393360E087FD04C0C501B4010E9425
:10181000BA3188E00E94400166E070E080E090E02C
:101820000E947E019A838983909392098093910903
:10183000E894F7F820E030E04FE753E4C701B60141
:101840000E944931181634F4C12CD12C8FE7E82EB0
:1018500083E4F82EB701A60189819A810E9447018D
:101860001092A509209198023091990240919A0214
:1018700050919B026E817F81888599850E943D33BE
:1018800020919309309194094091950950919609BE
:101890000E94D2306B017C01C0929309D0929409CE
:1018A000E0929509F092960980909C0290909D029A
:1018B000A0909E02B0909F02A50194010E9439332E
:1018C00018160CF075C18092930990929409A09219
:1018D0009509B09296097CC1209120023091210295
:1018E00040912202509123026E817F8188859985E3
:1018F0000E943D33162F7F878E87092F2091240267
:101900003091250240912602509127026A857B85FD
:101910008C859D850E943D3369837D83582E492E99
:10192000A701960160915402709155028091560270
:10193000909157020E94493187FFE5C080903C0298
:1019400090903D02A0903E02B0903F022091400254
:10195000309141024091420250914302C701B601C9
:101960000E94D230A501940141DA209144023091C5
:10197000450240914602509147020E94D2306B01CD
:101980007C01309018022090190260901A02709029
:101990001B02212F3F854E85502F632D722DC301D1
:1019A0000E94493187FD17C030901002209011022B
:1019B0006090120270901302212F3F854E85502FA8
:1019C000632D722DC3010E943933181624F0312E75
:1019D0002F846E84702E10911C0290911D029F879F
:1019E000A0911E02AE8700911F0229813D81452DE5
:1019F000542D612F792F8A2F902F0E94493187FD16
:101A00001AC010911402B0911502BF87809116027E
:101A10008E870091170229813D81452D542D612F1C
:101A20007B2F902F0E94393318162CF019819D813D
:101A30009F875E86042D609104027091050280915B
:101A4000060290910702905820914B0930914C0961
:101A500040914D0950914E090E943D334B015C016C
:101A60006091000270910102809102029091030244
:101A70009058A70196010E943D339B01AC01C5011E
:101A8000B4010E94D2306B017C0160910802709118
:101A9000090280910A0290910B029058232D322D59
:101AA000A3010E943D339B01AC01C701B6010E9416
:101AB000D2306B017C0160910C0270910D0280911B
:101AC0000E0290910F029058212F3F854E85502F86
:101AD0000E943D339B01AC01C701B6010E94D23088
:101AE000209158023091590240915A0250915B0264
:101AF0000E943D3360935F09709360098093610990
:101B000090936209E5CD8090480290904902A090A0
:101B10004A02B0904B0220914C0230914D0240910C
:101B20004E0250914F02C701B6010E94D230A5016A
:101B300094015CD92091500230915102409152029F
:101B4000509153021ACF20E030E0A901C701B6013D
:101B50000E944931812C912C20E8A22E2FEBB22E2D
:101B600087FDF2CD20E030E0A901C701B6010E9457
:101B70003933812C912C540118160CF0E5CD812CB1
:101B8000912C90E8A92E9FE3B92EDECD6091D4026E
:101B90007091D5028091D6029091D702ECCD6091E0
:101BA000D0027091D1028091D2029091D30217CECF
:101BB0008090A0029090A102A090A202B090A302F7
:101BC000A5019401C701B6010E94493187FD7BCE72
:101BD000C0909402D0909502E0909602F090970207
:101BE00020E030E0A901C701B6010E943933181680
:101BF00024F481E08093A30916C020E030E0A9011D
:101C0000C701B6010E94493187FF02C08FEFF2CFB2
:101C100020E030E0A901C701B6010E9449318111DD
:101C20003DC01092A3091092A6092091B0023091F4
:101C3000B1024091B2025091B3026A857B858C85D6
:101C40009D850E943D3320919709309198094091DC
:101C5000990950919A090E94D2306B017C01C0927F
:101C60009709D0929809E0929909F0929A09809088
:101C7000B4029090B502A090B602B090B702A50150
:101C800094010E94393318165CF48092970990925F
:101C90009809A0929909B0929A0912C082E0AACF3D
:101CA0008090B8029090B902A090BA02B090BB02A6
:101CB000A5019401C701B6010E94493187FDE5CF16
:101CC000C090AC02D090AD02E090AE02F090AF02B6
:101CD00020E030E0A901C701B6010E94393318168F
:101CE00024F481E08093A40916C020E030E0A9012B
:101CF000C701B6010E94493187FF02C08FEFF2CFC2
:101D000020E030E0A901C701B6010E9449318111EC
:101D100045C01092A409609123047091240480911D
:101D20002504909126046F5F7F4F8F4F9F4F6093E4
:101D300023047093240480932504909326040E9426
:101D4000E6319B01AC0160912704709128048091D9
:101D5000290490912A040E943D3360931F047093DC
:101D6000200480932104909322042F960FB6F894B8
:101D7000DEBF0FBECDBFDF91CF911F910F91FF90BE
:101D8000EF90DF90CF90BF90AF909F908F907F901B
:101D90006F905F904F903F902F90089582E0A2CF78
:101DA0008F929F92AF92BF92DF92EF92FF920F932A
:101DB0001F93CF93DF9384E090E0B9D18091B7096E
:101DC0009091B809A091B909B091BA09E0E0F2E0A8
:101DD000808B918BA28BB38B848B958BA68BB78BCF
:101DE0004091AF095091B0096091B1097091B20969
:101DF000408F518F628F738F448F558F668F778F8F
:101E000040939C0250939D0260939E0270939F02A8
:101E10008093A0029093A102A093A202B093A30288
:101E20004093A4025093A5026093A6027093A70268
:101E30008093A8029093A902A093AA02B093AB0248
:101E40004093B4025093B5026093B6027093B70208
:101E50008093B8029093B902A093BA02B093BB02E8
:101E60004093BC025093BD026093BE027093BF02C8
:101E70008093C0029093C102A093C202B093C302A8
:101E8000E9E0F4E080E090E0A0E8BFEB82A393A358
:101E9000A4A3B5A34FE652E163E87AE3468F578FD8
:101EA00060A371A383E19AE5A3E0B6EA84839583F6
:101EB000A683B78387E99AE8A3EEB9EA808791877A
:101EC000A287B38788E29EE3AFE4B5E58487958770
:101ED000A687B7878FE09FE7AAEDB9E8808B918B43
:101EE000A28BB38BADEFB3E0B383A283E5EEF3E057
:101EF0001196FC93EE938DE293E09183808393831C
:101F00008283958384839783868391878087938751
:101F100082879587848797878687918B808B938B21
:101F2000828B958B848B978B868B8DE194E01596B5
:101F30009C938E9314978DE094E013969C938E93CC
:101F400012978FE194E017969C938E931697E7E48F
:101F5000F9E0408751876287738714861586168655
:101F60001786408B518B628B738B148A158A168A65
:101F7000178AC7E6D9E0DD24D394DEAEDFAE18823F
:101F80008091600290916102A0916202B09163021F
:101F90008E839F83A887B987812C912C54018394C9
:101FA00089829A82AB82BC8243E050E062E070E0BA
:101FB00090E080E00E949504DD821A8680915C02A8
:101FC00090915D02A0915E02B0915F02888B998B27
:101FD000AA8BBB8B8B869C86AD86BE8643E150E088
:101FE00062E170E081E090E00E949504DF861C8E43
:101FF0008D8E9E8EAF8EB8A261E087E00E94380180
:10200000D9A21C8A8D8A9E8AAF8AB88E61E088E048
:102010000E943801D98E1CA28DA29EA2AFA2B8A6A2
:10202000E12CF12C8701A801970166E070E080E0C7
:1020300090E00E94C2019BA78AA7D9A6DF91CF9109
:102040001F910F91FF90EF90DF90BF90AF909F9006
:102050008F90089580916709811103C081E080937A
:10206000670980917109811103C081E08093710932
:1020700080918309811103C081E08093830980915D
:102080007B09811103C081E080937B0980918B09DA
:1020900081112EC081E080938B0980918C099091F1
:1020A0008D09A0918E09B0918F090197A105B10505
:1020B000F9F4809190098823D9F066E070E080E01F
:1020C00090E00E947E01909392098093910940E0F4
:1020D00050E0BA010E94470166E070E080E090E0C5
:1020E0000E947E0190939209809391090C941302AF
:1020F000089560E070E080E89FE7089560E070E098
:1021000080E89FE7089560E070E080E89FEF089521
:1021100060E070E080E89FEF089560E070E080ECA0
:102120009FEF089560E070E080EC9FEF0895F5DF89
:102130006093B3097093B4098093B5099093B6097D
:10214000F1DF6093A7097093A8098093A909909380
:10215000AA09CFDF6093AF097093B0098093B109EA
:102160009093B209CBDF6093AB097093AC09809375
:10217000AD099093AE09C7DF6093B7097093B809B2
:102180008093B9099093BA09C3DF6093BB09709338
:10219000BC098093BD099093BE090895CF92DF9248
:1021A000EF92FF92CF936B017C01AC019B01609198
:1021B000AF097091B0098091B1099091B2090E9464
:1021C0004931C1E0882371F0A70196016091B709F8
:1021D0007091B8098091B9099091BA090E9449316A
:1021E0008111C0E08C2FCF91FF90EF90DF90CF90C6
:1021F00008950F931F938B019C01002711272078CE
:102200003F770115110520483F4749F4AB01BC0158
:102210006F77772781E0452B462B472B09F480E029
:102220001F910F910895E5CF4F925F926F927F9229
:102230008F929F92AF92BF92CF92DF92EF92FF92D6
:102240000F931F93F89440903C0450903D0460908D
:102250003E0470903F04C0903004D0903104E09070
:102260003204F0903304452B09F0A4C09B01AC016B
:10227000241935094609570929013A010091380402
:102280001091390420913A0430913B0448015901DE
:10229000840C951CA61CB71C80169106A206B306DA
:1022A000A0F400913404109135042091360430914B
:1022B00037040F5F1F4F2F4F3F4F0093340410938D
:1022C000350420933604309337048092380490927A
:1022D0003904A0923A04B0923B0400913404109166
:1022E0003504209136043091370480924004909256
:1022F0004104A0924204B09243040093440410931A
:102300004504209346043093470460933C04709343
:102310003D0480933E0490933F04A8EEB3E0A301F4
:1023200092010E940B3C6C0D7D1D8E1D9F1D6093C4
:1023300030047093310480933204909333040091FD
:10234000E0021091E1022091E2023091E3020F3F9E
:102350001F4F2F4F3F4FF1F00091E0021091E1022B
:102360002091E2023091E3020E3F1F4F2F4F3F4F6B
:1023700089F0C090E002D090E102E090E202F0909B
:10238000E30221E08C149D04AE04BF0408F420E0B5
:1023900020934C0478941F910F91FF90EF90DF9061
:1023A000CF90BF90AF909F908F907F906F905F90F5
:1023B0004F9008954B015C0184189508A608B70852
:1023C000A3019201261B370B480B590B64157505A9
:1023D00086059705D0F082169306A406B50640F44C
:1023E00020E030E0A90181149104A104B10491F42A
:1023F000A8EEB3E00E940B3CA7019601261B370B09
:10240000480B590BCA01B901C5CF82169306A40621
:10241000B50670F7A8EEB3E0A50194010E940B3C4D
:102420006C0D7D1D8E1D9F1DB5CFFECECF93DF930E
:1024300000D01F92CDB7DEB71C821B821A82198290
:10244000109248041092490410924A0410924B04CE
:10245000BE016F5F7F4FCE0103960E94112F6981ED
:102460007A818B819C810E94FF27009761F4BE01D5
:102470006F5F7F4FCE0103960E941D2F69817A8185
:102480008B819C812ED50F900F900F900F90DF9134
:10249000CF910895FF920F931F93CF93DF93082F4F
:1024A00060E070E0CB010E94E235FF24F3940E94CB
:1024B000E826EC01892B89F010E0CE3F8FEFD8079A
:1024C00069F0002361F160E070E0CB010E94E23529
:1024D00081E090E0892B59F322C011E025D5EC0171
:1024E000892B21F0CE3F8FEFD80759F711111EC06D
:1024F00011E0229609F410E00E949826EC01892B45
:1025000021F0CE3F8FEFD807E1F6111111C011E095
:10251000CE3F8FEFD80709F410E001110BC0CE01B8
:10252000DF91CF911F910F91FF90089511E0E4CFBB
:1025300011E0F3CF60E070E0CB010E94E2351F258F
:10254000812F90E0C7CFCF93DF9380914C048823F5
:1025500021F060E070E0CB014CD635D6D0E0C0E091
:10256000892B71F06AE070E080E090E00E94E23533
:1025700081E090DF28D62196C03D27E0D20781F781
:1025800027D60E945328109264041092630410927C
:102590005D0410925E0410925F0410926004109229
:1025A000590410925A0410925B0410925C04109229
:1025B0005504109256041092570410925804109229
:1025C0005104109252041092530410925404109229
:1025D0004D0410924E0410924F04109250044EEF8E
:1025E0005FEF6FEF7FEF4093E0025093E102609363
:1025F000E2027093E30210924C04E0E4F4E028E07D
:10260000DF011D922A95E9F710923C0410923D04D7
:1026100010923E0410923F04109238041092390434
:1026200010923A0410923B04109234041092350434
:102630001092360410923704109230041092310434
:102640001092320410923304DF91CF9108951092CA
:10265000700410927104109272041092730410921C
:102660006F04809178049091790490936E04809324
:102670006D0410926C0410926B0410926704109217
:1026800068041092690410926A0410927504109202
:10269000740490E080E00895CF92DF92EF92FF9271
:1026A0000F931F93CF938C01892B09F055C0209174
:1026B00078043091790480916D0490916E0440917A
:1026C00078045091790450936E0440936D04281758
:1026D000390781F010926C0410926B041092670419
:1026E000109268041092690410926A0410927504A2
:1026F000109274048091780490917904019761F5A7
:102700008091740490917504892B21F48091E402E6
:10271000811112C080917404909175040197E1F4C5
:102720008091670490916804A0916904B0916A0453
:102730000197A105B10581F4109267041092680415
:102740001092690410926A041092E40282E090E010
:102750009093750480937404809178049091790427
:10276000019709F01CC180918E0490918F0480170D
:10277000910709F014C180918A0490918B04A09173
:102780008C04B0918D04009709F409C1209189044B
:1027900021110DC040918A0450918B0460918C04EA
:1027A00070918D04452B462B472B09F4F8C02091DE
:1027B0007404309175042230310509F0F0C0209185
:1027C0006B042111ECC0FC01C080D180E280F38059
:1027D00080916F04882309F4D3C080917B04909189
:1027E0007C04892B09F4FDC020917B0430917C048A
:1027F00081E02230310509F080E020917B043091A6
:102800007C04C1E02130310549F020917B043091F6
:102810007C04C1E02230310509F0C0E0882309F4CE
:1028200056C02091850430918604409187045091D0
:102830008804C701B6010E94393387FD14C0209176
:1028400085043091860440918704509188046091FA
:1028500070047091710480917204909173040E94CD
:10286000493187FD22C02091850430918604409132
:10287000870450918804C701B6010E9439331816A5
:1028800034F520918504309186044091870450915D
:102890008804609170047091710480917204909129
:1028A00073040E944931811112C080917D0490917E
:1028B0007E04A0917F04B0918004892B8A2B8B2BFE
:1028C00019F481E080936C0481E080936B04CC2345
:1028D00009F456C020918504309186044091870404
:1028E00050918804C701B6010E94493187FF14C086
:1028F000209185043091860440918704509188048A
:1029000060917004709171048091720490917304CD
:102910000E94393387FF22C02091850430918604BC
:102920004091870450918804C701B6010E94493143
:10293000811126C02091850430918604409187043E
:1029400050918804609170047091710480917204B8
:10295000909173040E943933181694F480917D0489
:1029600090917E04A0917F04B0918004892B8A2BE2
:102970008B2B19F481E080936C0481E080936B04CD
:1029800081E090916B04911180E080936F04C0927C
:102990007004D0927104E0927204F0927304012BDF
:1029A00009F067C18091740490917504892BD9F462
:1029B00010927A0410926B048091E402882379F0DB
:1029C00082E090E090937504809374041092E40286
:1029D000209178043091790481E0232BE9F080E0A4
:1029E0001BC081E00ACF1092E40280917A04882310
:1029F00049F010926C0410927504109274041092B5
:102A00007A04EDCF8091780490917904892BE1F0DC
:102A100080916B0410926B042091740430917504C2
:102A20002230310509F45EC088F42115310509F41E
:102A300048C02130310509F4F3C010926C041092A3
:102A40006B0410927A0438C081E0E6CF2330310560
:102A500009F4B1C02430310581F7409167045091E9
:102A600068046091690470916A044115510561051B
:102A7000710561F041505109610971094093670482
:102A8000509368046093690470936A0440916704EA
:102A9000509168046091690470916A04452B462B3B
:102AA000472BD9F4209176043091770421303105F9
:102AB00009F046C010926C041092750410927404D0
:102AC0000CC08091E402882341F082E090E0909372
:102AD0007504809374041092E4021092650480914E
:102AE0006C04CEC08823C9F380917D0490917E044C
:102AF000A0917F04B0918004181619061A061B06CF
:102B00000CF07DC08091780490917904019709F0D0
:102B100076C080917D0490917E04A0917F04B09155
:102B200080048093670490936804A0936904B09331
:102B30006A0483E090E09093750480937404CDCF91
:102B400040918104509182046091830470918404C7
:102B5000452B462B472BA9F010926C0480918104E1
:102B600090918204A0918304B091840480936704BF
:102B700090936804A0936904B0936A0481E090E0A4
:102B8000DACF882399F08091E5029091E602A09136
:102B9000E702B091E8028093670490936804A093E1
:102BA0006904B0936A0484E090E0C5CF10926C048D
:102BB00082E090E0C0CF8091670490916804A0917A
:102BC0006904B0916A040097A105B10559F0019715
:102BD000A109B1098093670490936804A0936904E4
:102BE000B0936A048091670490916804A09169048D
:102BF000B0916A04892B8A2B8B2B09F06ECF8091C0
:102C0000E5029091E602A091E702B091E802892BDB
:102C10008A2B8B2B09F44ECF81E080936C04B3CFC9
:102C200040916704509168046091690470916A044E
:102C3000411551056105710561F041505109610966
:102C4000710940936704509368046093690470931A
:102C50006A0440916704509168046091690470911E
:102C60006A04452B462B472B09F037CF8111C7CF7C
:102C70009FCF80916504882309F431CF8091660449
:102C8000CF911F910F91FF90EF90DF90CF9008951B
:102C900010927004109271041092720410927304D6
:102CA00010926F04109275041092740410926E04C6
:102CB00010926D0410928F0410928E0410926C0486
:102CC00010926B04109267041092680410926904C9
:102CD00010926A04109266041092650410928A049D
:102CE00010928B0410928C0410928D04109289041F
:102CF0001092850410928604109287041092880422
:102D000088EE93E0A0E0B0E08093E5029093E602C5
:102D1000A093E702B093E80210928104109282041B
:102D2000109283041092840410927D0410927E0409
:102D300010927F041092800410927C0410927B0405
:102D400081E08093E40210927A0410927904109248
:102D50007804109277041092760490E080E0089551
:102D60008091780490917904892B19F58091E4027F
:102D7000882351F080917A04811106C081E080930C
:102D8000660480936504089520917A043091E402EA
:102D900081E090E0332311F090E080E030E0822386
:102DA0009323892B21F01092660481E0EACF1092E0
:102DB0006504089582E090E0FA01918380838FEFAB
:102DC0009FEF0895CF93DF93EA01009711F00E94DF
:102DD00073291982188290E080E0DF91CF910895E5
:102DE000DB01009719F48FEF8C9308952EEF2C934D
:102DF000FC013F96EF30F10508F034C08827EC5F06
:102E0000F84E8F4F0C94033C30172E172C172A17AF
:102E1000281724172617221720171E171B171717F6
:102E200013171917321780E311968C93089589E2CE
:102E3000FBCF82E2F9CF11961C92089583E2F4CF82
:102E400081E2F2CF81E1F0CF87E2EECF8AE2ECCFF0
:102E500080E1EACF84E2E8CF88E2E6CF86E2E4CF01
:102E600081E3E2CF80E2E0CF80919C0490919D04C9
:102E7000089590939D0480939C04089580919B04F1
:102E8000089590919B04892B80939B040895982F1B
:102E9000909580919B04892380939B040895809151
:102EA0009A04089580919804909199040895611569
:102EB000710559F0FB0130E020E070E060E024177C
:102EC000350719F06115710511F0CB010895A08146
:102ED000B181A817B90709F4BF012F5F3F4F36969C
:102EE000EECF80919E0481111CC060D266D2909377
:102EF0009104809390040E9471210E9483219093F9
:102F00009504809394040E9400260E9407269093C3
:102F100093048093920481E080939E0490E080E08B
:102F2000089584EF9FEF08958F929F92AF92BF9282
:102F3000CF92DF92EF92FF920F931F93CF93DF9385
:102F400000D000D000D01F92CDB7DEB71A86198608
:102F500018861F821E821D821C821B821A82198281
:102F600080919E0407EF1FEF882309F49CC08E0117
:102F70000D5F1F4F9E012B5F3F4FAE01495F5F4FBB
:102F8000BE01675F7F4F90E080E00E9484278C0144
:102F9000009721F00596029708F0DBC029853A8555
:102FA0002115310509F402C1ED80FE804B815C8161
:102FB000B701640F751F8F8198858617970708F4EE
:102FC000F5C0E20EF31ED7019C91903C09F07FC042
:102FD0004230510508F47BC011968C9140919C04BD
:102FE00050919D04452B09F49CC0913F08F071C09D
:102FF0002CE1290F2D3008F48BC02DE2290F203150
:1030000008F489C0903C21F48150823008F483C0D8
:1030100088E3890F8B3008F481C090EFC92E96E1C8
:10302000D92EEAEDF6E16D817E81AE014F5F5F4FF3
:1030300089859A8519955C01C114D104A1F1898013
:103040009A808114910479F18B819C81881599056E
:1030500008F487C010E000E04B815C8170E060E024
:10306000C7010E942D3C01151105E9F449815A81DF
:1030700069857A858D819E81680F791FC501F6016A
:103080001995E980FA800D811E812F813885498547
:103090005A856FEF7FEF81E090E00E941F278C013F
:1030A000892B09F056C0C8012A960FB6F894DEBFE6
:1030B0000FBECDBFDF91CF911F910F91FF90EF9089
:1030C000DF90CF90BF90AF909F908F90089580E059
:1030D00085CF30E020E0220F331FF901E057FB4F8E
:1030E0000190F081E02D309709F497CF892F90E07F
:1030F0001995009709F491CFDC011296ED91FC919E
:1031000013971496CD90DC90309709F08CCF1FC0A8
:1031100021E030E0E0CF22E030E0DDCF23E030E01E
:10312000DACFD12CC12CE2EEF6E19F3F09F07BCF44
:10313000E0919004F0919104309721F4C90104EFDB
:103140001FEF0CC08FEF90E019950097A9F604EFE0
:103150001FEF89859A85009709F4A5CF0E947329EE
:10316000A2CF0E944E288C0189859A850E947329DE
:1031700070E060E0C4010E94E72798878F830E9477
:103180001C279E838D836F8178856115710559F0A9
:10319000C8010E94FF2A9A87898706EF1FEF892BB3
:1031A00009F058CF59CF08EF1FEF56CF08EF1FEFA8
:1031B000D0CF20919E04222319F020E00C94882186
:1031C00087EF9FEF089580919C0490919D0408954E
:1031D0000E940C260E946625F5D0E0E9F4E088E024
:1031E000DF011D928A95E9F710929E0490E080E03D
:1031F00008950C94C42321E040E050E0BA010C94FF
:10320000882186E090E0FA019183808390E080E05D
:10321000089547E050E060E373E049CEDF92EF921B
:10322000FF920F931F93CF93DF938A01EC01C60F98
:10323000D71FE090A204F090A304D9800E94362802
:10324000D816190678F082E090E0F8019183808327
:103250008EEF9FEFDF91CF911F910F91FF90EF9035
:10326000DF900895EF2841F482E090E0F801918327
:10327000808384EF9FEFEECF89818093A10490E05B
:103280000196F8019183808390E080E0E3CFCF93B3
:10329000DF93EA010E947524882321F00E944328CD
:1032A0000E94762482E090E0998388838BEF9FEFE1
:1032B000DF91CF910895CF93DF93EB0186E0FB017F
:1032C00011928A95E9F78FEF8883D8DD8983E7DD4E
:1032D0008A83E8DD9D838C83DF91CF910895CF931E
:1032E000DF93EA010E947824811109C082E090E016
:1032F0009983888385EF9FEFDF91CF91089590E0C8
:1033000080E0B7DD81E090E09983888390E080E001
:10331000F3CF0F931F93CF93DF93EA018C01060F36
:10332000171F0E94782481110BC082E090E09983DE
:10333000888385EF9FEFDF91CF911F910F910895C3
:10334000F8018181823038F082E090E099838883AF
:103350008EEF9FEFF0CF81E090E08BDD88E090E092
:103360009983888390E080E0E6CFCF93DF93009746
:10337000D1F4EB01FB01329686E0DF011D928A95C4
:10338000E9F78FEF888385E089831A820E943628C7
:103390008B830E9435289D838C8381E08E838F836D
:1033A000DF91CF910895DF91CF911ACD89E099E116
:1033B0009093A00480939F04089580919F0490911E
:1033C000A00408951092A00410929F040895809183
:1033D000A2049091A3040895411105C061157105DF
:1033E0008105910561F06093A2047093A30480931A
:1033F000A4049093A5044093A60481E0089580E07E
:103400000895FF920F931F93CF93DF938A01EC01EE
:10341000C60FD71FF9800E943628F816190668F0E3
:1034200082E090E0F801918380838EEF9FEFDF913F
:10343000CF911F910F91FF9008956C817D818E81B6
:103440009F814B81C9DF811108C082E090E0F801C3
:103450009183808384EF9FEFEACF89818093A104D9
:1034600090E00196F8019183808390E080E0DFCFC7
:10347000CF93DF93EA01FC01E60FF71F64817581AA
:10348000868197814381A8DF811109C082E090E0A5
:103490009983888384EF9FEFDF91CF91089581E036
:1034A00090E09983888390E080E0F6CFE2EAF4E050
:1034B0004081518162817381480F511D611D711DD1
:1034C00040835183628373830895CF93C091A10495
:1034D0004C2F50E06091A2047091A30401960E94C9
:1034E000243C8C2FE3DF1092A104CF910895009724
:1034F00099F48091A2049091A3042FEFFB01208303
:10350000892B59F02091A10430E02F5F3F4F241701
:10351000350719F4CB01D9CF63CC0895009799F4FE
:103520008091A2049091A3042FEFFB012083892BAB
:1035300059F02091A10430E02F5F3F4F2417350749
:1035400019F4CB01C2CF4CCC089523E1AC01249FE8
:10355000C001259F900D1124E091AB04F091AC04C3
:10356000E80FF91F238134812250310981E0223094
:10357000310508F080E008950F931F93CF93DF93F8
:103580000091AD041091AE04D0E0C0E080E00C17D3
:103590001D0749F491E0811190E0892FDF91CF91CF
:1035A0001F910F9108958111F5CFCE01CEDF2196A5
:1035B000EECFA091AB04B091AC04109729F120910B
:1035C000AD043091AE0482179307F0F453E1589F95
:1035D0009001599F300D1124A20FB31FED91FC9162
:1035E0001197309789F012968C91681768F48DE0E6
:1035F000689FE00DF11D112480819181892B21F0BC
:1036000081E09281491708F080E008959C0143E130
:10361000429FC001439F900D1124E091AB04F091B3
:10362000AC04E80FF91F8385823091F481E090E0CB
:10363000658176814091E9025091EA02641775072D
:1036400011F490E080E0892B19F081E0232B09F040
:1036500080E00895FC01A081B1818DE0689FA00DFC
:10366000B11D112413964D915C9185859685489FD7
:103670009001499F300D589F300D1124C9010196CA
:10368000611103C0478144FD04960895EF92FF92B3
:103690000F931F93CF93DF93EA01FC01E60FF71F0F
:1036A00002811381E480F5804F2D6E2DC80181DFEA
:1036B00081110DC082E090E0998388838EEF9FEFA7
:1036C000DF91CF911F910F91FF90EF900895C80166
:1036D0003CDF882339F082E090E09983888388EF8B
:1036E0009FEFEECF1093F0020093EF02E092F10211
:1036F000F092F20281E090E09983888390E080E08C
:10370000DFCFCF92DF92EF92FF920F931F93CF9371
:10371000DF937A01EC01C60FD71FC090EF02D09063
:10372000F0020091F1021091F202412F602FC601C8
:1037300040DF811110C082E090E0F7019183808327
:103740008AEF9FEFDF91CF911F910F91FF90EF9044
:10375000DF90CF900895C601F8DE882341F082E023
:1037600090E0F7019183808388EF9FEFEBCF4C814E
:103770005D816E817F819A8189818F3F41F082E0F6
:1037800090E0F701918380838EEF9FEFDBCFE3E141
:10379000EC9D9001ED9D300D1124E091AB04F09172
:1037A000AC04E20FF31F0190F081E02D2DE0029FA9
:1037B000E00DF11D11240190F081E02D27E0129F12
:1037C000E00DF11D1124808391838B8182834383DB
:1037D0005483658376831F5F1093F20281E090E04B
:1037E000F7019183808390E080E0ACCFEF92FF926D
:1037F0000F931F93CF93DF937A018C01060F171F4E
:10380000C091AB04D091AC04209781F021E030E06E
:10381000F801828193814091AD045091AE048417E8
:10382000950710F030E020E0232B71F482E090E067
:10383000F701918380838EEF9FEFDF91CF911F91EE
:103840000F91FF90EF90089543E1489F9001499FA9
:10385000300D1124C20FD31F78DE882341F082E09F
:1038600090E0F7019183808388EF9FEFE6CFF80126
:103870002481358120383105C8F687818111D6CF62
:103880004181842F90E08F7E009741F082E090E0AC
:10389000F7019183808386EF9FEFCFCF4F833E83E5
:1038A0002D83268128871986223010F421E028876D
:1038B00021E030E0F70131832083BFCF88E090E042
:1038C000FA019183808390E080E00895FB018FEFFF
:1038D000808381E181838FEF9FEF9383828380E8F0
:1038E00090E095838483168217820895FB018FEF01
:1038F000808391E0918382839383848384E38583AF
:1039000081E090E0978386830895DF92EF92FF92A3
:103910000F931F93CF93DF93EA01FC01E60FF71F8C
:103920008181813071F082E090E0998388838FEF0C
:103930009FEFDF91CF911F910F91FF90EF90DF905C
:10394000089582819381D4802581E680F78000915B
:10395000AB041091AC040115110539F482E090E03C
:10396000998388838CEF9FEFE4CF4091AD04509111
:10397000AE048417950738F082E090E0998388833D
:103980008EEF9FEFD6CF892B39F082E090E09983BC
:10399000888386EF9FEFCDCF8D2D8D7FB1F72130BE
:1039A000A1F781E0D11006C091E0E916F10431F0F1
:1039B00080E004C0E2E0EE16F104D0F3882329F39E
:1039C00090E080E0C2DD882339F082E090E09983C6
:1039D000888388EF9FEFADCFF801D38681E084879D
:1039E000F686E586108A178681E090E099838883C1
:1039F00090E080E09ECF4CE050E06AE573E057CA6B
:103A00008F929F92BF92CF92DF92EF92FF920F938D
:103A10001F93CF93DF93EA01FC01E60FF71F82812A
:103A200093810481B580E091AB04F091AC043097B0
:103A300091F482E090E0998388838CEF9FEFDF918F
:103A4000CF911F910F91FF90EF90DF90CF90BF909B
:103A50009F908F9008952091AD043091AE0482170D
:103A6000930738F082E090E0998388838EEF9FEF90
:103A7000E6CF23E1289F6001299FD00C1124EC0D93
:103A8000FD1DE080F180E114F10499F282810817B4
:103A900048F78DE0089F80011124E00EF11EF70128
:103AA00080819181892B29F6BB20E1F2F7E0BF9E4E
:103AB00040011124C4010E943A29F70191838083B7
:103AC000E091AB04F091AC04EC0DFD1D0190F08190
:103AD000E02DE00FF11F80819181009739F482E0A1
:103AE00090E0998388838DEF9FEFA9CFA40170E0C8
:103AF00060E00E942D3C8091AB049091AC04C80E14
:103B0000D91EF60180819181080F191FF801B28238
:103B100081E090E09983888390E080E090CFAF923D
:103B2000BF92CF92DF92FF920F931F93CF93DF93B9
:103B3000EA01FC01E60FF71F82819381F480009176
:103B4000AB041091AC040115110581F482E090E002
:103B5000998388838CEF9FEFDF91CF911F910F9115
:103B6000FF90DF90CF90BF90AF9008952091AD046B
:103B70003091AE048217930738F082E090E0998389
:103B800088838EEF9FEFE8CF2FEF2F0D2C3FA8F704
:103B900023E1289F6001299FD00C11240C0D1D1DCD
:103BA000F80180819181892B89F6FDE0FF9E50010B
:103BB0001124C5010E943A29F80191838083E09184
:103BC000AB04F091AC04EC0DFD1D80819181009758
:103BD00039F482E090E0998388838DEF9FEFBCCF2A
:103BE000A50170E060E00E942D3CE091AB04F091F3
:103BF000AC04EC0DFD1DF28281E090E09983888396
:103C000090E080E0A9CFCF92DF92EF92FF920F93E6
:103C10001F93CF93DF93860F971FFC0102811381BF
:103C20008091AB049091AC04892B81F082E090E00C
:103C3000FA01918380838CEF9FEFDF91CF911F91E9
:103C40000F91FF90EF90DF90CF900895C801B0E002
:103C5000A0E00197A109B1098F3F9F4FA105B105D0
:103C600040F082E090E0FA01918380838EEF9FEF35
:103C7000E4CF7A0183E1809F6001819FD00C112401
:103C8000C6010E943A29EC01009741F482E090E0DD
:103C9000F701918380838DEF9FEFCFCFA60170E076
:103CA00060E00E942D3CD093AC04C093AB04109311
:103CB000AE040093AD0490E080E02FEF3FEF41E0D1
:103CC00061E070E08017910741F481E090E0F70136
:103CD0009183808390E080E0B0CF3A8B298B1B8664
:103CE0004C877E876D87188A1F8601966396EACF78
:103CF000EF92FF921F93CF93DF93EC0110E0F12C32
:103D0000E12C6A811617B0F083E0689FB00111249E
:103D1000AE014F5E5F4FC7010E949F29009721F0BF
:103D20002FEF3FEF3A8B298BDF91CF911F91FF90BF
:103D3000EF900895612FCE018DDC61E070E00E946C
:103D4000E727E816F90608F47C011F5FDACFF8943C
:103D50002091A9043091AA0481E02115310509F0D0
:103D600080E0232B09F0789408952F923F924F9290
:103D70005F926F927F928F929F92AF92BF92CF92FB
:103D8000DF92EF92FF920F931F93CF93DF933C014B
:103D9000660E771EF301828193814C01B12CA12C18
:103DA000C091AB04D091AC04209769F021E030E0E1
:103DB0006091AD047091AE048617970710F030E063
:103DC00020E0232BD1F482E090E0FA0191838083FC
:103DD0008EEF9FEFDF91CF911F910F91FF90EF90AA
:103DE000DF90CF90BF90AF909F908F907F906F901B
:103DF0005F904F903F902F9008958092F3029092A1
:103E0000F402A092F502B092F60263E1689F90017D
:103E1000699F300D1124C20FD31FF30181818330BC
:103E200040F082E090E0FA019183808386EF9FEF7B
:103E3000D1CF2A012B813C81232BF1F428813981B8
:103E40009F8191FF2EC0232B09F46FC02091B004F5
:103E50009A81422F490F5527551FBA0141E050E082
:103E60006138710514F050E040E0452B09F45DC065
:103E70002A87920F9093B0048150823008F481C059
:103E800066DF882309F4D8C0F3018181813009F409
:103E90008DC008F47BC0823009F4C6C090E080E099
:103EA000ADC0232B09F441C02091AF049A81E22FC9
:103EB000E90FFF27FF1F41E050E0ED3FF10514F04F
:103EC00050E040E0452B89F12A87920F9093AF0490
:103ED000D3CFA081B181A20FB31F11966C91060FB1
:103EE000111D0196295F3F4F8417950794F38D8527
:103EF0009E85089F1001099F300C189F300C1124DB
:103F0000C114D104D1F48F8184FF17C00E943528D9
:103F1000F5E02F0E311C21E08215930508F420E016
:103F2000A701435F5F4F21110EC082E090E0F201D4
:103F30009183808387EF9FEF4DCF0E9435282FEF2D
:103F4000221A320AE8CF88819981E80EF91EF7011A
:103F500014830383FFEFCF1ADF0A7A018A818C155D
:103F60001D0409F00CF48CCFE881F981EE0DFF1DE2
:103F7000428150E030E020E010E000E090E080E09E
:103F8000B3CFF12CE12CD12CC12CE8CF81E090E013
:103F90009C838B83F1DA882309F480CF81E090E061
:103FA0000E94391780E40E94471778CF89899A893F
:103FB000019661F083E090E09C838B8382E090E047
:103FC0000E94391780E40E94411768CF8D819E813D
:103FD0002091E9023091EA0282179307D1F46091AF
:103FE000ED027091EE02AE014F5E5F4F8091EB02E9
:103FF0009091EC020E94BE2A0097E1F2789422E0B0
:1040000030E0F20131832083892B99F08DEF9FEF0F
:10401000E1CE89288A288B2869F6892B59F6CE01AA
:1040200067DE188A1F86E8CF82E090E09C838B834E
:1040300035CF90E080E0CECE82E090E0F201918337
:10404000808385EF9FEFC6CE8F929F92AF92BF92F3
:10405000CF92DF92EF92FF920F931F93CF93DF9354
:10406000EA018C01060F171FF8018181833098F057
:1040700082E090E09983888386EF9FEFDF91CF9174
:104080001F910F91FF90EF90DF90CF90BF90AF9076
:104090009F908F9008958091AB049091AC04892BF0
:1040A00061F081E090E02091AD043091AE04232BCB
:1040B00011F490E080E0892B39F482E090E099835C
:1040C00088838EEF9FEFDACF42DE882309F4DFC0CA
:1040D000F8018181813009F495C0E8F0823099F4CB
:1040E0002091AD043091AE04E091AB04F091AC04AA
:1040F00090E080E041E050E02817390709F0BDC0AA
:104100003BDA811117C0789481E090E0998388832D
:1041100090E080E0B3CF2091AD043091AE04E09107
:10412000AB04F091AC0490E080E041E050E028174F
:10413000390741F481E090E00E94391780E40E9441
:104140004717E1CF63817481672B11F05483438358
:1041500001967396ECCFE091AB04F091AC04E00FC4
:10416000F11F2381348122303105D9F4218932892C
:104170002F3F3F4FB1F4258136814091E9025091A4
:10418000EA022417350761F5AF014F5E5F4F60917A
:10419000ED027091EE028091EB029091EC020E9490
:1041A000BE2AEFEFCE1ADE0AEE0AFE0A0D5E1F4FA0
:1041B0004091AD045091AE0470E060E0C416D506A5
:1041C000E606F7063CF5009731F27894892B09F45E
:1041D0009BCF82E090E0998388838DEF9FEF4ECF55
:1041E000C114D104E104F104E1F6232BD1F6CF018F
:1041F0007FDDE091AB04F091AC04E00FF11F108A79
:104200001786CFCF10E000E090E080E0C12CD12CE9
:104210007601CECF0097C9F610E000E0812C912CFA
:10422000540183E0E82EF12C1AC0E091AB04F09128
:10423000AC04E00FF11F83819481029749F4F4826A
:10424000E38282E090E00E94391780E40E944117E7
:10425000FFEF8F1A9F0AAF0ABF0A0D5E1F4F8091B2
:10426000AD049091AE04B0E0A0E088169906AA06CD
:10427000BB06DCF290E080E0A8CF638174816230FD
:10428000710511F4548343830196739635CF82E010
:1042900090E09983888385EF9FEFF0CE0097B9F483
:1042A0008FEFFB0180832091F3023091F40243E110
:1042B000429FC001439F900D1124E091AB04F09107
:1042C000AC04E80FF91F8285FB01818308950C94EB
:1042D000F01688E090E0FA019183808390E080E01E
:1042E00008951092AA041092A904EBEAF4E086E083
:1042F000DF011D928A95E9F78BEF9CE19093A8046A
:104300008093A70408958091A7049091A80408952C
:104310002F923F924F925F926F927F928F929F92D5
:10432000AF92BF92CF92DF92EF92FF920F931F93C3
:10433000CF93DF93CDB7DEB72F970FB6F894DEBFDC
:104340000FBECDBFF894E091A904F091AA04319674
:10435000F093AA04E093A90478944090AB045090A1
:10436000AC044114510409F40CC2E091AD04F09185
:10437000AE04EF2B09F405C22D8749875A876B8756
:104380007C8798878F831201B12CA12C10E000E06C
:104390008091AD049091AE04A816B90618F40115E9
:1043A000110529F1F8948091A9049091AA0401972C
:1043B0009093AA048093A9047894C8012F960FB60D
:1043C000F894DEBF0FBECDBFDF91CF911F910F914B
:1043D000FF90EF90DF90CF90BF90AF909F908F9025
:1043E0007F906F905F904F903F902F900895710154
:1043F000E418F508D10117968C91179781FD54C0E8
:1044000013968D919C911497039709F04DC01596C2
:104410008D919C91EF81F8858E179F0709F044C01C
:10442000B50190E080E07FD48A832091AB04309185
:10443000AC043D832C833D85332309F44CC04C816F
:104440005D81452B09F49AC18091AD049091AE0431
:10445000A816B90608F092C1C501D8D88823E9F09A
:104460006C817D816E0D7F1D7D836C83DB011F96CA
:104470008D919C91892B89F0D12CC12CF12CE12CB0
:10448000AC81BD8112968C9112978E151F0409F094
:1044900094F450961C921E921F972A81222321F099
:1044A000B50190E080E041D43FEFA31AB30A43E1A5
:1044B000240E311C6DCFAC81BD81ED91FC91EC0DD2
:1044C000FD1D858196810FD7BFEFEB1AFB0AEDE04A
:1044D000CE0ED11CD5CFEC81FD81309709F44EC1B1
:1044E0008091AD049091AE04A816B90608F046C1BB
:1044F000EE0DFF1DFF87EE87C50188D88B838823CB
:1045000039F1AE85BF851F968D919C91509701968C
:1045100021E01D964D915C918417950709F020E0EC
:104520002E831982712C10E000E0AE85BF851296B3
:104530008C91781608F45DC0EE85FF85878590899B
:104540000196658576850E94CD3B908B8787A5CFA8
:10455000B1E0BE83E6CF992493946BC08BD6F6016D
:104560009683858382C0D601ED90FC90B7E06B9E68
:10457000E00CF11C1124F7016381748180818F3F6D
:1045800061F121E030E002C0220F331F8A95E2F78B
:10459000C901092E000CAA0BBB0BFB014081518104
:1045A0006281738184239523A623B72321E0892B7D
:1045B0008A2B8B2B09F420E0D4012C93D701119680
:1045C0008C91F60123853485820F932F911D880EDF
:1045D000991E1486138663949BC0418150E0C401E8
:1045E0000E94243CEBCF998206EF1FEFC5C01982D1
:1045F000C3C0F981F111A0CFEDE07E9E70011124BE
:10460000AE85BF85CD90DC90CE0CDF1C15D49D838C
:104610008C83BB81BB2309F49ECF81E0EE85FF85AF
:1046200027853089232B09F080E0982E882309F410
:1046300058C0672D8E859F850DD8D60118969C93FE
:104640008E93179761E070E0C2D4EE85FF852189D3
:1046500032892F3F320709F481CFBC01C901CFD77E
:10466000D60116969C938E931597D60115968D912B
:104670009C911697009709F4B6CFEC81FD818E0FBF
:104680009F1F1A969C938E931997AE85BF85ED91C7
:10469000FC911197EE0EFF1EF701218532851486DD
:1046A00013861A968C91870DD9018D93711016C0BF
:1046B000EE85FF85878184FF11C049855A856B850A
:1046C0007C85F9014183528363837483F701838579
:1046D00094850496A80FB91F14861386F701B28734
:1046E000A187D60115968D919C911697892B09F477
:1046F00043C0EE85FF85258136818091E902909146
:10470000EA022817390779F019968D909C90612C50
:10471000D60112968C911297681608F424CF1A9637
:104720009C928E921997BE81BB2309F460CF61E001
:1047300070E0F601878190854AD4D6011796ED90F6
:10474000FC90189715964D915C91E1E0F0E0BA81EC
:10475000BB2311F0F0E0E0E00C811D819C01B5016C
:10476000882799278E1B9F0B6AD38C01892B21F0F8
:10477000F60185819681B7D57394D7CE0FEF1FEFE1
:104780008CCE10E000E00ECE2F923F924F925F92BF
:104790006F927F928F929F92AF92BF92CF92DF9251
:1047A000EF92FF920F931F93CF93DF938091AB040F
:1047B0009091AC0410E000E0892BA9F0C8DA0AEF70
:1047C0001FEF882381F02090AD043090AE04C0919B
:1047D000AB04D091AC04D12CC12C10E000E02C141F
:1047E0003D04A9F47894C801DF91CF911F910F91F6
:1047F000FF90EF90DF90CF90BF90AF909F908F9001
:104800007F906F905F904F903F902F900895C601DA
:104810000E94061B882309F18B819C810397E9F490
:104820008F859889892BC9F0B60190E080E07BD212
:1048300021E030E0882311F030E020E044245524CA
:10484000421A530AB12CA12C912C812C8A818815F3
:10485000190409F038F4188A1F864FEFC41AD40AD5
:104860006396BDCFE881F981EA0DFB1D85819681B4
:10487000892BA1F161E070E087819085A8D33C018C
:10488000DBD28C01E881F981EA0DFB1D81859285DF
:1048900025813681200F311FAC01421B530B9A0139
:1048A00047815085421B530B70E060E00E942D3C15
:1048B000E881F981EA0DFB1DE780F084458156818E
:1048C0009301B601C201BBD28C01892B39F0E8817A
:1048D000F981EA0DFB1D8581968105D55FEF851A6B
:1048E000950A8DE0A80EB11CB1CF31CA7894089515
:1048F0002F923F924F925F926F927F929F92AF92D0
:10490000BF92CF92DF92EF92FF920F931F93CF93BC
:10491000DF9300D000D0CDB7DEB70091AB0410918B
:10492000AC04992493940115110509F43EC0A0909C
:10493000AD04B090AE040BDA982E8823B1F110923A
:10494000AC041092AB041092AE041092AD0410921D
:10495000AF041092B0048FEF9FEFDC018093F3025D
:104960009093F402A093F502B093F60278947FD36B
:104970001E830D83C12CD12C7601C501B0E0A0E0CF
:1049800089839A83AB83BC8322242A94322C898125
:104990009A81AB81BC81C816D906EA06FB06F4F001
:1049A000C801A1D480E40E944717892D26960FB62E
:1049B000F894DEBF0FBECDBFDF91CF911F910F9155
:1049C000FF90EF90DF90CF90BF90AF909F907F903F
:1049D0006F905F904F903F902F900895AD81BE8172
:1049E00015968D919C9116972091E9023091EA02DB
:1049F00082179307D1F451968D919C91EED5ED815C
:104A0000FE8180819181B12CA12C412C512C32014D
:104A1000892B89F5BFEFCB1ADB0AEB0AFB0AED8184
:104A2000FE817396FE83ED83B2CFC114D104E104FD
:104A3000F10429F7892B19F7ED81FE81818992898B
:104A40008F3F980709F029D5AD81BE8152963C92DF
:104A50002E925197D4CF8A0D9B1DDC018D919C9194
:104A6000009709F040D4BFEF4B1A5B0A6B0A7B0A30
:104A7000EDE0AE0EB11CAD81BE818D919C91119780
:104A800012964C9150E070E060E0441655066606C0
:104A900077060CF328D4BECFCF93DF93EA0128DF4B
:104AA000811109C082E090E09983888385EF9FEFB0
:104AB000DF91CF91089581E090E00E94391781E065
:104AC00090E09983888390E080E0F2CF11DF10922C
:104AD000A8041092A704089542E050E062EA73E04F
:104AE0000C945717FF920F931F93CF93DF938A0174
:104AF000EC01C60FD71FF980B9D20897F81619062E
:104B000071F068F082E090E0F801918380838EEF8D
:104B10009FEFDF91CF911F910F91FF9008956C81CE
:104B20007D818E819F814B810E94EC19811108C08B
:104B300082E090E0F8019183808384EF9FEFE9CFDA
:104B4000F9800E94E7194F2D50E0BE01685F7F4F4A
:104B50000E94243C89810E94561A81E090E0F8016D
:104B60009183808390E080E0D4CFDF92EF92FF9238
:104B70000F931F93CF93DF938A01EC01C60FD71FCA
:104B80000E94E7197C01D98071D2DD2059F002978B
:104B900021E030E0D816190619F010F030E020E0DE
:104BA000232B79F482E090E0F801918380838EEFEB
:104BB0009FEFDF91CF911F910F91FF90EF90DF90CA
:104BC0000895EF2841F482E090E0F801918380831A
:104BD00084EF9FEFEECFF9800E94E7194F2D50E050
:104BE000BE016E5F7F4F0E94243C89810E94561A4D
:104BF00081E090E0F8019183808390E080E0D9CF5C
:104C00008CE695E29093B2048093B104089580916C
:104C1000B1049091B20408950895FC0111821082AC
:104C2000938382830895DB011D921C92DC0112960E
:104C3000ED91FC9113977183608313967C936E932F
:104C400012970895FC0180819181DB018D939C93E3
:104C5000A081B181109741F08D919C9191838083C7
:104C6000892B11F4F383E2830895FC018081918103
:104C7000DB018D939C93892B11F473836283718381
:104C800060830895FC0111821082938382830895CA
:104C9000CF93DF931F921F92CDB7DEB71A8219828E
:104CA000F894BE016F5F7F4F88EB94E0CBDF898182
:104CB0009A81009709F017D389819A81892B89F706
:104CC000BE016F5F7F4F8CEB94E0BCDF89819A81DE
:104CD000009709F008D389819A81892B89F7789404
:104CE0000F900F90DF91CF910895CF93DF931F9294
:104CF0001F92CDB7DEB71A821982F894BE016F5F9A
:104D00007F4F84EB94E09EDF89819A81009709F0C0
:104D1000EAD289819A81892B89F778940F900F9034
:104D2000DF91CF91089581E0089590E080E00895AB
:104D3000EF92FF920F931F93CF93DF931F921F92D7
:104D4000CDB7DEB71A8219828091B30407EF1FEF47
:104D50008823A1F1F894BE016F5F7F4F8CEB94E044
:104D600071DF789489819A81EE24E394F12C892B68
:104D700051F4F894BE016F5F7F4F88EB94E062DFDF
:104D80007894F12CE12C89819A810EEF1FEF009726
:104D9000A9F0FC014281538164E070E076D68C0179
:104DA000892B61F0F89469817A81C701880F991F76
:104DB000880F991F88549B4F58DF7894C8010F9033
:104DC0000F90DF91CF911F910F91FF90EF90089579
:104DD0000F931F93CF93DF9300D01F92CDB7DEB711
:104DE0001C821B821A8219828091B30407EF1FEF85
:104DF0008823C1F0AE014D5F5F4F64E070E0CE01EB
:104E00000196B6D68C01892B69F4E981FA818B81F0
:104E10009C8193838283F89469817A8184EB94E006
:104E200002DF7894C8010F900F900F900F90DF91E0
:104E3000CF911F910F910895BBD7049608958F923B
:104E40009F92AF92BF92CF92DF92EF92FF920F9319
:104E50001F93CF93DF931F921F92CDB7DEB71A82B5
:104E60001982BC016F5F7F4F6330710598F0AA24EF
:104E7000AA94BA2CC5010F900F90DF91CF911F918A
:104E80000F91FF90EF90DF90CF90BF90AF909F90E9
:104E90008F9008954115510551F3480159018A0138
:104EA0006C01CADF8815990511F7E114F104F9F2D4
:104EB0008E0D9F1DA816B906D0F28091B3048823E9
:104EC000F1F0F894B501645071099701AE014F5F9C
:104ED0005F4FC8010496E1D65C01892B71F489818A
:104EE0009A81F80193838283C601880F991F880FE6
:104EF000991FB80188549B4F96DE7894BBCF87EFFB
:104F0000A82EBB24BA94B6CFAF92BF92CF92DF92B5
:104F1000EF92FF920F931F93CF93DF931F921F92F5
:104F2000CDB7DEB71A821982892B09F047C0611507
:104F3000710509F443C04115510509F43FC021151D
:104F4000310509F43BC001151105C1F18091B3048D
:104F50008823B9F179016A015B01F894BE016F5FA2
:104F60007F4F84EB94E06EDE789489819A8100977C
:104F700059F1DC0112966D917C91A8010496A6D698
:104F80008C01E981FA81D501ED93FC9382819381B3
:104F90000496F601918380834FDFD7018D939C9314
:104FA000C8010F900F90DF91CF911F910F91FF904B
:104FB000EF90DF90CF90BF90AF9008950FEF1FEF6D
:104FC000EFCF07EF1FEFECCF0EEF1FEFE9CFCF933F
:104FD000DF93EC01672B71F4F4D68C179D0760F01A
:104FE000E7D62496C80FD91FE6D68C0F9D1FDF91F8
:104FF000CF910895E3D6F1CF90E080E0F8CF0F9302
:105000001F93CF93DF932091B30421112BC08B0109
:10501000EC0188EB94E001DE8CEB94E0FEDD84EBA8
:1050200094E0FBDD97D00097C1F4CBD670E060E050
:10503000CEDF47EF52E062E070E081D1009769F483
:105040008091F7029091F802CED6B801CE0103D537
:10505000009719F421E02093B304DF91CF911F91C1
:105060000F91089584EF9FEFF8CFA8C6AAC6CF93FB
:10507000DF93AAD6EC01892B11F40ADE36DECE01CD
:10508000DF91CF910895CF93DF939ED6EC01892BCA
:1050900009F4FEDDCE01DF91CF9108958091F702F2
:1050A0009091F8020895CF93DF938091B304D0E0FC
:1050B000C0E08823D1F09CD6EC01892BB1F4E8DD67
:1050C00014DE8091F7029091F802E7D1E8D2EC016A
:1050D000892B59F488EB94E0D5DD8CEB94E0D2DD9C
:1050E00084EB94E0CFDD1092B304CE01DF91CF9139
:1050F0000895EF92FF920F931F93CF93DF93EC01EC
:105100007A018B010F5F1F4F0E9DA0010F9D500D67
:105110001E9D500D112470E060E00E942D3C90E037
:1051200080E0F0E0E0E02FEFE816F90639F4DF91D7
:10513000CF911F910F91FF90EF9008951A821982DD
:105140002883309711F0D283C1830196FE01C00FEE
:10515000D11FEACFCF92DF92EF92FF920F931F936E
:10516000CF93DF930DE016E00C7F43E050E069EF52
:1051700072E08FEF92E01CD489EFE82E82E0F82EE7
:105180009FEFC92E92E0D92ECCE8D6E0D7014D9101
:105190005D917D01F601619171916F011983088321
:1051A0005D834C835B834A837F836E839B012F5F88
:1051B0003F4F249FC001259F900D349F900D1124D7
:1051C000998788870115110511F0C80192DF88853C
:1051D0009985080F191F2A96FFEFEF16F2E0FF06D8
:1051E000A9F6E2ECF4E088E491E0DF019C011D9275
:1051F00021503040E1F71092C1041092C004109287
:10520000AB061092AA061092AF061092AE0610924C
:10521000AD061092AC061092B1061092B006109234
:10522000B3061092B2061092B5061092B406109210
:10523000B9061092B8061092B7061092B6061092F0
:10524000BB061092BA061092BD061092BC061092D0
:1052500089061092880610928B0610928A0690E0BA
:1052600080E0DF91CF911F910F91FF90EF90DF9041
:10527000CF9008950097F1F0F894AFEFB2E0ECE82A
:10528000F6E030E020E04D915D9148175907A8F015
:10529000428153814115510581F08AE0829FF001DE
:1052A000839FF00D1124E457F94F8081918100977D
:1052B00059F4789490E080E008952F5F3F4F3A963C
:1052C0002330310501F7F5CFDC0111966D917C910A
:1052D000718360834150510953834283FC012193C0
:1052E000CF0178940895009749F1DC018E918530C3
:1052F00041F4E0918A06F0918B063097F9F0CD01E8
:1053000019948530D8F4282F30E0F8948FEF8C93DF
:105310008AE0829FF001839FF00D1124E457F94F3A
:105320008081918112969C938E931197B183A08373
:105330008281938101969383828378940895CF929A
:10534000DF92EF92FF920F931F93CF93DF939C0115
:1053500085EC94E08C7F4115510509F49BC0211523
:10536000310509F497C06115710509F493C07A01FC
:10537000AB01B9016D5F7F4F6C7F9B012F5F3F4F8A
:10538000249F8001259F100D349F100D1124F89447
:105390002091AA063091AB06232B59F42091B20636
:1053A0003091B3062115310569F12017310708F056
:1053B00058C02091B4063091B506232B91F420916A
:1053C000B2063091B306820F931F2091BC06309134
:1053D000BD062115310509F441C02017310708F039
:1053E00056C07894CFEFDFEF86EF9FEFF701D183C0
:1053F000C083DF91CF911F910F91FF90EF90DF90CD
:10540000CF900895C3E0D0E0C090C004D090C10414
:1054100025E431E02C193D092017310710F32AE06B
:105420002C9FF0012D9FF00D1124E457F94F91832B
:1054300080835583448353834283778366831187B4
:105440000087009709F055DE0C0D1D1D1093C10457
:105450000093C004789490E080E0C8CFC4E0D0E02E
:10546000D3CFC3E0D0E02AE02C9FF0012D9FF00DB8
:105470001124E457F94F91838083558344835383E8
:10548000428377836683009729F333DEE3CFC4E05A
:10549000D0E0E9CF8FEF9FEFACCF9C01039702974D
:1054A00008F069C0F89484E09AE0482F50E024178F
:1054B00035070CF44DC091E08AE0829FF001839F94
:1054C000F00D1124E457F94F1182108215821482D5
:1054D00013821282178216829923B1F18091AA0653
:1054E0009091AB06892BA9F42091B2063091B306B6
:1054F0002115310571F08091C0049091C104821B87
:10550000930B9093C1048093C0041092B306109241
:10551000B2068091B4069091B506892BA9F420912A
:10552000BC063091BD062115310571F08091C00493
:105530009091C104821B930B9093C1048093C0048B
:105540001092BD061092BC06789490E080E0089519
:10555000949FF001959FF00D1124E457F94F40817D
:105560005181452B31F440855185452B11F48150F3
:105570009CCF90E0A1CF8FEF9FEF0895411551058B
:1055800049F1009739F16115710521F1F8942091E5
:10559000880630918906232BB9F420918A06309130
:1055A0008B06232B89F49093890680938806709349
:1055B0008B0660938A06789425E030E090E080E0E6
:1055C000FA0131832083089578942FEF3FEF86EF1F
:1055D0009FEFF6CF8FEF9FEF0895059769F4F8944A
:1055E000109289061092880610928B0610928A06F5
:1055F000789490E080E008958FEF9FEF0895611513
:10560000710519F4F0E0E0E011C08530910581F4F6
:10561000E0918806F09189063097A1F3CB010196BD
:105620001995009779F3FC0185E08193CF010895E6
:105630009C01235031092230310520F72AE0289FB0
:10564000D001299FB00D1124A457B94F2D913C9141
:105650001197232BB9F216962D913C911797261787
:10566000370780F2F89412962D913C9113972115EB
:10567000310529F0ED91FC911197309711F4789450
:10568000C1CF4181528111965C934E9321503109D3
:1056900013963C932E93129781937894C7CFEAE0A8
:1056A000F6E08EE7DF011D928A95E9F7E2ECF4E07F
:1056B00088E491E0DF019C011D9221503040E1F728
:1056C0001092C1041092C004ECE8F6E082E3DF011E
:1056D0001D928A95E9F7E8E8F6E084E0DF011D9283
:1056E0008A95E9F790E080E00895CF93DF93C09129
:1056F0000503D0910603CF3FDC0759F423D49093E0
:1057000006038093050397FF09C0D0930603C09357
:10571000050384EF9FEFDF91CF91089590E080E043
:10572000FACF8230910528F48093BE0690E080E0A5
:1057300008958FEF9FEF08954F925F926F927F923F
:10574000AF92BF92CF92DF92EF92FF920F931F938F
:10575000CF93DF931F921F92CDB7DEB71A821982C3
:10576000009709F479C06115710509F475C020919D
:1057700005033091060307EF1FEF2F3F3F4F09F45A
:1057800045C06B015C01412C512C3201F12CE12C04
:1057900010E000E09E012F5F3F4FA6014E195F0908
:1057A000B5016E0D7F1D80910503909106032ED4E7
:1057B000892B09F04BC089819A81009741F4E1144B
:1057C000F10429F42091BE06222309F442C0E80E18
:1057D000F91EEC14FD04D0F480E8481684E858065D
:1057E0008EE16806710420F560E070E0CB010E9454
:1057F000E2352AE0420E511C611C711C0A3F4FEF3A
:10580000140721F0043F8FEF1807A1F4C8010F908F
:105810000F90DF91CF911F910F91FF90EF90DF904C
:10582000CF90BF90AF907F906F905F904F90089512
:1058300001EF1FEF81E090E0013F2FEF120711F021
:1058400090E080E0892B09F4A5CFE0CF04EF1FEFB3
:10585000DDCF0AEF1FEFDACF0FEF1FEFD7CF4F9259
:105860005F926F927F92AF92BF92CF92DF92EF9250
:10587000FF920F931F93CF93DF931F921F92CDB789
:10588000DEB71A821982009709F479C06115710593
:1058900009F475C0209105033091060307EF1FEF4F
:1058A0002F3F3F4F09F445C06B015C01412C512C47
:1058B0003201F12CE12C10E000E09E012F5F3F4F00
:1058C000A6014E195F09B5016E0D7F1D809105037C
:1058D000909106034ED3892B09F04BC089819A81A0
:1058E000009741F4E114F10429F42091BE0622232B
:1058F00009F442C0E80EF91EEC14FD04D0F480E473
:10590000481682E458068FE06806710420F560E0CE
:1059100070E0CB010E94E2352AE0420E511C611C6E
:10592000711C0E3F4FEF140721F0043F8FEF180753
:10593000A1F4C8010F900F90DF91CF911F910F91AB
:10594000FF90EF90DF90CF90BF90AF907F906F90DF
:105950005F904F90089502EF1FEF81E090E0023FCB
:105960002FEF120711F090E080E0892B09F4A5CF0A
:10597000E0CF04EF1FEFDDCF0EEF1FEFDACF0FEF19
:105980001FEFD7CF80910503909106038F3F9807B3
:1059900049F0D0D2892B49F48FEF9FEF9093060303
:1059A0008093050390E080E0089584EF9FEF0895D1
:1059B000CF92DF92EF92FF920F931F93CF93DF93DB
:1059C00021E04115510509F020E041505109211114
:1059D0002CC0DC01FB01D12CC12C21E022C03FEF07
:1059E000C31AD30A7D010D911D91E701EA80FB8066
:1059F000E016F106A8F420813181E280F380F18283
:105A0000E08233832283ED90FC9011979D01225018
:105A10003109E901F982E88211961C930E9320E086
:105A20003296C416D506D8F2D2CFDF91CF911F910E
:105A30000F91FF90EF90DF90CF900895FC01680FD9
:105A4000791F90E080E0E617F70709F408952191A7
:105A5000820F911DF8CF2091BF06211113C045DEA2
:105A6000009791F41092C5061092C4061092C306D6
:105A70001092C2061092C1061092C00621E0209337
:105A8000BF06089584EF9FEF0895AF92BF92CF9223
:105A9000DF92EF92FF920F931F93CF93DF930097C4
:105AA00009F460C04630510508F45CC02091BF067F
:105AB000C7EFDFEF222309F449C08C01060F171F3F
:105AC000F801C080D180C114D10409F44EC0960100
:105AD0002A5F3F4F4217530708F447C07C0180916B
