:1000000005C100000C9417320C9442320C946D32EE
:100010000C9498320C94C3320C94EE320C94193335
:100020000C94443324C1000022C1000020C1000010
:100030001EC100001CC100001AC1000018C1000050
:1000400016C1000014C1000012C1000010C1000060
:100050000EC100000CC100000AC100000C946F33F7
:1000600006C100000C946B370C94A13700C100004E
:10007000FEC00000FCC00000FAC00000F8C0000094
:10008000F6C00000F4C00000F2C00000F0C00000A4
:100090000C94F7370C942D38EAC00000E8C000003B
:1000A000E6C00000E4C00000E2C00000E0C00000C4
:1000B000DEC00000DCC00000DAC00000D8C00000D4
:1000C000D6C00000D4C000000C944B2D0C94833893
:1000D0000C94B938CCC000000C940F390C944539FD
:1000E000C6C0000000000A0B02090C0D0E08070331
:1000F00004010000000000000000000000000000FB
:1001000000000000000000000000000000000000EF
:1001100012111000000000000000000000000000AC
:100120000000000000000000000001021020200874
:100130000810204010204080020102010804020142
:1001400001020408102040808040201008040201B1
:10015000800402018040201008040201080402010A
:100160000102040810204080010204081020408091
:1001700005050505070508080808020202020A0A23
:100180000808040404040101010101010101030341
:10019000030303030303040707070C0C0C0C0C0CEC
:1001A0000C0C0202020206060606060606060B0BE9
:1001B0000B0B0B0B0B0B000020002300260029006B
:1001C0002C002F003200000100000301060109018C
:1001D00000002200250028002B002E0031003400F2
:1001E00002010000050108010B01000021002400AC
:1001F00027002A002D003000330001010000040117
:1002000007010A01CA375638E2386E3911241FBE79
:10021000CFEFD1E2DEBFCDBF00E00CBF13E0A0E026
:10022000B2E0E4E6F4E700E00BBF02C007900D92F5
:10023000AA37B107D9F72AE0AAE7B3E001C01D92B7
:10024000A738B207E1F711E0C6E0D1E000E006C050
:1002500021970109802FFE010E94FF39C230D1078A
:1002600080E00807A9F70E943D2E0C94303AC8CED2
:10027000611102C00C94B0356130E1F362E0FACF55
:10028000662319F061E00C94EC3560E0FCCFCF926E
:10029000DF92EF92FF92CF93882351F16A017B01A5
:1002A000CFEFC80F20E030E0A901CB01B6010E94DA
:1002B000452F18168CF0C701B60190580E94B62F32
:1002C0009B01AC016C2F70E090E080E0CF91FF903B
:1002D000EF90DF90CF90B2C0C701B6010E94B12F5E
:1002E0008C2FCF91FF90EF90DF90CF900C947634CD
:1002F000CF91FF90EF90DF90CF9008950F931F93D1
:100300008B019C0183E036952795179507958A9573
:10031000D1F706581C4F462F477021E030E0F90115
:1003200002C0EE0FFF1F4A95E2F7AF01F8012081EE
:100330002423CB010196211102C090E080E01F919F
:100340000F9108950F931F938B019C0183E03695C5
:100350002795179507958A95D1F7677081E090E00A
:1003600001C0880F6A95EAF7F801E658FC4F208132
:10037000452B31F48095822380831F910F9108953E
:10038000822BFACF2F923F924F925F926F927F9281
:100390008F929F92AF92BF92CF92DF92EF92FF9295
:1003A0000F931F93CF93DF93D62EC72E782E692EEF
:1003B00049015A01280161E08D2D0E94B035CD2DF3
:1003C000DC2D8E010F5F1F4FA8016D2D7C2D872D19
:1003D000962DB8DF20E030E0A901C201B7010E94EC
:1003E0003531181664F4C201B7010E94B62F2B01F3
:1003F000C501B4010E94B62FA201CE0123D0C801CD
:10040000DF91CF911F910F91FF90EF90DF90CF90F0
:10041000BF90AF909F908F907F906F905F904F9024
:100420003F902F900895882341F08150682F70E00D
:1004300090E080E050E040E085CF0895862FB9013C
:100440000C9476349C01FC01EC51FF4FE491E15097
:10045000E231E0F4F0E08827EF5CFD4F8F4F0C9421
:10046000FF3943024A024D026402790246028E02BB
:100470009A029E02B502CA02DF02F6020B0346028E
:10048000200337034C0384B5806884BD60E0822F6D
:100490000C94EC3584B58062F8CF809180008C7F1D
:1004A00082608093800080918100807E8061682BD3
:1004B0006093810050938700409386008091800074
:1004C000806880938000E2CF809180008C7F826082
:1004D0008093800080918100807E8061682B609392
:1004E0008100509387004093860080918000806255
:1004F000E8CF809180008C7F826080938000809123
:100500008100807E8061682B60938100509387001A
:1005100040938600809180008860D3CF8091B000A6
:1005200080688093B0008091B100887F682B6093D1
:10053000B100ACCF8091B0008062F3CF8091900089
:100540008C7F82608093900080919100807E80619A
:10055000682B609391005093970040939600809190
:10056000900080688093900091CF809190008C7F64
:1005700082608093900080919100807E8061682BE2
:100580006093910050939700409396008091900063
:100590008062E8CF809190008C7F82608093900091
:1005A00080919100807E8061682B609391005093D0
:1005B000970040939600809190008860D3CF8091FF
:1005C000A0008C7F82608093A0008091A100807E3B
:1005D0008061682B6093A1005093A7004093A60010
:1005E0008091A00080688093A00050CF8091A000EF
:1005F0008C7F82608093A0008091A100807E8061CA
:10060000682B6093A1005093A7004093A6008091AF
:10061000A0008062E8CF8091A0008C7F82608093F0
:10062000A0008091A100807E8061682B6093A10072
:100630005093A7004093A6008091A0008860D3CF7C
:10064000809120018C7F8260809320018091210124
:10065000807E8061682B6093210150932701409335
:100660002601809120018068809320010FCF809126
:1006700020018C7F82608093200180912101807E07
:100680008061682B609321015093270140932601DC
:10069000809120018062E8CF809120018C7F826070
:1006A0008093200180912101807E8061682B60937E
:1006B00021015093270140932601809120018860F9
:1006C000D3CFCF93DF93EC0170E060E06C177D0730
:1006D0000CF5072E000C880B990B0E94E42F20E0EC
:1006E00030E0A9010E94CE2E20E030E0A9010E9456
:1006F000CE2E20E030E040E450E40E94CE2E20E0F8
:1007000030E040E450E40E94CD2E0E94B12F6F5F94
:100710007F4FDCCFDF91CF910895CF93DF9380910E
:100720009303909194030E941936EC0180919903F0
:1007300090919A03C6DF80919503909196030E9451
:100740001936019771F4809197039091980321973E
:1007500071F401969093980380939703DF91CF9162
:1007600008958091970390919803CD2B91F3019771
:10077000F1CFCF93DF9380918B0390918C030E94F4
:100780001936EC0180919103909192039ADF809148
:100790008D0390918E030E941936019771F4809118
:1007A0008F0390919003219771F401969093900399
:1007B00080938F03DF91CF91089580918F03909163
:1007C0009003CD2B91F30197F1CFCF93DF938091DD
:1007D0008303909184030E941936EC018091890370
:1007E00090918A036EDF80918503909186030E9429
:1007F0001936019771F480918703909188032197AE
:1008000071F401969093880380938703DF91CF91D1
:1008100008958091870390918803CD2B91F30197E0
:10082000F1CFCF93DF9380918D0390918E030E943F
:100830001936EC01809191039091920342DF8091EF
:100840008B0390918C030E941936019771F480916B
:100850008F0390919003CD2B71F4019690939003A8
:1008600080938F03DF91CF91089580918F039091B2
:100870009003219791F30197F1CFCF93DF9380916C
:100880008503909186030E941936EC0180918903BB
:1008900090918A0316DF80918303909184030E94D4
:1008A0001936019771F48091870390918803CD2BBD
:1008B00071F401969093880380938703DF91CF9121
:1008C00008958091870390918803219791F3019770
:1008D000F1CFCF93DF9380919503909196030E947F
:1008E0001936EC018091990390919A03EADE809188
:1008F0009303909194030E941936019771F48091AB
:10090000970390919803CD2B71F4019690939803DF
:1009100080939703DF91CF910895809197039091F1
:100920009803219791F30197F1CF0F931F93CF93E2
:10093000DF938C01EC0183E0CC0FDD1F8A95E1F79A
:10094000CD57DC4F798368835B834A8388819981A3
:1009500060E00E94B0358A819B8160E00E94B035E2
:100960008881998161E00E94EC358A819B8161E0F8
:100970000E94EC3501301105D9F10230110509F45E
:1009800066C0012B09F092C080918303909184038B
:1009900002978431910530F58F539D4FFC01808182
:1009A000082E000C990B41E050E06DE374E00E94CA
:1009B0009D31809185039091860302978431910542
:1009C000A0F48F539D4FFC018081082E000C990BE1
:1009D00041E050E065EE73E0DF91CF911F910F9100
:1009E0000C949D318FEF9FEFDECF8FEF9FEFF0CF15
:1009F00080918B0390918C0302978431910508F5C7
:100A00008F539D4FFC018081082E000C990B41E013
:100A100050E061E174E00E949D3180918D039091DE
:100A20008E0302978431910578F48F539D4FFC011A
:100A30008081082E000C990B41E050E069EB73E0D7
:100A4000CBCF8FEF9FEFE3CF8FEF9FEFF5CF80916D
:100A500093039091940302978431910508F58F5385
:100A60009D4FFC018081082E000C990B41E050E065
:100A700069E674E00E949D31809195039091960300
:100A800002978431910578F48F539D4FFC0180814A
:100A9000082E000C990B41E050E06DE873E09CCF0C
:100AA0008FEF9FEFE3CF8FEF9FEFF5CFDF91CF91E8
:100AB0001F910F91089523E0880F991F2A95E1F760
:100AC000FC01ED57FC4F84819581089590E080E012
:100AD00008950F931F93009709F489C0611571055C
:100AE00009F485C0009188021091890220918A0240
:100AF00030918B020E3F1F4F2F4F3F4F09F068C0C0
:100B00004FEF5FEFBA0140938802509389026093E0
:100B10008A0270938B024091880250918902609101
:100B20008A0270918B02DC011296ED91FC9180811A
:100B30009181A281B3818093A5049093A604A09390
:100B4000A704B093A80484819581A681B78180937E
:100B5000A1049093A204A093A304B093A40480855D
:100B60009185A285B38580939D0490939E04A09364
:100B70009F04B093A00484859585A685B78580934E
:100B8000990490939A04A0939B04B0939C041092B0
:100B900095041092960410929704109298040E9463
:100BA0002F1184E591E190939C0380939B03909394
:100BB0009E0380939D030E941E10009731F421E054
:100BC00030E03093AA042093A9041F910F91089557
:100BD000009188021091890220918A0230918B0243
:100BE000DB010D931D932D933C93139794CF8FEFBF
:100BF0009FEFEBCF8F929F92AF92BF92CF92DF92F7
:100C0000EF92FF921F93CF93DF934B015C01109102
:100C1000AC0482E090E09093AA048093A90481142C
:100C20009104A104B10441F48091AC04811104C089
:100C30008091AB04C1E08111C0E0C12CD12C7601C0
:100C40008091AC04811106C08091AB04811102C077
:100C5000CC23D9F083E090E09093AA048093A90478
:100C6000CC2381F1CCE9DFEF111102C00E94B9144D
:100C7000CE01DF91CF911F91FF90EF90DF90CF9049
:100C8000BF90AF909F908F9008956AE070E080E0F1
:100C900090E00E94DE3380E1C80E87E2D81EE11C9E
:100CA000F11C8FEF88169806A806B80631F0C1E04F
:100CB0008C149D04AE04BF0408F0C0E080E00E94E4
:100CC0005210BECFD0E0C0E0CFCFCF92DF92EF92F4
:100CD000FF920F931F93CF93DF938F3F910511F0F6
:100CE00008F051C02091A9043091AA0423303105A5
:100CF00039F02091A9043091AA042130310531F452
:100D000024E030E03093AA042093A9046A017B0117
:100D1000EC0182309105A8F011E0AE01C701B601E7
:100D20000E941D10AB01BC01CE011123F9F0DF912F
:100D3000CF911F910F91FF90EF90DF90CF900C9487
:100D4000E2168C01000F111F05561C4FD8018D9122
:100D50009C91892B09F30E94EC160297E9F6D801C1
:100D6000ED91FC91CE011995182FD7CF0E94041751
:100D700090E080E0DF91CF911F910F91FF90EF9075
:100D8000DF90CF9008958FEF9FEFF4CF80E00C9429
:100D90005210CF93DF9386E090E09093AA04809363
:100DA000A9040E94AB10EC01EBE9F3E084E0DF0161
:100DB0001D928A95E9F70E9451141092AA0410928C
:100DC000A904CE01DF91CF9108958091AB040895DD
:100DD00080919404089560938802709389028093AF
:100DE0008A0290938B0290E080E008954F925F9288
:100DF0006F927F928F929F92AF92BF92CF92DF922B
:100E0000EF92FF92CF93DF9300D01F92CDB7DEB762
:100E10004B015C0169017A010E941A0F8823E9F0F5
:100E20008090790A90907A0AA0907B0AB0907C0A10
:100E3000C501B4010F900F900F900F90DF91CF91EB
:100E4000FF90EF90DF90CF90BF90AF909F908F90EA
:100E50007F906F905F904F900895C701B601EAD7D9
:100E60008111DECFC501B401A0D78111D9CFC7014F
:100E7000B6019BD78111DCCF20E030E0A901C7018A
:100E8000B6010E94452F87FF4CC0C701B6010E94E2
:100E9000322F2B013C01A3019201C701B6010E9430
:100EA000452F882309F44CC0A7019601C501B40160
:100EB0000E94492F2B013C01E89477F820E030E0B4
:100EC00040E05FE3C301B2010E94CE2E0E941F30BA
:100ED0009B01AC01C301B2010E94CD2E9B01AC016C
:100EE0005F7729833A834B835C8320E030E040E0E6
:100EF00054E3C301B2010E9439319B01AC01698105
:100F00007A818B819C810E9435311816CCF020E0CB
:100F100030E0A901C501B4010E9439314B015C01E7
:100F200087CFC701B6010E941F302B013C0120E092
:100F300030E0A901C701B6010E94452F8111ABCF56
:100F4000A7019601C501B4010F900F900F900F906B
:100F5000DF91CF91FF90EF90DF90CF90BF90AF9057
:100F60009F908F907F906F905F904F900C9439304E
:100F7000CF92DF92EF92FF926B017C019F7720E08E
:100F800030E040E859E50E94452F87FF2BC020E064
:100F900030E040E05FE3C701B6010E94353187FDD4
:100FA0000EC020E030E040E05FE3C701B6010E94E0
:100FB000CE2EFF90EF90DF90CF900C941F3020E06A
:100FC00030E040E05FEBC701B6010E9435311816F2
:100FD00084F420E030E0A901C701B6010E94393154
:100FE0006B017C01C701B601FF90EF90DF90CF90BD
:100FF000089520E030E040E05FE3C701B6010E94C1
:10100000CD2EFF90EF90DF90CF900C94322F4F9227
:101010005F926F927F928F929F92AF92BF92CF9288
:10102000DF92EF92FF920F931F93CF93DF9300D045
:1010300000D01F92CDB7DEB7C0904802D0904902D1
:10104000E0904A02F0904B02A70196016091F509E9
:101050007091F6098091F7099091F8090E94452F47
:10106000882341F0C092F509D092F609E092F70981
:10107000F092F80990E080E01EDDBC01990F880B2A
:10108000990B0E94E42F20914C0230914D02409127
:101090004E0250914F020E943931209150023091FE
:1010A000510240915202509153020E943931609393
:1010B000490A70934A0A80934B0A90934C0A2091F4
:1010C00054023091550240915602509157020E94AD
:1010D000CE2E6B017C01C0924D0AD0924E0AE09256
:1010E0004F0AF092500A20915802309159024091D3
:1010F0005A0250915B020E94353187FDF8C0809002
:101100002C0290902D02A0902E02B0902F022091E0
:101110003002309131024091320250913302C701C6
:10112000B6010E94CE2EA501940160DE9B01AC01A8
:1011300060913402709135028091360290913702AD
:101140000E94CE2E6093510A7093520A8093530AE4
:101150009093540AC0904402D0904502E090460219
:10116000F0904702A70196016091FF097091000A73
:101170008091010A9091020A0E94452F882341F034
:10118000C092FF09D092000AE092010AF092020A8E
:1011900081E090E090DCBC01990F880B990B0E94D4
:1011A000E42F20915C0230915D0240915E025091EB
:1011B0005F020E9439316093550A7093560A8093FA
:1011C000570A9093580A2091600230916102409131
:1011D0006202509163020E9439316B017C01C0921E
:1011E000590AD0925A0AE0925B0AF0925C0AC092C5
:1011F0005D0AD0925E0AE0925F0AF092600A209146
:1012000064023091650240916602509167020E942B
:10121000353118160CF08DC0809014029090150294
:10122000A0901602B0901702209118023091190276
:1012300040911A0250911B02C701B6010E94CE2EA6
:10124000A5019401D3DD9B01AC0160911C0270915A
:101250001D0280911E0290911F020E94CE2E60936B
:10126000610A7093620A8093630A9093640AE09122
:101270006E04F0916F04C080D180E280F380809092
:101280001B0A90901C0AA0901D0AB0901E0A209183
:10129000230A29833091240A3D831091250A009165
:1012A000260AA7019601B401C5010E9435312981A2
:1012B0003D81412F502F87FD5EC0C701B6010E94BE
:1012C000452F18160CF0CDC029813D81412F502F9C
:1012D000B401C5010E94452F87FD53C02091270A04
:1012E0003091280A4091290A50912A0A61C08090C1
:1012F000380290903902A0903A02B0903B022091BF
:101300003C0230913D0240913E0250913F02C701A4
:10131000B6010E94CE2EA501940168DD9B01AC01AF
:10132000609140027091410280914202909143028B
:1013300007CF8090200290902102A0902202B090CE
:1013400023022091240230912502409126025091DF
:101350002702C701B6010E94CE2EA501940146DDE9
:101360009B01AC01609128027091290280912A02B0
:1013700090912B0272CFB401C5010E94452F87FFC7
:101380000BC029813D81412F502FC701B6010E941A
:10139000353118160CF4A2CF20911F0A3091200A83
:1013A0004091210A5091220A89829D821A2D0B2D8B
:1013B0006091590A70915A0A80915B0A90915C0A77
:1013C0000E94CD2E4B015C0129813D81412F502F80
:1013D000C701B6010E94CD2E9B01AC01C501B4012D
:1013E0000E94492F69837A838B839C8380912B0A87
:1013F0008F8390912C0A9D8310912D0A00912E0AC3
:10140000B090330AA090340A9090350A8090360A42
:10141000A7019601BC01812F902F0E9435312B2D01
:101420003A2D492D582D87FD21C0C701B6010E94D4
:10143000452F18160CF00DC22B2D3A2D492D582D85
:101440006F817D81812F902F0E94452F87FD16C0CF
:101450004090370A5090380A6090390A70903A0AE2
:1014600022C019821A821B821C82C0CF6F817D81AB
:10147000812F902F0E94452F87FF0AC02B2D3A2DD8
:10148000492D582DC701B6010E943531181604F3B5
:1014900040902F0A5090300A6090310A7090320AC2
:1014A000BF80AD8048012B2D3A2D492D582DC70105
:1014B000B6010E94CD2E6B017C01A30192016091C7
:1014C000490A70914A0A80914B0A90914C0A0E94F5
:1014D000CD2EA70196010E94492F6B017C018090BF
:1014E000510A9090520AA090530AB090540AC50134
:1014F000B4019F7720916C0230916D0240916E0291
:1015000050916F020E94353118160CF0A6C18091DF
:10151000680290916902A0916A02B0916B02809377
:10152000650A9093660AA093670AB093680A2091AF
:10153000650A3091660A4091670A5091680A609185
:1015400070027091710280917202909173020E94F8
:1015500039318B018D839983C0907402D0907502CC
:10156000E0907602F09077029B01AC01C701B601D2
:101570000E94452F87FD14C0C0907802D090790258
:10158000E0907A02F0907B0298014D815981C70169
:10159000B6010E94353118161CF06801ED80F98003
:1015A000A701960160918402709185028091860264
:1015B000909187020E94452F18160CF4B5C18090B7
:1015C0007C0290907D02A0907E02B0907F02A1E00C
:1015D000A98320E030E0A901C501B4010E94452F94
:1015E00081111982698187E00E944001C501B4011F
:1015F000BFDC4B015C0120E030E040E853E40E9496
:10160000452F6FEF87FF0EC020E030E0A901C50134
:10161000B4010E94353160E087FD04C0C501B4010A
:101620000E94B62F88E00E944001E894F7F8C0922B
:10163000690AD0926A0AE0926B0AF0926C0A66E03C
:1016400070E080E090E00E947E019A83898390930D
:101650001A0A8093190AC090690AD0906A0AE09029
:101660006B0AF0906C0A20E030E04FE753E4C701CA
:10167000B6010E94452F18160CF45FC120E030E03F
:10168000A901C701B6010E94353187FD5DC1B701CF
:10169000A60189819A810E94470180911B0A90913D
:1016A0001C0AA0911D0AB0911E0A89839A83AB83FC
:1016B000BC83C090750AD090760AE090770AF090CB
:1016C000780AA7019601BC01CD010E94452FA09187
:1016D0006E04B0916F04BE83AD83811139C18D91C9
:1016E0009D910D90BC91A02D80931B0A90931C0A94
:1016F000A0931D0AB0931E0AEFE1FAE08091590A07
:1017000090915A0AA0915B0AB0915C0A8083918300
:10171000A283B38380912B0A90912C0AA0912D0A69
:10172000B0912E0A89839A83AB83BC839C01AD015F
:10173000C701B6010E94452FAD81BE818D909D905D
:10174000AD90BC90811138C180922B0A90922C0AE6
:10175000A0922D0AB0922E0AEFE2FAE08091490A97
:1017600090914A0AA0914B0AB0914C0A80839183D0
:10177000A283B38340915B0450915C0460915D044B
:1017800070915E0490E080E0A0DA40916304509193
:101790006404609165047091660481E090E095DADC
:1017A00060915B0470915C0480915D0490915E0493
:1017B0006F5F7F4F8F4F9F4F60935B0470935C040C
:1017C00080935D0490935E04E0916E04F0916F0449
:1017D000FA83E9830E94E22F9B01AC0160915F04D0
:1017E0007091600480916104909162040E9439318B
:1017F000A981BA816D937D938D939C93139780916A
:10180000630490916404A0916504B091660401960C
:10181000A11DB11D8093630490936404A09365049B
:10182000B093660427960FB6F894DEBF0FBECDBF07
:10183000DF91CF911F910F91FF90EF90DF90CF90AC
:10184000BF90AF909F908F907F906F905F904F90E0
:101850000895C12CD12C760142CE60910002709186
:101860000102809102029091030290582091610A36
:101870003091620A4091630A5091640A0E943931A2
:101880002B013C01609104027091050280910602D7
:10189000909107029058A50194010E9439319B0153
:1018A000AC01C301B2010E94CE2E4B015C016091DC
:1018B00008027091090280910A0290910B029058DF
:1018C00029813A814B815C810E9439319B01AC01B5
:1018D000C501B4010E94CE2E4B015C0160910C0247
:1018E00070910D0280910E0290910F029058A70105
:1018F00096010E9439319B01AC01C501B4010E94DF
:10190000CE2E20911002309111024091120250917E
:1019100013020E9439316093650A7093660A8093BE
:10192000670A9093680A03CE8090800290908102AB
:10193000A0908202B09083024ACEC12CD12C8FE7B6
:10194000E82E83E4F82EA3CEC12CD12C76019FCEB5
:101950004090230A5090240A6090250A7090260A2D
:10196000ED81FE8180809180A280B380A3019201ED
:10197000C701B6010E94452F81110BC08092230A36
:101980009092240AA092250AB092260AE7E2FAE091
:10199000B5CEA301920169817A818B819C810E94DD
:1019A000452F87FFEBCF80921B0A90921C0AA092D2
:1019B0001D0AB0921E0AA0CE4090330A5090340AFD
:1019C0006090350A7090360AA3019201C701B601F2
:1019D0000E94452F81110BC08092330A9092340AE5
:1019E000A092350AB092360AE7E3FAE0B7CEA30137
:1019F000920169817A818B819C810E94452F87FFAA
:101A0000EBCFA2CE8F929F92AF92BF92DF92EF92D6
:101A1000FF920F931F93CF93DF9384E090E08ED1DA
:101A2000E1ECF3E08BE694E097838683CEE6D4E0A6
:101A3000D0930204C09301040FE514E0158B048BCE
:101A4000F0932C04E0932B04F583E48321E030E051
:101A5000DC012D933C9385ED92E09387828720E70C
:101A600034E03983288340E050E060E87FEB409326
:101A70006704509368046093690470936A044FE6A6
:101A800052E163E87AE3D8014D935D936D937C93C3
:101A90001397C9E4D4E08BE59BECA4E7BCEF888303
:101AA0009983AA83BB838FE198E2ACE1B5E480938C
:101AB0004D0490934E04A0934F04B093500480E9DA
:101AC00095ECADEABAE78093510490935204A09349
:101AD0005304B093540488EF9EEEA5E9B4E88093D4
:101AE000550490935604A0935704B0935804A5EB63
:101AF000B3E0B383A283EFE9F3E01196FC93EE9396
:101B000087EE92E09183808393838283958384839D
:101B10009783868391878087938782879587848739
:101B200097878687918B808B938B828B958B848B09
:101B300089E594E015969C938E9314971396DC9305
:101B4000CE93129717963C932E9316978091750A11
:101B50009091760AA091770AB091780ACFEED9E0F9
:101B60008CA79DA7AEA7BFA78CAB9DABAEABBFAB01
:101B70008CAF9DAFAEAFBFAF8093330A9093340A62
:101B8000A093350AB093360A18828091480290914A
:101B90004902A0914A02B0914B028E839F83A8878D
:101BA000B987812C912C5401839489829A82AB82CB
:101BB000BC8243E050E062E070E090E080E00E9490
:101BC0009504DD24D394DD821A868091440290919D
:101BD0004502A0914602B0914702888B998BAA8B4F
:101BE000BB8B8B869C86AD86BE8643E150E062E16E
:101BF00070E081E090E00E949504DF861C8E8D8E5F
:101C00009E8EAF8EB8A261E087E00E943801D9A213
:101C10001C8A8D8A9E8AAF8AB88E61E088E00E9415
:101C20003801D98E1CA28DA29EA2AFA2B8A6E12C2B
:101C3000F12C8701A801970166E070E080E090E058
:101C40000E94C2019BA78AA7D9A6DF91CF911F91BD
:101C50000F91FF90EF90DF90BF90AF909F908F908B
:101C600008958091EF09811103C081E08093EF090D
:101C70008091F909811103C081E08093F909809175
:101C80000B0A811103C081E080930B0A8091030A43
:101C9000811103C081E08093030A8091130A8111AE
:101CA0002EC081E08093130A8091140A9091150A46
:101CB000A091160AB091170A0197A105B105F9F490
:101CC0008091180A8823D9F066E070E080E090E007
:101CD0000E947E0190931A0A8093190A40E050E016
:101CE000BA010E94470166E070E080E090E00E9447
:101CF0007E0190931A0A8093190A0C941302089596
:101D000060E070E080E89FE7089560E070E080E8C0
:101D10009FE7089560E070E080E89FEF089560E03D
:101D200070E080E89FEF089560E070E080EC9FEF46
:101D3000089560E070E080EC9FEF0895F5DF609318
:101D4000790A70937A0A80937B0A90937C0AF1DF78
:101D500060936D0A70936E0A80936F0A9093700A75
:101D6000CFDF6093750A7093760A8093770A909319
:101D7000780ACBDF6093710A7093720A8093730ABA
:101D80009093740AC7DF60937D0A70937E0A8093F4
:101D90007F0A9093800AC3DF6093810A7093820A5E
:101DA0008093830A9093840A0895CF92DF92EF92F2
:101DB000FF92CF936B017C01AC019B016091750A8E
:101DC0007091760A8091770A9091780A0E94452F47
:101DD000C1E0882371F0A701960160917D0A70919E
:101DE0007E0A80917F0A9091800A0E94452F81117E
:101DF000C0E08C2FCF91FF90EF90DF90CF900895AF
:101E00000F931F938B019C010027112720783F77A8
:101E10000115110520483F4749F4AB01BC016F771C
:101E2000772781E0452B462B472B09F480E01F9153
:101E30000F910895E5CF4F925F926F927F928F92AC
:101E40009F92AF92BF92CF92DF92EF92FF920F9349
:101E50001F93F89440908404509085046090860409
:101E600070908704C0907804D0907904E0907A0450
:101E7000F0907B044130510509F0A4C09B01AC01F6
:101E8000241935094609570929013A0100918004AE
:101E900010918104209182043091830448015901FA
:101EA000840C951CA61CB71C80169106A206B306CE
:101EB000A0F400917C0410917D0420917E04309167
:101EC0007F040F5F1F4F2F4F3F4F00937C041093F1
:101ED0007D0420937E0430937F048092800490924E
:101EE0008104A0928204B092830400917C0410913A
:101EF0007D0420917E0430917F048092880490922A
:101F00008904A0928A04B0928B0400938C041093ED
:101F10008D0420938E0430938F0460938404709317
:101F200085048093860490938704A8EEB3E0A30110
:101F300092010E94073A6C0D7D1D8E1D9F1D6093BE
:101F400078047093790480937A0490937B040091D1
:101F500088021091890220918A0230918B020F3FF2
:101F60001F4F2F4F3F4FF1F00091880210918902CF
:101F700020918A0230918B020E3F1F4F2F4F3F4F0F
:101F800089F0C0908802D0908902E0908A02F09097
:101F90008B0221E08C149D04AE04BF0408F420E001
:101FA0002093940478941F910F91FF90EF90DF900D
:101FB000CF90BF90AF909F908F907F906F905F90E9
:101FC0004F9008954B015C0184189508A608B70846
:101FD000A3019201261B370B480B590B641575059D
:101FE00086059705D0F082169306A406B50640F440
:101FF00020E030E0A90181149104A104B10491F41E
:10200000A8EEB3E00E94073AA7019601261B370B02
:10201000480B590BCA01B901C5CF82169306A40615
:10202000B50670F7A8EEB3E0A50194010E94073A47
:102030006C0D7D1D8E1D9F1DB5CFFDCECF93DF9303
:1020400000D01F92CDB7DEB71C821B821A82198284
:1020500010929004109291041092920410929304A2
:10206000BE016F5F7F4FCE0103960E941B2D6981D9
:102070007A818B819C810E940926009761F4BE01C0
:102080006F5F7F4FCE0103960E94272D69817A8171
:102090008B819C812FD50F900F900F900F90DF9127
:1020A000CF910895FF920F931F93CF93DF93082F43
:1020B00060E070E0CB010E94DE33FF24F3940E94C5
:1020C000F224EC01892B89F010E0CE3F8FEFD80786
:1020D00069F0002361F160E070E0CB010E94DE3323
:1020E00081E090E0892B59F322C011E026D5EC0164
:1020F000892B21F0CE3F8FEFD80759F711111EC061
:1021000011E0229609F410E00E94A224EC01892B30
:1021100021F0CE3F8FEFD807E1F6111111C011E089
:10212000CE3F8FEFD80709F410E001110BC0CE01AC
:10213000DF91CF911F910F91FF90089511E0E4CFAF
:1021400011E0F3CF60E070E0CB010E94DE331F2589
:10215000812F90E0C7CFCF93DF93809194048823A1
:1021600021F060E070E0CB014DD636D6D0E0C0E083
:10217000892B71F06AE070E080E090E00E94DE332D
:1021800081E090DF29D62196C03D27E0D20781F774
:1021900028D60E945D261092AC041092AB041092D7
:1021A000A5041092A6041092A7041092A8041092FD
:1021B000A1041092A2041092A3041092A4041092FD
:1021C0009D0410929E0410929F041092A0041092FD
:1021D000990410929A0410929B0410929C041092FD
:1021E00095041092960410929704109298044EEF62
:1021F0005FEF6FEF7FEF4093880250938902609307
:102200008A0270938B0210929404E8E8F4E028E0CC
:10221000DF011D922A95E9F710928404109285043B
:102220001092860410928704109280041092810408
:10223000109282041092830410927C0410927D0408
:1022400010927E0410927F04109278041092790408
:1022500010927A0410927B04DF91CF91089510922E
:10226000B8041092B9041092BA041092BB041092F0
:10227000B7048091C0049091C1049093B6048093F8
:10228000B5041092B4041092B3041092AF041092EB
:10229000B0041092B1041092B2041092BD041092D6
:1022A000BC0490E080E00895CF92DF92EF92FF921D
:1022B0000F931F93CF938C01019709F055C0209184
:1022C000C0043091C1048091B5049091B60440914E
:1022D000C0045091C1045093B6044093B50428172C
:1022E000390781F01092B4041092B3041092AF0435
:1022F0001092B0041092B1041092B2041092BD0476
:102300001092BC048091C0049091C104019761F5C2
:102310008091BC049091BD04892B21F480918C02A2
:10232000811112C08091BC049091BD040197E1F429
:102330008091AF049091B004A091B104B091B20427
:102340000197A105B10581F41092AF041092B00479
:102350001092B1041092B20410928C0282E090E0CC
:102360009093BD048093BC048091C0049091C104FB
:10237000019709F01CC18091D6049091D704801771
:10238000910709F014C18091D2049091D304A091D7
:10239000D404B091D504009709F409C12091D10467
:1023A00021110DC04091D2045091D3046091D40406
:1023B0007091D504452B462B472B09F4F8C020918A
:1023C000BC043091BD042230310509F0F0C02091E9
:1023D000B3042111ECC0FC01C080D180E280F38005
:1023E0008091B704882309F4D3C08091C3049091ED
:1023F000C404892B09F4FEC02091C3043091C404A5
:1024000081E02230310509F080E02091C304309151
:10241000C404C1E02130310549F02091C30430915A
:10242000C404C1E02230310509F0C0E0882309F47A
:1024300056C02091CD043091CE044091CF045091EC
:10244000D004C701B6010E94353187FD14C0209128
:10245000CD043091CE044091CF045091D0046091CE
:10246000B8047091B9048091BA049091BB040E94A1
:10247000452F87FD22C02091CD043091CE0440919C
:10248000CF045091D004C701B6010E94353118160F
:1024900034F52091CD043091CE044091CF04509179
:1024A000D0046091B8047091B9048091BA049091FD
:1024B000BB040E94452F811112C08091C5049091E8
:1024C000C604A091C704B091C804892B8A2B8B2B1A
:1024D00019F481E08093B40481E08093B304CC23A9
:1024E00009F456C02091CD043091CE044091CF0420
:1024F0005091D004C701B6010E94452F87FF14C038
:102500002091CD043091CE044091CF045091D0045D
:102510006091B8047091B9048091BA049091BB04A1
:102520000E94353187FF22C02091CD043091CE0426
:102530004091CF045091D004C701B6010E94452FAD
:10254000811126C02091CD043091CE044091CF045A
:102550005091D0046091B8047091B9048091BA048C
:102560009091BB040E943531181694F48091C504F3
:102570009091C604A091C704B091C804892B8A2BFE
:102580008B2B19F481E08093B40481E08093B30431
:1025900081E09091B304911180E08093B704C092E0
:1025A000B804D092B904E092BA04F092BB040130AE
:1025B000110509F067C18091BC049091BD04892B7D
:1025C000D9F41092C2041092B30480918C02882333
:1025D00079F082E090E09093BD048093BC04109267
:1025E0008C022091C0043091C10481E0232BE9F0DA
:1025F00080E01BC081E009CF10928C028091C20460
:10260000882349F01092B4041092BD041092BC04C7
:102610001092C204EDCF8091C0049091C104892B27
:10262000E1F08091B3041092B3042091BC04309186
:10263000BD042230310509F45EC088F4211531054E
:1026400009F448C02130310509F4F3C01092B404F4
:102650001092B3041092C20438C081E0E6CF233058
:10266000310509F4B1C02430310581F74091AF0440
:102670005091B0046091B1047091B20441155105BC
:102680006105710561F0415051096109710940937B
:10269000AF045093B0046093B1047093B2044091BE
:1026A000AF045091B0046091B1047091B204452B15
:1026B000462B472BD9F42091BE043091BF04213022
:1026C000310509F046C01092B4041092BD04109276
:1026D000BC040CC080918C02882341F082E090E021
:1026E0009093BD048093BC0410928C021092AD04B0
:1026F0008091B404CEC08823C9F38091C504909121
:10270000C604A091C704B091C804181619061A0689
:102710001B060CF07DC08091C0049091C10401970C
:1027200009F076C08091C5049091C604A091C704B9
:10273000B091C8048093AF049093B004A093B10407
:10274000B093B20483E090E09093BD048093BC0406
:10275000CDCF4091C9045091CA046091CB047091CF
:10276000CC04452B462B472BA9F01092B404809142
:10277000C9049091CA04A091CB04B091CC04809379
:10278000AF049093B004A093B104B093B20481E07D
:1027900090E0DACF882399F080918D0290918E029B
:1027A000A0918F02B09190028093AF049093B004F7
:1027B000A093B104B093B20484E090E0C5CF10922E
:1027C000B40482E090E0C0CF8091AF049091B00457
:1027D000A091B104B091B2040097A105B10559F0E0
:1027E0000197A109B1098093AF049093B004A0931D
:1027F000B104B093B2048091AF049091B004A09161
:10280000B104B091B204892B8A2B8B2B09F06ECFC7
:1028100080918D0290918E02A0918F02B0919002D2
:10282000892B8A2B8B2B09F44ECF81E08093B40443
:10283000B3CF4091AF045091B0046091B104709156
:10284000B204411551056105710561F0415051090E
:10285000610971094093AF045093B0046093B104CF
:102860007093B2044091AF045091B0046091B104F0
:102870007091B204452B462B472B09F037CF8111BD
:10288000C7CF9FCF8091AD04882309F431CF8091C9
:10289000AE04CF911F910F91FF90EF90DF90CF90FA
:1028A00008951092B8041092B9041092BA041092CC
:1028B000BB041092B7041092BD041092BC04109295
:1028C000B6041092B5041092D7041092D604109258
:1028D000B4041092B3041092AF041092B00410929A
:1028E000B1041092B2041092AE041092AD04109292
:1028F000D2041092D3041092D4041092D5041092F2
:10290000D1041092CD041092CE041092CF041092F4
:10291000D00488EE93E0A0E0B0E080938D02909325
:102920008E02A0938F02B09390021092C90410926D
:10293000CA041092CB041092CC041092C5041092D9
:10294000C6041092C7041092C8041092C4041092D6
:10295000C30481E080938C021092C2041092C104DF
:102960001092C0041092BF041092BE0490E080E068
:1029700008958091C0049091C104892B19F580912C
:102980008C02882351F08091C204811106C081E03D
:102990008093AE048093AD0408952091C2043091D9
:1029A0008C0281E090E0332311F090E080E030E091
:1029B00082239323892B21F01092AE0481E0EACF89
:1029C0001092AD04089582E090E0FA019183808333
:1029D0008FEF9FEF0895CF93DF93EA01009711F0F7
:1029E0000E947D271982188290E080E0DF91CF91CC
:1029F0000895DB01009719F48FEF8C9308952EEF63
:102A00002C93FC013F96EF30F10508F034C0882785
:102A1000E35FFA4E8F4F0C94FF3939153715351592
:102A2000331531152D152F152B152915271524159F
:102A300020151C1522153B1580E311968C930895E3
:102A400089E2FBCF82E2F9CF11961C92089583E2CE
:102A5000F4CF81E2F2CF81E1F0CF87E2EECF8AE2DC
:102A6000ECCF80E1EACF84E2E8CF88E2E6CF86E2ED
:102A7000E4CF81E3E2CF80E2E0CF8091E404909163
:102A8000E50408959093E5048093E404089580910B
:102A9000E30408959091E304892B8093E30408955F
:102AA000982F90958091E30489238093E3040895FF
:102AB0008091E20408958091E0049091E1040895EA
:102AC0006115710559F0FB0130E020E070E060E035
:102AD0002417350719F06115710511F0CB01089520
:102AE000A081B181A817B90709F4BF012F5F3F4F3B
:102AF0003696EECF8091E60481111CC060D266D27A
:102B00009093D9048093D8040E947B1F0E948D1F4C
:102B10009093DD048093DC040E940A240E94112417
:102B20009093DB048093DA0481E08093E60490E0E4
:102B300080E0089584EF9FEF08958F929F92AF9267
:102B4000BF92CF92DF92EF92FF920F931F93CF939A
:102B5000DF9300D000D000D01F92CDB7DEB71A8629
:102B6000198618861F821E821D821C821B821A8271
:102B700019828091E60407EF1FEF882309F49CC0B7
:102B80008E010D5F1F4F9E012B5F3F4FAE01495FCE
:102B90005F4FBE01675F7F4F90E080E00E948E250F
:102BA0008C01009721F00596029708F0DBC029857B
:102BB0003A852115310509F402C1ED80FE804B8173
:102BC0005C81B701640F751F8F8198858617970701
:102BD00008F4F5C0E20EF31ED7019C91903C09F079
:102BE0007FC04230510508F47BC011968C91409112
:102BF000E4045091E504452B09F49CC0913F08F092
:102C000071C02CE1290F2D3008F48BC02DE2290F63
:102C1000203108F489C0903C21F48150823008F4BE
:102C200083C088E3890F8B3008F481C099EFC92EE7
:102C300094E1D92EE3EEF4E16D817E81AE014F5F28
:102C40005F4F89859A8519955C01C114D104A1F162
:102C500089809A808114910479F18B819C818815F7
:102C6000990508F487C010E000E04B815C8170E0BA
:102C700060E0C7010E94293A01151105E9F4498174
:102C80005A8169857A858D819E81680F791FC5017A
:102C9000F6011995E980FA800D811E812F81388512
:102CA00049855A856FEF7FEF81E090E00E942925EA
:102CB0008C01892B09F056C0C8012A960FB6F894EA
:102CC000DEBF0FBECDBFDF91CF911F910F91FF905F
:102CD000EF90DF90CF90BF90AF909F908F9008952E
:102CE00080E085CF30E020E0220F331FF901E85269
:102CF000FB4F0190F081E02D309709F497CF892F99
:102D000090E01995009709F491CFDC011296ED91AE
:102D1000FC9113971496CD90DC90309709F08CCFEE
:102D20001FC021E030E0E0CF22E030E0DDCF23E043
:102D300030E0DACFD12CC12CEBEEF4E19F3F09F06B
:102D40007BCFE091D804F091D904309721F4C901E8
:102D500004EF1FEF0CC08FEF90E019950097A9F6D4
:102D600004EF1FEF89859A85009709F4A5CF0E948B
:102D70007D27A2CF0E9458268C0189859A850E94C2
:102D80007D2770E060E0C4010E94F12598878F8361
:102D90000E9426259E838D836F817885611571053C
:102DA00059F0C8010E9409299A87898706EF1FEF09
:102DB000892B09F058CF59CF08EF1FEF56CF08EFF6
:102DC0001FEFD0CF2091E604222319F020E00C94CD
:102DD000921F87EF9FEF08958091E4049091E5049E
:102DE00008950E9416240E947023F5D0E8EDF4E0C7
:102DF00088E0DF011D928A95E9F71092E60490E0E1
:102E000080E008950C94CE2121E040E050E0BA012A
:102E10000C94921F86E090E0FA019183808390E009
:102E200080E0089547E050E06AEE72E049CEDF921C
:102E3000EF92FF920F931F93CF93DF938A01EC01E0
:102E4000C60FD71FE090EA04F090EB04D9800E94EF
:102E50004026D816190678F082E090E0F8019183B8
:102E600080838EEF9FEFDF91CF911F910F91FF90A5
:102E7000EF90DF900895EF2841F482E090E0F801B0
:102E80009183808384EF9FEFEECF89818093E90463
:102E900090E00196F8019183808390E080E0E3CF99
:102EA000CF93DF93EA010E947F22882321F00E94C2
:102EB0004D260E94802282E090E0998388838BEFE8
:102EC0009FEFDF91CF910895CF93DF93EB0186E0E1
:102ED000FB0111928A95E9F78FEF8883D8DD89830A
:102EE000E7DD8A83E8DD9D838C83DF91CF910895B0
:102EF000CF93DF93EA010E948222811109C082E010
:102F000090E09983888385EF9FEFDF91CF910895BB
:102F100090E080E0B7DD81E090E09983888390E0E5
:102F200080E0F3CF0F931F93CF93DF93EA018C01DF
:102F3000060F171F0E94822281110BC082E090E0D1
:102F40009983888385EF9FEFDF91CF911F910F9138
:102F50000895F8018181823038F082E090E0998311
:102F600088838EEF9FEFF0CF81E090E08BDD88E0EB
:102F700090E09983888390E080E0E6CFCF93DF9361
:102F80000097D1F4EB01FB01329686E0DF011D9240
:102F90008A95E9F78FEF888385E089831A820E94FA
:102FA00040268B830E943F269D838C8381E08E8305
:102FB0008F83DF91CF910895DF91CF911ACD82E178
:102FC00097E19093E8048093E70408958091E704E3
:102FD0009091E80408951092E8041092E70408958F
:102FE0008091EA049091EB040895411105C06115A8
:102FF00071058105910561F06093EA047093EB041B
:103000008093EC049093ED044093EE0481E00895E6
:1030100080E00895FF920F931F93CF93DF938A016F
:10302000EC01C60FD71FF9800E944026F81619063A
:1030300068F082E090E0F801918380838EEF9FEF4B
:10304000DF91CF911F910F91FF9008956C817D8149
:103050008E819F814B81C9DF811108C082E090E0A1
:10306000F8019183808384EF9FEFEACF8981809379
:10307000E90490E00196F8019183808390E080E07C
:10308000DFCFCF93DF93EA01FC01E60FF71F6481E6
:103090007581868197814381A8DF811109C082E013
:1030A00090E09983888384EF9FEFDF91CF9108951B
:1030B00081E090E09983888390E080E0F6CFEAEEAB
:1030C000F4E04081518162817381480F511D611D7F
:1030D000711D40835183628373830895CF93C091A0
:1030E000E9044C2F50E06091EA047091EB040196E2
:1030F0000E94203A8C2FE3DF1092E904CF910895CB
:10310000009799F48091EA049091EB042FEFFB0172
:103110002083892B59F02091E90430E02F5F3F4F45
:103120002417350719F4CB01D9CF63CC0895009744
:1031300099F48091EA049091EB042FEFFB01208336
:10314000892B59F02091E90430E02F5F3F4F24177D
:10315000350719F4CB01C2CF4CCC089523E1AC0163
:10316000249FC001259F900D1124E091F304F0915C
:10317000F404E80FF91F238134812250310981E0E2
:103180002230310508F080E008950F931F93CF930C
:10319000DF930091F5041091F604D0E0C0E080E0E8
:1031A0000C171D0749F491E0811190E0892FDF9100
:1031B000CF911F910F9108958111F5CFCE01CEDFF0
:1031C0002196EECFA091F304B091F404109729F169
:1031D0002091F5043091F60482179307F0F453E13F
:1031E000589F9001599F300D1124A20FB31FED91EC
:1031F000FC911197309789F012968C91681768F4BA
:103200008DE0689FE00DF11D112480819181892B53
:1032100021F081E09281491708F080E008959C0137
:1032200043E1429FC001439F900D1124E091F304BC
:10323000F091F404E80FF91F8385823091F481E066
:1032400090E06581768140919102509192026417DD
:10325000750711F490E080E0892B19F081E0232BB1
:1032600009F080E00895FC01A081B1818DE0689FA4
:10327000A00DB11D112413964D915C918585968505
:10328000489F9001499F300D589F300D1124C9016E
:103290000196611103C0478144FD04960895EF92A1
:1032A000FF920F931F93CF93DF93EA01FC01E60F88
:1032B000F71F02811381E480F5804F2D6E2DC80128
:1032C00081DF81110DC082E090E0998388838EEFC9
:1032D0009FEFDF91CF911F910F91FF90EF90089595
:1032E000C8013CDF882339F082E090E0998388832D
:1032F00088EF9FEFEECF1093980200939702E09231
:103300009902F0929A0281E090E09983888390E09C
:1033100080E0DFCFCF92DF92EF92FF920F931F9367
:10332000CF93DF937A01EC01C60FD71FC0909702AD
:10333000D09098020091990210919A02412F602F2B
:10334000C60140DF811110C082E090E0F701918357
:1033500080838AEF9FEFDF91CF911F910F91FF90B4
:10336000EF90DF90CF900895C601F8DE882341F0FA
:1033700082E090E0F7019183808388EF9FEFEBCFAD
:103380004C815D816E817F819A8189818F3F41F07F
:1033900082E090E0F701918380838EEF9FEFDBCF97
:1033A000E3E1EC9D9001ED9D300D1124E091F304DB
:1033B000F091F404E20FF31F0190F081E02D2DE075
:1033C000029FE00DF11D11240190F081E02D27E016
:1033D000129FE00DF11D1124808391838B818283E4
:1033E00043835483658376831F5F10939A0281E041
:1033F00090E0F7019183808390E080E0ACCFEF9282
:10340000FF920F931F93CF93DF937A018C01060FE6
:10341000171FC091F304D091F404209781F021E0AC
:1034200030E0F801828193814091F5045091F604D7
:103430008417950710F030E020E0232B71F482E030
:1034400090E0F701918380838EEF9FEFDF91CF9122
:103450001F910F91FF90EF90089543E1489F9001D5
:10346000499F300D1124C20FD31F78DE882341F00D
:1034700082E090E0F7019183808388EF9FEFE6CFB1
:10348000F8012481358120383105C8F68781811102
:10349000D6CF4181842F90E08F7E009741F082E06B
:1034A00090E0F7019183808386EF9FEFCFCF4F832A
:1034B0003E832D83268128871986223010F421E04F
:1034C000288721E030E0F70131832083BFCF88E0F7
:1034D00090E0FA019183808390E080E00895FB0101
:1034E0008FEF808381E181838FEF9FEF93838283CE
:1034F00080E890E095838483168217820895FB010B
:103500008FEF808391E0918382839383848384E32C
:10351000858381E090E0978386830895DF92EF9220
:10352000FF920F931F93CF93DF93EA01FC01E60F05
:10353000F71F8181813071F082E090E09983888368
:103540008FEF9FEFDF91CF911F910F91FF90EF9041
:10355000DF90089582819381D4802581E680F78071
:103560000091F3041091F4040115110539F482E07F
:1035700090E0998388838CEF9FEFE4CF4091F5042E
:103580005091F6048417950738F082E090E0998313
:1035900088838EEF9FEFD6CF892B39F082E090E0C1
:1035A0009983888386EF9FEFCDCF8D2D8D7FB1F7E7
:1035B0002130A1F781E0D11006C091E0E916F104B5
:1035C00031F080E004C0E2E0EE16F104D0F388238D
:1035D00029F390E080E0C2DD882339F082E090E0BA
:1035E0009983888388EF9FEFADCFF801D38681E080
:1035F0008487F686E586108A178681E090E09983B5
:10360000888390E080E09ECF4CE050E064E173E07E
:1036100057CA8F929F92BF92CF92DF92EF92FF9202
:103620000F931F93CF93DF93EA01FC01E60FF71F7F
:10363000828193810481B580E091F304F091F404D8
:10364000309791F482E090E0998388838CEF9FEF2C
:10365000DF91CF911F910F91FF90EF90DF90CF906E
:10366000BF909F908F9008952091F5043091F604BB
:103670008217930738F082E090E0998388838EEF79
:103680009FEFE6CF23E1289F6001299FD00C1124F2
:10369000EC0DFD1DE080F180E114F10499F28281CE
:1036A000081748F78DE0089F80011124E00EF11EF5
:1036B000F70180819181892B29F6BB20E1F2F7E0A7
:1036C000BF9E40011124C4010E944427F701918349
:1036D0008083E091F304F091F404EC0DFD1D019062
:1036E000F081E02DE00FF11F80819181009739F486
:1036F00082E090E0998388838DEF9FEFA9CFA401AA
:1037000070E060E00E94293A8091F3049091F40403
:10371000C80ED91EF60180819181080F191FF8018A
:10372000B28281E090E09983888390E080E090CF3E
:10373000AF92BF92CF92DF92FF920F931F93CF93DE
:10374000DF93EA01FC01E60FF71F82819381F48089
:103750000091F3041091F4040115110581F482E045
:1037600090E0998388838CEF9FEFDF91CF911F9139
:103770000F91FF90DF90CF90BF90AF900895209170
:10378000F5043091F6048217930738F082E090E058
:10379000998388838EEF9FEFE8CF2FEF2F0D2C3F7B
:1037A000A8F723E1289F6001299FD00C11240C0D5C
:1037B0001D1DF80180819181892B89F6FDE0FF9E16
:1037C00050011124C5010E944427F8019183808390
:1037D000E091F304F091F404EC0DFD1D80819181E2
:1037E000009739F482E090E0998388838DEF9FEF12
:1037F000BCCFA50170E060E00E94293AE091F3049B
:10380000F091F404EC0DFD1DF28281E090E09983CB
:10381000888390E080E0A9CFCF92DF92EF92FF9271
:103820000F931F93CF93DF93860F971FFC010281A5
:1038300013818091F3049091F404892B81F082E04C
:1038400090E0FA01918380838CEF9FEFDF91CF911D
:103850001F910F91FF90EF90DF90CF900895C801D6
:10386000B0E0A0E00197A109B1098F3F9F4FA105EA
:10387000B10540F082E090E0FA01918380838EEF01
:103880009FEFE4CF7A0183E1809F6001819FD00C9C
:103890001124C6010E944427EC01009741F482E004
:1038A00090E0F701918380838DEF9FEFCFCFA6014A
:1038B00070E060E00E94293AD093F404C093F304CE
:1038C0001093F6040093F50490E080E02FEF3FEFB3
:1038D00041E061E070E08017910741F481E090E001
:1038E000F7019183808390E080E0B0CF3A8B298B01
:1038F0001B864C877E876D87188A1F860196639684
:10390000EACFEF92FF921F93CF93DF93EC0110E089
:10391000F12CE12C6A811617B0F083E0689FB001AA
:103920001124AE014F5E5F4FC7010E94A927009787
:1039300021F02FEF3FEF3A8B298BDF91CF911F9131
:10394000FF90EF900895612FCE018DDC61E070E073
:103950000E94F125E816F90608F47C011F5FDACF12
:10396000F8942091F1043091F20481E021153105A1
:1039700009F080E0232B09F0789408952F923F926C
:103980004F925F926F927F928F929F92AF92BF926F
:10399000CF92DF92EF92FF920F931F93CF93DF931B
:1039A0003C01660E771EF301828193814C01B12C9C
:1039B000A12CC091F304D091F404209769F021E088
:1039C00030E06091F5047091F6048617970710F0C7
:1039D00030E020E0232BD1F482E090E0FA019183E3
:1039E00080838EEF9FEFDF91CF911F910F91FF901A
:1039F000EF90DF90CF90BF90AF909F908F907F908F
:103A00006F905F904F903F902F90089580929B020F
:103A100090929C02A0929D02B0929E0263E1689FE8
:103A20009001699F300D1124C20FD31FF3018181D2
:103A3000833040F082E090E0FA019183808386EF4A
:103A40009FEFD1CF2A012B813C81232BF1F42881D8
:103A500039819F8191FF2EC0232B09F46FC02091E3
:103A6000F8049A81422F490F5527551FBA0141E0AA
:103A700050E06138710514F050E040E0452B09F446
:103A80005DC02A87920F9093F8048150823008F429
:103A900081C066DF882309F4D8C0F30181818130B9
:103AA00009F48DC008F47BC0823009F4C6C090E0F0
:103AB00080E0ADC0232B09F441C02091F7049A8126
:103AC000E22FE90FFF27FF1F41E050E0ED3FF10536
:103AD00014F050E040E0452B89F12A87920F909333
:103AE000F704D3CFA081B181A20FB31F11966C91BF
:103AF000060F111D0196295F3F4F8417950794F318
:103B00008D859E85089F1001099F300C189F300CF1
:103B10001124C114D104D1F48F8184FF17C00E94F5
:103B20003F26F5E02F0E311C21E08215930508F4A5
:103B300020E0A701435F5F4F21110EC082E090E0BB
:103B4000F2019183808387EF9FEF4DCF0E943F2644
:103B50002FEF221A320AE8CF88819981E80EF91EE8
:103B6000F70114830383FFEFCF1ADF0A7A018A81FA
:103B70008C151D0409F00CF48CCFE881F981EE0D51
:103B8000FF1D428150E030E020E010E000E090E0D6
:103B900080E0B3CFF12CE12CD12CC12CE8CF81E017
:103BA00090E09C838B83F1DA882309F480CF81E055
:103BB00090E00E94421580E40E94501578CF8989D8
:103BC0009A89019661F083E090E09C838B8382E088
:103BD00090E00E94421580E40E944A1568CF8D81D2
:103BE0009E81209191023091920282179307D1F425
:103BF0006091950270919602AE014F5E5F4F809189
:103C00009302909194020E94C8280097E1F2789460
:103C100022E030E0F20131832083892B99F08DEF8F
:103C20009FEFE1CE89288A288B2869F6029758F6FB
:103C3000CE0167DE188A1F86E8CF82E090E09C8381
:103C40008B8335CF90E080E0CECE82E090E0F20131
:103C50009183808385EF9FEFC6CE8F929F92AF9224
:103C6000BF92CF92DF92EF92FF920F931F93CF9369
:103C7000DF93EA018C01060F171FF8018181833061
:103C800098F082E090E09983888386EF9FEFDF9140
:103C9000CF911F910F91FF90EF90DF90CF90BF9049
:103CA000AF909F908F9008958091F3049091F404C9
:103CB000892B61F081E090E02091F5043091F604C9
:103CC000232B11F490E080E0892B39F482E090E01E
:103CD000998388838EEF9FEFDACF42DE882309F441
:103CE000E0C0F8018181813009F496C0E8F08230AB
:103CF00099F42091F5043091F604E091F304F091E9
:103D0000F40490E080E041E050E02817390709F022
:103D1000BEC03BDA811117C0789481E090E09983AE
:103D2000888390E080E0B3CF2091F5043091F604D1
:103D3000E091F304F091F40490E080E041E050E081
:103D40002817390741F481E090E00E94421580E491
:103D50000E945015E1CF63817481672B11F0548369
:103D6000438301967396ECCFE091F304F091F40451
:103D7000E00FF11F2381348122303105D9F42189EC
:103D800032892F3F3F4FB1F4258136814091910216
:103D9000509192022417350761F5AF014F5E5F4FD6
:103DA0006091950270919602809193029091940295
:103DB0000E94C828EFEFCE1ADE0AEE0AFE0A0D5E58
:103DC0001F4F4091F5045091F60470E060E0C41676
:103DD000D506E606F70644F5009731F27894892B6C
:103DE00009F49BCF82E090E0998388838DEF9FEF69
:103DF0004ECFC114D104E104F104E1F622303105C3
:103E0000C8F6CF017EDDE091F304F091F404E00FF9
:103E1000F11F108A1786CECF10E000E090E080E01E
:103E2000C12CD12C7601CDCF0097C1F610E000E077
:103E3000812C912C540183E0E82EF12C1AC0E091E2
:103E4000F304F091F404E00FF11F83819481029751
:103E500049F4F482E38282E090E00E94421580E41B
:103E60000E944A15FFEF8F1A9F0AAF0ABF0A0D5E24
:103E70001F4F8091F5049091F604B0E0A0E0881601
:103E80009906AA06BB06DCF290E080E0A7CF63812A
:103E900074816230710511F45483438301967396E3
:103EA00034CF82E090E09983888385EF9FEFEFCE57
:103EB0000097B9F48FEFFB01808320919B02309132
:103EC0009C0243E1429FC001439F900D1124E09169
:103ED000F304F091F404E80FF91F8285FB0181835C
:103EE00008950C94F91488E090E0FA01918380839E
:103EF00090E080E008951092F2041092F104E3EF54
:103F0000F4E086E0DF011D928A95E9F784E09BE109
:103F10009093F0048093EF0408958091EF049091C2
:103F2000F00408952F923F924F925F926F927F928A
:103F30008F929F92AF92BF92CF92DF92EF92FF92B9
:103F40000F931F93CF93DF93CDB7DEB72F970FB6A5
:103F5000F894DEBF0FBECDBFF894E091F104F0916C
:103F6000F2043196F093F204E093F10478944090D7
:103F7000F3045090F4044114510409F40CC2E0918C
:103F8000F504F091F604EF2B09F405C22D8749875B
:103F90005A876B877C8798878F831201B12CA12C5D
:103FA00010E000E08091F5049091F604A816B9069F
:103FB00018F40115110529F1F8948091F1049091FC
:103FC000F20401979093F2048093F1047894C8016D
:103FD0002F960FB6F894DEBF0FBECDBFDF91CF9105
:103FE0001F910F91FF90EF90DF90CF90BF90AF9017
:103FF0009F908F907F906F905F904F903F902F9009
:1040000008957101E418F508D10117968C9117975E
:1040100081FD54C013968D919C911497039709F0DC
:104020004DC015968D919C91EF81F8858E179F0755
:1040300009F044C0B50190E080E07FD48A832091EC
:10404000F3043091F4043D832C833D85332309F43C
:104050004CC04C815D81452B09F49AC18091F504D7
:104060009091F604A816B90608F092C1C501D7D8F8
:104070008823E9F06C817D816E0D7F1D7D836C83CB
:10408000DB011F968D919C91892B89F0D12CC12C3D
:10409000F12CE12CAC81BD8112968C9112978E157A
:1040A0001F0409F094F450961C921E921F972A81C7
:1040B000222321F0B50190E080E041D43FEFA31A24
:1040C000B30A43E1240E311C6DCFAC81BD81ED916B
:1040D000FC91EC0DFD1D858196810FD7BFEFEB1A8A
:1040E000FB0AEDE0CE0ED11CD5CFEC81FD813097DF
:1040F00009F44EC18091F5049091F604A816B90612
:1041000008F046C1EE0DFF1DFF87EE87C50187D879
:104110008B83882339F1AE85BF851F968D919C9145
:104120005097019621E01D964D915C91841795075B
:1041300009F020E02E831982712C10E000E0AE859A
:10414000BF8512968C91781608F45DC0EE85FF85C8
:10415000878590890196658576850E94C939908BFF
:104160008787A5CFB1E0BE83E6CF992493946BC037
:104170008BD6F6019683858382C0D601ED90FC90A4
:10418000B7E06B9EE00CF11C1124F7016381748190
:1041900080818F3F61F121E030E002C0220F331FA8
:1041A0008A95E2F7C901092E000CAA0BBB0BFB0193
:1041B000408151816281738184239523A623B72393
:1041C00021E0892B8A2B8B2B09F420E0D4012C933E
:1041D000D70111968C91F60123853485820F932F98
:1041E000911D880E991E1486138663949BC041818D
:1041F00050E0C4010E94203AEBCF998206EF1FEFF6
:10420000C5C01982C3C0F981F111A0CFEDE07E9E37
:1042100070011124AE85BF85CD90DC90CE0CDF1CE3
:1042200015D49D838C83BB81BB2309F49ECF81E091
:10423000EE85FF8527853089232B09F080E0982EB5
:10424000882309F458C0672D8E859F850CD8D60128
:1042500018969C938E93179761E070E0C2D4EE8518
:10426000FF85218932892F3F320709F481CFBC01B4
:10427000C901CFD7D60116969C938E931597D60178
:1042800015968D919C911697009709F4B6CFEC8105
:10429000FD818E0F9F1F1A969C938E931997AE8562
:1042A000BF85ED91FC911197EE0EFF1EF701218560
:1042B0003285148613861A968C91870DD9018D93B9
:1042C000711016C0EE85FF85878184FF11C0498576
:1042D0005A856B857C85F90141835283638374839E
:1042E000F701838594850496A80FB91F1486138659
:1042F000F701B287A187D60115968D919C911697EB
:10430000892B09F443C0EE85FF8525813681809194
:104310009102909192022817390779F019968D90A1
:104320009C90612CD60112968C911297681608F415
:1043300024CF1A969C928E921997BE81BB2309F4C2
:1043400060CF61E070E0F601878190854AD4D601A4
:104350001796ED90FC90189715964D915C91E1E0C1
:10436000F0E0BA81BB2311F0F0E0E0E00C811D81A8
:104370009C01B501882799278E1B9F0B6AD38C015E
:10438000892B21F0F60185819681B7D57394D7CE1C
:104390000FEF1FEF8CCE10E000E00ECE2F923F9279
:1043A0004F925F926F927F928F929F92AF92BF9245
:1043B000CF92DF92EF92FF920F931F93CF93DF93F1
:1043C0008091F3049091F40410E000E0892BA9F0AF
:1043D000C7DA0AEF1FEF882381F02090F5043090B0
:1043E000F604C091F304D091F404D12CC12C10E058
:1043F00000E02C143D04A9F47894C801DF91CF911A
:104400001F910F91FF90EF90DF90CF90BF90AF90F2
:104410009F908F907F906F905F904F903F902F90E4
:104420000895C6010E940F19882309F18B819C8190
:104430000397E9F48F859889892BC9F0B60190E03C
:1044400080E07BD221E030E0882311F030E020E0F2
:1044500044245524421A530AB12CA12C912C812CAE
:104460008A818815190409F038F4188A1F864FEFDD
:10447000C41AD40A6396BDCFE881F981EA0DFB1D09
:1044800085819681892BA1F161E070E0878190851B
:10449000A8D33C01DBD28C01E881F981EA0DFB1D38
:1044A0008185928525813681200F311FAC01421B09
:1044B000530B9A0147815085421B530B70E060E01B
:1044C0000E94293AE881F981EA0DFB1DE780F0841A
:1044D000458156819301B601C201BBD28C01892B63
:1044E00039F0E881F981EA0DFB1D8581968105D5BA
:1044F0005FEF851A950A8DE0A80EB11CB1CF30CAC6
:10450000789408952F923F924F925F926F927F928C
:104510009F92AF92BF92CF92DF92EF92FF920F9352
:104520001F93CF93DF9300D000D0CDB7DEB70091BB
:10453000F3041091F404992493940115110509F4DE
:104540003EC0A090F504B090F6040ADA982E8823B5
:10455000B1F11092F4041092F3041092F604109248
:10456000F5041092F7041092F8048FEF9FEFDC012E
:1045700080939B0290939C02A0939D02B0939E0215
:1045800078947FD31E830D83C12CD12C7601C50175
:10459000B0E0A0E089839A83AB83BC8322242A9471
:1045A000322C89819A81AB81BC81C816D906EA0672
:1045B000FB06F4F0C801A1D480E40E945015892DB7
:1045C00026960FB6F894DEBF0FBECDBFDF91CF9118
:1045D0001F910F91FF90EF90DF90CF90BF90AF9021
:1045E0009F907F906F905F904F903F902F90089595
:1045F000AD81BE8115968D919C9116972091910267
:104600003091920282179307D1F451968D919C912B
:10461000EED5ED81FE8180819181B12CA12C412CC0
:10462000512C3201892B89F5BFEFCB1ADB0AEB0A3B
:10463000FB0AED81FE817396FE83ED83B2CFC11438
:10464000D104E104F10429F7029718F7ED81FE8106
:10465000818992898F3F980709F029D5AD81BE8164
:1046600052963C922E925197D4CF8A0D9B1DDC011D
:104670008D919C91009709F040D4BFEF4B1A5B0AD3
:104680006B0A7B0AEDE0AE0EB11CAD81BE818D914F
:104690009C91119712964C9150E070E060E04416A6
:1046A0005506660677060CF328D4BECFCF93DF936A
:1046B000EA0128DF811109C082E090E099838883B4
:1046C00085EF9FEFDF91CF91089581E090E00E9408
:1046D000421581E090E09983888390E080E0F2CFFA
:1046E00011DF1092F0041092EF04089542E050E0C0
:1046F0006CE573E00C946015FF920F931F93CF93BA
:10470000DF938A01EC01C60FD71FF980B9D2089751
:10471000F816190671F068F082E090E0F8019183D4
:1047200080838EEF9FEFDF91CF911F910F91FF90CC
:1047300008956C817D818E819F814B810E94F51748
:10474000811108C082E090E0F8019183808384EFBA
:104750009FEFE9CFF9800E94F0174F2D50E0BE0186
:10476000685F7F4F0E94203A89810E945F1881E034
:1047700090E0F8019183808390E080E0D4CFDF92D5
:10478000EF92FF920F931F93CF93DF938A01EC0177
:10479000C60FD71F0E94F0177C01D98071D2DD208F
:1047A00059F0029721E030E0D816190619F010F000
:1047B00030E020E0232B79F482E090E0F80191834F
:1047C00080838EEF9FEFDF91CF911F910F91FF902C
:1047D000EF90DF900895EF2841F482E090E0F80137
:1047E0009183808384EF9FEFEECFF9800E94F017D2
:1047F0004F2D50E0BE016E5F7F4F0E94203A8981AD
:104800000E945F1881E090E0F8019183808390E03E
:1048100080E0D9CF86E793E29093FA048093F9047D
:1048200008958091F9049091FA0408950895FC0187
:1048300011821082938382830895DB011D921C9262
:10484000DC011296ED91FC911397718360831396AE
:104850007C936E9312970895FC0180819181DB0116
:104860008D939C93A081B181109741F08D919C9183
:1048700091838083892B11F4F383E2830895FC01F3
:1048800080819181DB018D939C93892B11F473833B
:104890006283718360830895FC0111821082938387
:1048A00082830895CF93DF931F921F92CDB7DEB717
:1048B0001A821982F894BE016F5F7F4F80E095E005
:1048C000CBDF89819A81009709F017D389819A817A
:1048D000892B89F7BE016F5F7F4F84E095E0BCDFD5
:1048E00089819A81009709F008D389819A81892B5F
:1048F00089F778940F900F90DF91CF910895CF931F
:10490000DF931F921F92CDB7DEB71A821982F894F7
:10491000BE016F5F7F4F8CEF94E09EDF89819A81AB
:10492000009709F0EAD289819A81892B89F77894D6
:104930000F900F90DF91CF91089581E0089590E05E
:1049400080E00895EF92FF920F931F93CF93DF9330
:104950001F921F92CDB7DEB71A8219828091FB0495
:1049600007EF1FEF8823A1F1F894BE016F5F7F4F1F
:1049700084E095E071DF789489819A81EE24E39454
:10498000F12C892B51F4F894BE016F5F7F4F80E0CA
:1049900095E062DF7894F12CE12C89819A810EEF09
:1049A0001FEF0097A9F0FC014281538164E070E0A1
:1049B00076D68C01892B61F0F89469817A81C701E0
:1049C000880F991F880F991F80509B4F58DF78944C
:1049D000C8010F900F90DF91CF911F910F91FF9021
:1049E000EF9008950F931F93CF93DF9300D01F9202
:1049F000CDB7DEB71C821B821A8219828091FB041C
:104A000007EF1FEF8823C1F0AE014D5F5F4F64E0F9
:104A100070E0CE010196B6D68C01892B69F4E9814C
:104A2000FA818B819C8193838283F89469817A8156
:104A30008CEF94E002DF7894C8010F900F900F90F4
:104A40000F90DF91CF911F910F910895BBD70496DE
:104A500008958F929F92AF92BF92CF92DF92EF9282
:104A6000FF920F931F93CF93DF931F921F92CDB7A7
:104A7000DEB71A821982BC016F5F7F4F6330710508
:104A800098F0AA24AA94BA2CC5010F900F90DF9138
:104A9000CF911F910F91FF90EF90DF90CF90BF903B
:104AA000AF909F908F9008954115510551F34801A3
:104AB00059018A016C01CADF8815990511F7E114C3
:104AC000F104F9F28E0D9F1DA816B906D0F280915F
:104AD000FB048823F1F0F894B50164507109970143
:104AE000AE014F5F5F4FC8010496E1D65C01892B90
:104AF00071F489819A81F80193838283C601880FBA
:104B0000991F880F991FB80180509B4F96DE7894AB
:104B1000BBCF87EFA82EBB24BA94B6CFAF92BF927B
:104B2000CF92DF92EF92FF920F931F93CF93DF9379
:104B30001F921F92CDB7DEB71A821982892B09F016
:104B400047C06115710509F443C04115510509F4C9
:104B50003FC02115310509F43BC001151105C1F114
:104B60008091FB048823B9F179016A015B01F89413
:104B7000BE016F5F7F4F8CEF94E06EDE7894898189
:104B80009A81009759F1DC0112966D917C91A801F0
:104B90000496A6D68C01E981FA81D501ED93FC93A8
:104BA000828193810496F601918380834FDFD70140
:104BB0008D939C93C8010F900F90DF91CF911F911F
:104BC0000F91FF90EF90DF90CF90BF90AF9008953E
:104BD0000FEF1FEFEFCF07EF1FEFECCF0EEF1FEF41
:104BE000E9CFCF93DF93EC01672B71F4F4D68C17E8
:104BF0009D0760F0E7D62496C80FD91FE6D68C0F24
:104C00009D1FDF91CF910895E3D6F1CF90E080E032
:104C1000F8CF0F931F93CF93DF932091FB042111C3
:104C20002BC08B01EC0180E095E001DE84E095E093
:104C3000FEDD8CEF94E0FBDD97D00097C1F4CBD67E
:104C400070E060E0CEDF4FE952E062E070E081D1D9
:104C5000009769F480919F029091A002CED6B8018E
:104C6000CE0103D5009719F421E02093FB04DF91D6
:104C7000CF911F910F91089584EF9FEFF8CFA8C6B1
:104C8000AAC6CF93DF93AAD6EC01892B11F40ADED2
:104C900036DECE01DF91CF910895CF93DF939ED67C
:104CA000EC01892B09F4FEDDCE01DF91CF9108954F
:104CB00080919F029091A0020895CF93DF938091FD
:104CC000FB04D0E0C0E08823D1F09CD6EC01892B16
:104CD000B1F4E8DD14DE80919F029091A002E7D14B
:104CE000E8D2EC01892B59F480E095E0D5DD84E031
:104CF00095E0D2DD8CEF94E0CFDD1092FB04CE0185
:104D0000DF91CF910895EF92FF920F931F93CF936E
:104D1000DF93EC017A018B010F5F1F4F0E9DA00105
:104D20000F9D500D1E9D500D112470E060E00E94FB
:104D3000293A90E080E0F0E0E0E02FEFE816F90695
:104D400039F4DF91CF911F910F91FF90EF9008956B
:104D50001A8219822883309711F0D283C183019679
:104D6000FE01C00FD11FEACFCF92DF92EF92FF92E8
:104D70000F931F93CF93DF930DE916E00C7F43E071
:104D800050E061EA72E087EA92E01CD481EAE82E02
:104D900082E0F82E97EAC92E92E0D92EC4E3D7E03C
:104DA000D7014D915D917D01F601619171916F0186
:104DB000198308835D834C835B834A837F836E837F
:104DC0009B012F5F3F4F249FC001259F900D349F73
:104DD000900D1124998788870115110511F0C801DC
:104DE00092DF88859985080F191F2A96F7EAEF1632
:104DF000F2E0FF06A9F6EAE0F5E080E991E0DF01E4
:104E00009C011D9221503040E1F71092090510924B
:104E100008051092530710925207109257071092EC
:104E20005607109255071092540710925907109286
:104E3000580710925B0710925A0710925D07109264
:104E40005C07109261071092600710925F07109242
:104E50005E07109263071092620710926507109226
:104E600064071092310710923007109233071092A6
:104E7000320790E080E0DF91CF911F910F91FF907A
:104E8000EF90DF90CF9008950097F1F0F894A7EAA3
:104E9000B2E0E4E3F7E030E020E04D915D914817A7
:104EA0005907A8F0428153814115510581F08AE0EC
:104EB000829FF001839FF00D1124EC5CF84F8081FC
:104EC0009181009759F4789490E080E008952F5FE5
:104ED0003F4F3A962330310501F7F5CFDC011196AB
:104EE0006D917C917183608341505109538342835A
:104EF000FC012193CF0178940895009749F1DC01DA
:104F00008E91853041F4E0913207F091330730976C
:104F1000F9F0CD0119948530D8F4282F30E0F894B9
:104F20008FEF8C938AE0829FF001839FF00D112414
:104F3000EC5CF84F8081918112969C938E9311972F
:104F4000B183A08382819381019693838283789435
:104F50000895CF92DF92EF92FF920F931F93CF931A
:104F6000DF939C018DE095E08C7F4115510509F49C
:104F70009BC02115310509F497C06115710509F42D
:104F800093C07A01AB01B9016D5F7F4F6C7F9B01CC
:104F90002F5F3F4F249F8001259F100D349F100DE0
:104FA0001124F8942091520730915307232B59F480
:104FB00020915A0730915B072115310569F12017BF
:104FC000310708F058C020915C0730915D07232B12
:104FD00091F420915A0730915B07820F931F209123
:104FE0006407309165072115310509F441C0201788
:104FF000310708F056C07894CFEFDFEF86EF9FEFD0
:10500000F701D183C083DF91CF911F910F91FF9062
:10501000EF90DF90CF900895C3E0D0E0C0900805F6
:10502000D09009052DE831E02C193D0920173107F2
:1050300010F32AE02C9FF0012D9FF00D1124EC5C61
:10504000F84F9183808355834483538342837783CE
:10505000668311870087009709F055DE0C0D1D1D32
:105060001093090500930805789490E080E0C8CF7C
:10507000C4E0D0E0D3CFC3E0D0E02AE02C9FF00121
:105080002D9FF00D1124EC5CF84F918380835583A4
:1050900044835383428377836683009729F333DE07
:1050A000E3CFC4E0D0E0E9CF8FEF9FEFACCF9C011E
:1050B0000397029708F069C0F89484E09AE0482FBB
:1050C00050E0241735070CF44DC091E08AE0829F30
:1050D000F001839FF00D1124EC5CF84F11821082D7
:1050E0001582148213821282178216829923B1F1DB
:1050F0008091520790915307892BA9F420915A0768
:1051000030915B072115310571F080910805909170
:105110000905821B930B9093090580930805109253
:105120005B0710925A0780915C0790915D07892B6D
:10513000A9F420916407309165072115310571F0BC
:105140008091080590910905821B930B90930905A6
:10515000809308051092650710926407789490E098
:1051600080E00895949FF001959FF00D1124EC5C70
:10517000F84F40815181452B31F440855185452BB5
:1051800011F481509CCF90E0A1CF8FEF9FEF089555
:105190004115510549F1009739F16115710521F16A
:1051A000F8942091300730913107232BB9F42091E6
:1051B000320730913307232B89F490933107809382
:1051C00030077093330760933207789425E030E01E
:1051D00090E080E0FA0131832083089578942FEFE6
:1051E0003FEF86EF9FEFF6CF8FEF9FEF0895059784
:1051F00069F4F89410923107109230071092330737
:1052000010923207789490E080E008958FEF9FEF3E
:1052100008956115710519F4F0E0E0E011C08530E2
:10522000910581F4E0913007F09131073097A1F3B7
:10523000CB0101961995009779F3FC0185E08193E4
:10524000CF0108959C01235031092230310520F708
:105250002AE0289FD001299FB00D1124AC5CB84FE3
:105260002D913C911197232BB9F216962D913C91DB
:1052700017972617370780F2F89412962D913C91D4
:1052800013972115310529F0ED91FC911197309775
:1052900011F47894C1CF4181528111965C934E9361
:1052A0002150310913963C932E9312978193789451
:1052B000C7CFEAE9F6E086E9DF011D928A95E9F7B2
:1052C000EAE0F5E080E991E0DF019C011D922150C8
:1052D0003040E1F71092090510920805E4E3F7E089
:1052E00082E3DF011D928A95E9F7E0E3F7E084E0CD
:1052F000DF011D928A95E9F790E080E00895CF9351
:10530000DF93C091AD02D091AE02CF3FDC0759F4DC
:1053100023D49093AE028093AD0297FF09C0D0933F
:10532000AE02C093AD0284EF9FEFDF91CF9108955D
:1053300090E080E0FACF8230910528F480936607F0
:1053400090E080E008958FEF9FEF08954F925F9275
:105350006F927F92AF92BF92CF92DF92EF92FF92C5
:105360000F931F93CF93DF931F921F92CDB7DEB79A
:105370001A821982009709F479C06115710509F440
:1053800075C02091AD023091AE0207EF1FEF2F3FA5
:105390003F4F09F445C06B015C01412C512C320197
:1053A000F12CE12C10E000E09E012F5F3F4FA601A1
:1053B0004E195F09B5016E0D7F1D8091AD02909170
:1053C000AE022ED4892B09F04BC089819A810097B7
:1053D00041F4E114F10429F420916607222309F431
:1053E00042C0E80EF91EEC14FD04D0F480E8481623
:1053F00084E858068EE16806710420F560E070E0EC
:10540000CB010E94DE332AE0420E511C611C711C4C
:105410000A3F4FEF140721F0043F8FEF1807A1F464
:10542000C8010F900F90DF91CF911F910F91FF90C6
:10543000EF90DF90CF90BF90AF907F906F905F9094
:105440004F90089501EF1FEF81E090E0013F2FEFB3
:10545000120711F090E080E0892B09F4A5CFE0CF8E
:1054600004EF1FEFDDCF0AEF1FEFDACF0FEF1FEFD3
:10547000D7CF4F925F926F927F92AF92BF92CF92AF
:10548000DF92EF92FF920F931F93CF93DF931F92C0
:105490001F92CDB7DEB71A821982009709F479C03E
:1054A0006115710509F475C02091AD023091AE020D
:1054B00007EF1FEF2F3F3F4F09F445C06B015C0121
:1054C000412C512C3201F12CE12C10E000E09E0126
:1054D0002F5F3F4FA6014E195F09B5016E0D7F1D6D
:1054E0008091AD029091AE024ED3892B09F04BC052
:1054F00089819A81009741F4E114F10429F4209103
:105500006607222309F442C0E80EF91EEC14FD04DC
:10551000D0F480E4481682E458068FE068067104EF
:1055200020F560E070E0CB010E94DE332AE0420EFD
:10553000511C611C711C0E3F4FEF140721F0043FFA
:105540008FEF1807A1F4C8010F900F90DF91CF9152
:105550001F910F91FF90EF90DF90CF90BF90AF9091
:105560007F906F905F904F90089502EF1FEF81E062
:1055700090E0023F2FEF120711F090E080E0892BBE
:1055800009F4A5CFE0CF04EF1FEFDDCF0EEF1FEF43
:10559000DACF0FEF1FEFD7CF8091AD029091AE021F
:1055A0008F3F980749F0D0D2892B49F48FEF9FEFB6
:1055B0009093AE028093AD0290E080E0089584EF76
:1055C0009FEF0895CF92DF92EF92FF920F931F9378
:1055D000CF93DF9321E04115510509F020E04150C0
:1055E000510921112CC0DC01FB01D12CC12C21E07F
:1055F00022C03FEFC31AD30A7D010D911D91E7012F
:10560000EA80FB80E016F106A8F420813181E28077
:10561000F380F182E08233832283ED90FC90119736
:105620009D0122503109E901F982E88211961C930B
:105630000E9320E03296C416D506D8F2D2CFDF9171
:10564000CF911F910F91FF90EF90DF90CF90089531
:10565000FC01680F791F90E080E0E617F70709F476
:1056600008952191820F911DF8CF20916707211194
:1056700013C045DE009791F410926D0710926C07ED
:1056800010926B0710926A071092690710926807D0
:1056900021E020936707089584EF9FEF0895AF926C
:1056A000BF92CF92DF92EF92FF920F931F93CF930F
:1056B000DF93009709F460C04630510508F45CC0E0
:1056C00020916707C7EFDFEF222309F449C08C015F
:1056D000060F171FF801C080D180C114D10409F44E
:1056E0004EC096012A5F3F4F4217530708F447C048
:1056F0007C0180916C0790916D0793838283B60142
:105700006C5F7F4F5801A60EB71EC801A1DFF501DF
:105710009183808364E070E0C80118DEEC01892B7E
:10572000F9F481E090E007DEB601C80104960EDED0
:10573000EC01892B91F462E070E0C50107DEEC0119
:10574000892B59F4C701D9DB80916C0790916D07C3
:10575000019690936D0780936C0790E080E0EBDDFD
:10576000CE01DF91CF911F910F91FF90EF90DF90CD
:10577000CF90BF90AF900895CFEFDFEFF1CFC9EF9B
:10578000DFEFEECF6F927F928F929F92AF92BF9298
:10579000CF92DF92EF92FF920F931F93CF93DF93FD
:1057A00000D01F92CDB7DEB7009709F47AC041153B
:1057B000510509F476C02091670707EF1FEF2223F8
:1057C00009F44DC03A017B015C0164E070E0CE0158
:1057D00001964FDE8C01892B09F041C009811A81A5
:1057E0000115110509F45AC0480186E0880E911C84
:1057F000B701680D791D8091AF029091B00209DD6B
:105800006C01009709F450C0A70170E060E00E94AD
:10581000293A89819A81AB81BC81EC0CFD1CF7018E
:1058200081939193A193B1937F0181E090E083DD17
:10583000B801C7011EDE892B31F562E070E0C701B7
:10584000800F911F16DE8C01892BE9F490E080E037
:1058500072DDF501D182C082F30191828082C8019C
:105860000F900F900F900F90DF91CF911F910F919C
:10587000FF90EF90DF90CF90BF90AF909F908F9070
:105880007F906F90089590E080E055DDF5011182E2
:105890001082F30111821082C6012FDB09EF1FEF86
:1058A000DECF0FEF1FEFDBCF06EF1FEFD8CF009754
:1058B000A1F04115510589F02115310571F0F9016B
:1058C00036966E177F0748F0DC012D933C93DA0182
:1058D000ED93FC9390E080E008958FEF9FEF0895A3
:1058E000AF92BF92CF92DF92EF92FF920F931F93EE
:1058F000CF93DF93009709F45FC04115510509F478
:105900005BC06530710508F457C020916707C7EF89
:10591000DFEF222391F1DC01CD90DC9011971296FC
:10592000ED91FC9196012A5F3F4FC9EFDFEF2617FB
:10593000370719F5C0916807D0916907209749F595
:1059400021E030E030936907209368077A018C01E9
:10595000F0936B07E0936A075601B4E0AB0EB11CFD
:10596000B50176DE0A0D1B1DF801208131818217F9
:10597000930729F5D701CD92DC92CE01DF91CF912B
:105980001F910F91FF90EF90DF90CF90BF90AF905D
:10599000089520916A0730916B072F5F3F4FCCEF3E
:1059A000DFEFE217F30790F2CBEFDFEF2E173F07A1
:1059B00068F2D0E0C0E0CACFCFEFDFEFDECFC3EFB9
:1059C000DFEFDBCF84E090E0089582E090E008957F
:1059D0008CEF9FEF089580E290E0089510926D079C
:1059E00010926C0710926B0710926A071092690769
:1059F0001092680790E080E008959093B002809341
:105A0000AF02089580916707882391F0C5DD009764
:105A100089F410926D0710926C0710926B07109228
:105A20006A07109269071092680710926707089535
:105A300090E080E00895009749F06115710531F01C
:105A4000FC0111821082FB01118210820895F3CFB4
:105A500026E030E040E855E260E070E090E080E071
:105A600000C08130910571F01CF4892B39F0089544
:105A70008230910551F0039759F008958BE797E034
:105A80000C940B3788E198E0FBCF85EB98E0F8CFDA
:105A900082E599E0F5CF1F920F920FB60F92112475
:105AA0000BB60F922F933F934F935F936F937F9318
:105AB0008F939F93AF93BF93EF93FF9386E09FEFF6
:105AC0009093250180932401BFD0FF91EF91BF9166
:105AD000AF919F918F917F916F915F914F913F9186
