:1000000005C100000C9471320C949C320C94C732E0
:100010000C94F2320C941D330C9448330C947333CB
:100020000C949E3324C1000022C1000020C10000B6
:100030001EC100001CC100001AC1000018C1000050
:1000400016C1000014C1000012C1000010C1000060
:100050000EC100000CC100000AC100000C94C9339D
:1000600006C100000C94C5370C94FB3700C100009A
:10007000FEC00000FCC00000FAC00000F8C0000094
:10008000F6C00000F4C00000F2C00000F0C00000A4
:100090000C9451380C948738EAC00000E8C0000086
:1000A000E6C00000E4C00000E2C00000E0C00000C4
:1000B000DEC00000DCC00000DAC00000D8C00000D4
:1000C000D6C00000D4C000000C94A52D0C94DD38DF
:1000D0000C941339CCC000000C9469390C949F39EE
:1000E000C6C0000000000A0B02090C0D0E08070331
:1000F00004010000000000000000000000000000FB
:1001000000000000000000000000000000000000EF
:1001100012111000000000000000000000000000AC
:100120000000000000000000000001021020200874
:100130000810204010204080020102010804020142
:1001400001020408102040808040201008040201B1
:10015000800402018040201008040201080402010A
:100160000102040810204080010204081020408091
:1001700005050505070508080808020202020A0A23
:100180000808040404040101010101010101030341
:10019000030303030303040707070C0C0C0C0C0CEC
:1001A0000C0C0202020206060606060606060B0BE9
:1001B0000B0B0B0B0B0B000020002300260029006B
:1001C0002C002F003200000100000301060109018C
:1001D00000002200250028002B002E0031003400F2
:1001E00002010000050108010B01000021002400AC
:1001F00027002A002D003000330001010000040117
:1002000007010A012438B0383C39C83911241FBE0F
:10021000CFEFD1E2DEBFCDBF00E00CBF13E0A0E026
:10022000B2E0E8E1F5E700E00BBF02C007900D92F5
:10023000AE37B107D9F72AE0AEE7B3E001C01D92AF
:10024000AD3AB207E1F711E0C6E0D1E000E006C048
:1002500021970109802FFE010E94593AC230D1072F
:1002600080E00807A9F70E94972E0C948A3AC8CE1E
:10027000611102C00C940A366130E1F362E0FACFFA
:10028000662319F061E00C94463660E0FCCFCF9213
:10029000DF92EF92FF92CF93882351F16A017B01A5
:1002A000CFEFC80F20E030E0A901CB01B6010E94DA
:1002B0009F2F18168CF0C701B60190580E9410307D
:1002C0009B01AC016C2F70E090E080E0CF91FF903B
:1002D000EF90DF90CF90B2C0C701B6010E940B3003
:1002E0008C2FCF91FF90EF90DF90CF900C94D03473
:1002F000CF91FF90EF90DF90CF9008950F931F93D1
:100300008B019C0183E036952795179507958A9573
:10031000D1F702581C4F462F477021E030E0F90119
:1003200002C0EE0FFF1F4A95E2F7AF01F8012081EE
:100330002423CB010196211102C090E080E01F919F
:100340000F9108950F931F938B019C0183E03695C5
:100350002795179507958A95D1F7677081E090E00A
:1003600001C0880F6A95EAF7F801E258FC4F208136
:10037000452B31F48095822380831F910F9108953E
:10038000822BFACF2F923F924F925F926F927F9281
:100390008F929F92AF92BF92CF92DF92EF92FF9295
:1003A0000F931F93CF93DF93D62EC72E782E692EEF
:1003B00049015A01280161E08D2D0E940A36CD2D98
:1003C000DC2D8E010F5F1F4FA8016D2D7C2D872D19
:1003D000962DB8DF20E030E0A901C201B7010E94EC
:1003E0008F31181664F4C201B7010E9410302B013E
:1003F000C501B4010E941030A201CE0123D0C80172
:10040000DF91CF911F910F91FF90EF90DF90CF90F0
:10041000BF90AF909F908F907F906F905F904F9024
:100420003F902F900895882341F08150682F70E00D
:1004300090E080E050E040E085CF0895862FB9013C
:100440000C94D0349C01FC01EC51FF4FE491E1503D
:10045000E231E0F4F0E08827EF5CFD4F8F4F0C9421
:10046000593A43024A024D026402790246028E0260
:100470009A029E02B502CA02DF02F6020B0346028E
:10048000200337034C0384B5806884BD60E0822F6D
:100490000C94463684B58062F8CF809180008C7FC2
:1004A00082608093800080918100807E8061682BD3
:1004B0006093810050938700409386008091800074
:1004C000806880938000E2CF809180008C7F826082
:1004D0008093800080918100807E8061682B609392
:1004E0008100509387004093860080918000806255
:1004F000E8CF809180008C7F826080938000809123
:100500008100807E8061682B60938100509387001A
:1005100040938600809180008860D3CF8091B000A6
:1005200080688093B0008091B100887F682B6093D1
:10053000B100ACCF8091B0008062F3CF8091900089
:100540008C7F82608093900080919100807E80619A
:10055000682B609391005093970040939600809190
:10056000900080688093900091CF809190008C7F64
:1005700082608093900080919100807E8061682BE2
:100580006093910050939700409396008091900063
:100590008062E8CF809190008C7F82608093900091
:1005A00080919100807E8061682B609391005093D0
:1005B000970040939600809190008860D3CF8091FF
:1005C000A0008C7F82608093A0008091A100807E3B
:1005D0008061682B6093A1005093A7004093A60010
:1005E0008091A00080688093A00050CF8091A000EF
:1005F0008C7F82608093A0008091A100807E8061CA
:10060000682B6093A1005093A7004093A6008091AF
:10061000A0008062E8CF8091A0008C7F82608093F0
:10062000A0008091A100807E8061682B6093A10072
:100630005093A7004093A6008091A0008860D3CF7C
:10064000809120018C7F8260809320018091210124
:10065000807E8061682B6093210150932701409335
:100660002601809120018068809320010FCF809126
:1006700020018C7F82608093200180912101807E07
:100680008061682B609321015093270140932601DC
:10069000809120018062E8CF809120018C7F826070
:1006A0008093200180912101807E8061682B60937E
:1006B00021015093270140932601809120018860F9
:1006C000D3CFCF93DF93EC0170E060E06C177D0730
:1006D0000CF5072E000C880B990B0E943E3020E091
:1006E00030E0A9010E94282F20E030E0A9010E94FB
:1006F000282F20E030E040E450E40E94282F20E042
:1007000030E040E450E40E94272F0E940B306F5FDE
:100710007F4FDCCFDF91CF910895CF93DF9380910E
:100720009703909198030E947336EC0180919D038A
:1007300090919E03C6DF8091990390919A030E9445
:100740007336019771F480919B0390919C032197DC
:1007500071F4019690939C0380939B03DF91CF915A
:10076000089580919B0390919C03CD2B91F3019769
:10077000F1CFCF93DF9380918F03909190030E94EC
:100780007336EC0180919503909196039ADF8091E6
:100790009103909192030E947336019771F48091B6
:1007A000930390919403219771F40196909394038D
:1007B00080939303DF91CF9108958091930390915B
:1007C0009403CD2B91F30197F1CFCF93DF938091D9
:1007D0008703909188030E947336EC0180918D030A
:1007E00090918E036EDF8091890390918A030E941D
:1007F0007336019771F480918B0390918C0321974C
:1008000071F4019690938C0380938B03DF91CF91C9
:10081000089580918B0390918C03CD2B91F30197D8
:10082000F1CFCF93DF9380919103909192030E9437
:100830007336EC01809195039091960342DF80918D
:100840008F03909190030E947336019771F4809109
:10085000930390919403CD2B71F40196909394039C
:1008600080939303DF91CF910895809193039091AA
:100870009403219791F30197F1CFCF93DF93809168
:10088000890390918A030E947336EC0180918D0355
:1008900090918E0316DF80918703909188030E94C8
:1008A0007336019771F480918B0390918C03CD2B5B
:1008B00071F4019690938C0380938B03DF91CF9119
:1008C000089580918B0390918C03219791F3019768
:1008D000F1CFCF93DF938091990390919A030E9477
:1008E0007336EC0180919D0390919E03EADE809126
:1008F0009703909198030E947336019771F4809149
:100900009B0390919C03CD2B71F4019690939C03D3
:1009100080939B03DF91CF91089580919B039091E9
:100920009C03219791F30197F1CF0F931F93CF93DE
:10093000DF938C01EC0183E0CC0FDD1F8A95E1F79A
:10094000C957DC4F798368835B834A8388819981A7
:1009500060E00E940A368A819B8160E00E940A362C
:100960008881998161E00E9446368A819B8161E09D
:100970000E94463601301105D9F10230110509F403
:1009800066C0012B09F092C0809187039091880383
:1009900002978431910530F58B539D4FFC01808186
:1009A000082E000C990B41E050E06DE374E00E94CA
:1009B000F7318091890390918A03029784319105E0
:1009C000A0F48B539D4FFC018081082E000C990BE5
:1009D00041E050E065EE73E0DF91CF911F910F9100
:1009E0000C94F7318FEF9FEFDECF8FEF9FEFF0CFBB
:1009F00080918F039091900302978431910508F5BF
:100A00008B539D4FFC018081082E000C990B41E017
:100A100050E061E174E00E94F73180919103909180
:100A2000920302978431910578F48B539D4FFC011A
:100A30008081082E000C990B41E050E069EB73E0D7
:100A4000CBCF8FEF9FEFE3CF8FEF9FEFF5CF80916D
:100A500097039091980302978431910508F58B5381
:100A60009D4FFC018081082E000C990B41E050E065
:100A700069E674E00E94F7318091990390919A039E
:100A800002978431910578F48B539D4FFC0180814E
:100A9000082E000C990B41E050E06DE873E09CCF0C
:100AA0008FEF9FEFE3CF8FEF9FEFF5CFDF91CF91E8
:100AB0001F910F91089523E0880F991F2A95E1F760
:100AC000FC01E957FC4F84819581089590E080E016
:100AD00008950F931F93009709F489C0611571055C
:100AE00009F485C000918C0210918D0220918E0234
:100AF00030918F020E3F1F4F2F4F3F4F09F068C0BC
:100B00004FEF5FEFBA0140938C0250938D026093D8
:100B10008E0270938F0240918C0250918D026091F1
:100B20008E0270918F02DC011296ED91FC91808112
:100B30009181A281B3818093A9049093AA04A09388
:100B4000AB04B093AC0484819581A681B781809376
:100B5000A5049093A604A093A704B093A80480854D
:100B60009185A285B3858093A1049093A204A0935C
:100B7000A304B093A40484859585A685B785809346
:100B80009D0490939E04A0939F04B093A0041092A0
:100B9000990410929A0410929B0410929C040E9453
:100BA00089118EEA91E19093A00380939F03909323
:100BB000A2038093A1030E947810009731F421E0F2
:100BC00030E03093AE042093AD041F910F9108954F
:100BD00000918C0210918D0220918E0230918F0233
:100BE000DB010D931D932D933C93139794CF8FEFBF
:100BF0009FEFEBCF8F929F92AF92BF92CF92DF92F7
:100C0000EF92FF921F93CF93DF934B015C01109102
:100C1000B00482E090E09093AE048093AD04811420
:100C20009104A104B10441F48091B004811104C085
:100C30008091AF04C1E08111C0E0C12CD12C7601BC
:100C40008091B004811106C08091AF04811102C06F
:100C5000CC23D9F083E090E09093AE048093AD0470
:100C6000CC2381F1CCE9DFEF111102C00E941315F2
:100C7000CE01DF91CF911F91FF90EF90DF90CF9049
:100C8000BF90AF909F908F9008956AE070E080E0F1
:100C900090E00E94383480E1C80E87E2D81EE11C43
:100CA000F11C8FEF88169806A806B80631F0C1E04F
:100CB0008C149D04AE04BF0408F0C0E080E00E94E4
:100CC000AC10BECFD0E0C0E0CFCFCF92DF92EF929A
:100CD000FF920F931F93CF93DF938F3F910511F0F6
:100CE00008F051C02091AD043091AE04233031059D
:100CF00039F02091AD043091AE042130310531F44A
:100D000024E030E03093AE042093AD046A017B010F
:100D1000EC0182309105A8F011E0AE01C701B601E7
:100D20000E947710AB01BC01CE011123F9F0DF91D5
:100D3000CF911F910F91FF90EF90DF90CF900C9487
:100D40003C178C01000F111F01561C4FD8018D91CB
:100D50009C91892B09F30E9446170297E9F6D80166
:100D6000ED91FC91CE011995182FD7CF0E945E17F7
:100D700090E080E0DF91CF911F910F91FF90EF9075
:100D8000DF90CF9008958FEF9FEFF4CF80E00C9429
:100D9000AC10CF93DF9386E090E09093AE04809305
:100DA000AD040E940511EC01EFE9F3E084E0DF01FE
:100DB0001D928A95E9F70E94AB141092AE0410922E
:100DC000AD04CE01DF91CF9108958091AF040895D5
:100DD00080919804089560938C0270938D028093A3
:100DE0008E0290938F0290E080E008954F925F9280
:100DF0006F927F928F929F92AF92BF92CF92DF922B
:100E0000EF92FF92CF93DF9300D01F92CDB7DEB762
:100E10004B015C0169017A010E94740F8823E9F09B
:100E200080909F0A9090A00AA090A10AB090A20A78
:100E3000C501B4010F900F900F900F90DF91CF91EB
:100E4000FF90EF90DF90CF90BF90AF909F908F90EA
:100E50007F906F905F904F900895C701B6010E94F8
:100E6000740F8111DDCFC501B401F9D78111D8CF3D
:100E7000C701B601F4D78111DBCF20E030E0A90132
:100E8000C701B6010E949F2F87FF4CC0C701B60162
:100E90000E948C2F2B013C01A3019201C701B601D6
:100EA0000E949F2F882309F44CC0A7019601C50119
:100EB000B4010E94A32F2B013C01E89477F820E0B5
:100EC00030E040E05FE3C301B2010E94282F0E949E
:100ED00079309B01AC01C301B2010E94272F9B0115
:100EE000AC015F7729833A834B835C8320E030E059
:100EF00040E054E3C301B2010E9493319B01AC0175
:100F000069817A818B819C810E948F311816CCF087
:100F100020E030E0A901C501B4010E9493314B01EA
:100F20005C0186CFC701B6010E9479302B013C01DC
:100F300020E030E0A901C701B6010E949F2F811176
:100F4000ABCFA7019601C501B4010F900F900F9090
:100F50000F90DF91CF91FF90EF90DF90CF90BF90F7
:100F6000AF909F908F907F906F905F904F900C9478
:100F70009330CF92DF92EF92FF926B017C019F77CB
:100F800020E030E040E859E50E949F2F87FF2BC00A
:100F900020E030E040E05FE3C701B6010E948F31FE
:100FA00087FD0EC020E030E040E05FE3C701B601FE
:100FB0000E94282FFF90EF90DF90CF900C94793013
:100FC00020E030E040E05FEBC701B6010E948F31C6
:100FD000181684F420E030E0A901C701B6010E9490
:100FE00093316B017C01C701B601FF90EF90DF9058
:100FF000CF90089520E030E040E05FE3C701B60104
:101000000E94272FFF90EF90DF90CF900C948C2FB1
:101010004F925F926F927F928F929F92AF92BF9208
:10102000CF92DF92EF92FF920F931F93CF93DF93B4
:1010300000D000D01F92CDB7DEB7C0901802D0907C
:101040001902E0901A02F0901B02A701960160912C
:101050003D0A70913E0A80913F0A9091400A0E9499
:101060009F2F882341F0C0923D0AD0923E0AE09221
:101070003F0AF092400A90E080E01DDDBC01990F2C
:10108000880B990B0E943E3020914C0230914D020A
:1010900040914E0250914F020E9493312091500294
:1010A0003091510240915202509153020E9493316B
:1010B0006093130A7093140A8093150A9093160A8A
:1010C000209154023091550240915602509157029E
:1010D0000E94282F6B017C01C092170AD092180A37
:1010E000E092190AF0921A0A20915802309159029E
:1010F00040915A0250915B020E948F3187FDF8C0E7
:101100008090340290903502A0903602B090370261
:10111000209138023091390240913A0250913B02BD
:10112000C701B6010E94282FA50194015FDE9B0133
:10113000AC0160913C0270913D0280913E02909121
:101140003F020E94282F60931B0A70931C0A809311
:101150001D0A90931E0AC0901402D0901502E090D0
:101160001602F0901702A70196016091470A70914C
:10117000480A8091490A90914A0A0E949F2F882329
:1011800041F0C092470AD092480AE092490AF09290
:101190004A0A81E090E08FDCBC01990F880B990B23
:1011A0000E943E3020915C0230915D0240915E02CF
:1011B00050915F020E94933160931F0A7093200A3E
:1011C0008093210A9093220A20916002309161025B
:1011D00040916202509163020E9493316B017C0145
:1011E000C092230AD092240AE092250AF092260A9D
:1011F000C092270AD092280AE092290AF0922A0A7D
:10120000209164023091650240916602509167021C
:101210000E948F3118160CF08DC080901C029090A7
:101220001D02A0901E02B0901F022091200230915A
:1012300021024091220250912302C701B6010E946F
:10124000282FA5019401D2DD9B01AC0160912402FD
:101250007091250280912602909127020E94282FEA
:1012600060932B0A70932C0A80932D0A90932E0A78
:10127000E0917204F0917304C080D180E280F38029
:101280008090630A9090640AA090650AB090660A04
:1012900020916B0A298330916C0A3D8310916D0A6D
:1012A00000916E0AA7019601B401C5010E948F3119
:1012B00029813D81412F502F87FD5EC0C701B601B6
:1012C0000E949F2F18160CF0CDC029813D81412F1F
:1012D000502FB401C5010E949F2F87FD53C020915C
:1012E0006F0A3091700A4091710A5091720A61C080
:1012F0008090400290904102A0904202B090430240
:10130000209144023091450240914602509147029B
:10131000C701B6010E94282FA501940167DD9B013A
:10132000AC01609148027091490280914A0290910B
:101330004B0207CF8090280290902902A0902A02A9
:10134000B0902B0220912C0230912D0240912E0260
:1013500050912F02C701B6010E94282FA5019401C8
:1013600045DD9B01AC0160913002709131028091AA
:1013700032029091330272CFB401C5010E949F2FB7
:1013800087FF0BC029813D81412F502FC701B60136
:101390000E948F3118160CF4A2CF2091670A309169
:1013A000680A4091690A50916A0A89829D821A2DC1
:1013B0000B2D6091230A7091240A8091250A909147
:1013C000260A0E94272F4B015C0129813D81412F74
:1013D000502FC701B6010E94272F9B01AC01C50108
:1013E000B4010E94A32F69837A838B839C838091AD
:1013F000730A8F839091740A9D831091750A0091EE
:10140000760AB0907B0AA0907C0A90907D0A80902A
:101410007E0AA7019601BC01812F902F0E948F3177
:101420002B2D3A2D492D582D87FD21C0C701B6011E
:101430000E949F2F18160CF03EC22B2D3A2D492DDD
:10144000582D6F817D81812F902F0E949F2F87FDC6
:1014500016C040907F0A5090800A6090810A709078
:10146000820A22C019821A821B821C82C0CF6F811D
:101470007D81812F902F0E949F2F87FF0AC02B2DE7
:101480003A2D492D582DC701B6010E948F311816EB
:1014900004F34090770A5090780A6090790A70902F
:1014A0007A0ABF80AD8048012B2D3A2D492D582D49
:1014B000C701B6010E94272F6B017C01A301920195
:1014C0006091130A7091140A8091150A9091160A7E
:1014D0000E94272FA70196010E94A32F6B017C0178
:1014E00080901B0A90901C0AA0901D0AB0901E0AC2
:1014F000C501B4019F7720916C0230916D0240913B
:101500006E0250916F020E948F3118160CF0D7C1F5
:101510008091680290916902A0916A02B0916B0279
:1015200080932F0A9093300AA093310AB093320A25
:1015300020912F0A3091300A4091310A5091320A9D
:1015400060917002709171028091720290917302A9
:101550000E9493318B018D839983C0907402D09047
:101560007502E0907602F09077029B01AC01C70112
:10157000B6010E949F2F87FD14C0C0907802D090C2
:101580007902E0907A02F0907B0298014D815981B6
:10159000C701B6010E948F3118161CF06801ED805A
:1015A000F980C701B601A0D4882309F4EFC1809067
:1015B0009F0A9090A00AA090A10AB090A20AA5014B
:1015C00094016091840270918502809186029091CD
:1015D00087020E949F2F18160CF4FBC160917C02B9
:1015E00070917D0280917E0290917F02C2DC2B017E
:1015F0003C0120E030E040E853E40E949F2F6FEF71
:1016000087FF0EC020E030E0A901C301B2010E94B3
:101610008F3160E087FD04C0C301B2010E94103029
:1016200087E00E944001A5019401609188027091B9
:10163000890280918A0290918B020E949F2F181636
:101640000CF4D0C16091800270918102809182027D
:10165000909183028EDC4B015C0120E030E040E899
:1016600053E40E949F2F6FEF87FF0EC020E030E011
:10167000A901C501B4010E948F3160E087FD04C05B
:10168000C501B4010E94103088E00E944001E89436
:10169000F7F8C092330AD092340AE092350AF092F9
:1016A000360A66E070E080E090E00E947E019A8356
:1016B00089839093620A8093610AC090330AD09024
:1016C000340AE090350AF090360A20E030E04FE727
:1016D00053E4C701B6010E949F2F18160CF48BC16A
:1016E00020E030E0A901C701B6010E948F3187FDDB
:1016F00089C1B701A60189819A810E944701809121
:10170000630A9091640AA091650AB091660A898380
:101710009A83AB83BC83C0909B0AD0909C0AE090D4
:101720009D0AF0909E0AA7019601BC01CD010E947E
:101730009F2FA0917204B0917304BE83AD83811179
:1017400065C18D919D910D90BC91A02D8093630AF0
:101750009093640AA093650AB093660AE7E6FAE0FC
:101760008091230A9091240AA091250AB091260A1B
:1017700080839183A283B3838091730A9091740ACA
:10178000A091750AB091760A89839A83AB83BC8352
:101790009C01AD01C701B6010E949F2FAD81BE81A2
:1017A0008D909D90AD90BC90811164C18092730A20
:1017B0009092740AA092750AB092760AE7E7FAE06E
:1017C0008091130A9091140AA091150AB091160AFB
:1017D00080839183A283B38340915F04509160041E
:1017E000609161047091620490E080E06EDA409153
:1017F0006704509168046091690470916A0481E003
:1018000090E063DA60915F047091600480916104FC
:10181000909162046F5F7F4F8F4F9F4F60935F0483
:10182000709360048093610490936204E091720469
:10183000F0917304FA83E9830E943C309B01AC0170
:1018400060916304709164048091650490916604D2
:101850000E949331A981BA816D937D938D939C935E
:1018600013978091670490916804A0916904B091E6
:101870006A040196A11DB11D8093670490936804CA
:10188000A0936904B0936A0427960FB6F894DEBF5C
:101890000FBECDBFDF91CF911F910F91FF90EF90C1
:1018A000DF90CF90BF90AF909F908F907F906F9080
:1018B0005F904F900895C12CD12C760111CE60918C
:1018C00000027091010280910202909103029058EF
:1018D00020912B0A30912C0A40912D0A50912E0A0A
:1018E0000E9493312B013C0160910402709105022A
:1018F00080910602909107029058A50194010E94E0
:1019000093319B01AC01C301B2010E94282F4B010E
:101910005C01609108027091090280910A02909125
:101920000B02905829813A814B815C810E9493314E
:101930009B01AC01C501B4010E94282F4B015C0141
:1019400060910C0270910D0280910E0290910F0235
:101950009058A70196010E9493319B01AC01C501EB
:10196000B4010E94282F2091100230911102409161
:101970001202509113020E94933160932F0A7093C8
:10198000300A8093310A9093320AD2CD20E030E0C1
:10199000A901C701B6010E949F2F812C912C90E8CC
:1019A000A92E9FEBB92E87FD0ACE20E030E0A901D9
:1019B000C701B6010E948F31812C912C20E8A22E04
:1019C0002FE3B22E18160CF4FACD812C912C540171
:1019D000F6CD609180027091810280918202909197
:1019E000830204CE60917C0270917D0280917E0220
:1019F00090917F022FCEC12CD12C8FE7E82E83E46B
:101A0000F82E77CEC12CD12C760173CE40906B0A84
:101A100050906C0A60906D0A70906E0AED81FE81A4
:101A200080809180A280B380A3019201C701B6019A
:101A30000E949F2F81110BC080926B0A90926C0ABA
:101A4000A0926D0AB0926E0AEFE6FAE089CEA30189
:101A5000920169817A818B819C810E949F2F87FFEF
:101A6000EBCF8092630A9092640AA092650AB092CA
:101A7000660A74CE40907B0A50907C0A60907D0A82
:101A800070907E0AA3019201C701B6010E949F2FA8
:101A900081110BC080927B0A90927C0AA0927D0AF1
:101AA000B0927E0AEFE7FAE08BCEA3019201698142
:101AB0007A818B819C810E949F2F87FFEBCF76CE0E
:101AC0008F929F92AF92BF92DF92EF92FF920F930D
:101AD0001F93CF93DF9384E090E08AD1E5ECF3E0AD
:101AE0008FE694E097838683C2E7D4E0D093060420
:101AF000C093050403E614E0158B048BF0933004C7
:101B0000E0932F04F583E48321E030E0DC012D93A2
:101B10003C9389ED92E09387828724E734E0398310
:101B2000288340E050E060E87FEB40936B045093E3
:101B30006C0460936D0470936E044FE652E163E8A9
:101B40007AE3D8014D935D936D937C931397CDE425
:101B5000D4E083E89EEBACEABDE988839983AA834D
:101B6000BB8388E991EEACEFB4E18093510490938C
:101B70005204A0935304B09354048BE993E6ACE36E
:101B8000B8EF8093550490935604A0935704B093F4
:101B900058048CE493E5ACE6B7E88093590490933D
:101BA0005A04A0935B04B0935C04A9EBB3E0B38345
:101BB000A283E3EAF3E01196FC93EE938BEE92E0BE
:101BC00091838083938382839583848397838683A1
:101BD0009187808793878287958784879787868771
:101BE000918B808B938B828B958B848B8DE594E08E
:101BF00015969C938E9314971396DC93CE9312971D
:101C000017963C932E93169780919B0A90919C0A6D
:101C1000A0919D0AB0919E0AC7E3DAE08CA79DA728
:101C2000AEA7BFA78CAB9DABAEABBFAB8CAF9DAF30
:101C3000AEAFBFAF80937B0A90937C0AA0937D0ADE
:101C4000B0937E0A188200E012E0F801808D918D39
:101C5000A28DB38D8E839F83A887B987812C912C09
:101C60005401839489829A82AB82BC8243E050E023
:101C700062E070E090E080E00E949504DD24D3945F
:101C8000DD821A86F80184899589A689B789888BAF
:101C9000998BAA8BBB8B8B869C86AD86BE8643E1D7
:101CA00050E062E170E081E090E00E949504DF8600
:101CB0001C8E8D8E9E8EAF8EB8A261E087E00E9452
:101CC0003801D9A21C8A8D8A9E8AAF8AB88E61E0BB
:101CD00088E00E943801D98E1CA28DA29EA2AFA2DC
:101CE000B8A6E12CF12C8701A801970166E070E00D
:101CF00080E090E00E94C2019BA78AA7D9A6DF914D
:101D0000CF911F910F91FF90EF90DF90BF90AF9018
:101D10009F908F9008958091370A811103C081E0D0
:101D20008093370A8091410A811103C081E080933A
:101D3000410A8091530A811103C081E08093530AC4
:101D400080914B0A811103C081E080934B0A8091FE
:101D50005B0A81112EC081E080935B0A80915C0A4E
:101D600090915D0AA0915E0AB0915F0A0197A1056A
:101D7000B105F9F48091600A8823D9F066E070E03B
:101D800080E090E00E947E019093620A8093610A55
:101D900040E050E0BA010E94470166E070E080E058
:101DA00090E00E947E019093620A8093610A0C94F5
:101DB0001302089560E070E080E89FE7089560E016
:101DC00070E080E89FE7089560E070E080E89FEFB2
:101DD000089560E070E080E89FEF089560E070E0B3
:101DE00080EC9FEF089560E070E080EC9FEF089535
:101DF000F5DF60939F0A7093A00A8093A10A9093E5
:101E0000A20AF1DF6093930A7093940A8093950A73
:101E10009093960ACFDF60939B0A70939C0A8093FD
:101E20009D0A90939E0ACBDF6093970A7093980A5D
:101E30008093990A90939A0AC7DF6093A30A7093DC
:101E4000A40A8093A50A9093A60AC3DF6093A70A09
:101E50007093A80A8093A90A9093AA0A0895CF9232
:101E6000DF92EF92FF92CF936B017C01AC019B015B
:101E700060919B0A70919C0A80919D0A90919E0AA4
:101E80000E949F2FC1E0882371F0A7019601609105
:101E9000A30A7091A40A8091A50A9091A60A0E94B3
:101EA0009F2F8111C0E08C2FCF91FF90EF90DF909A
:101EB000CF9008950F931F938B019C01002711274A
:101EC00020783F770115110520483F4749F4AB01C1
:101ED000BC016F77772781E0452B462B472B09F410
:101EE00080E01F910F910895E5CF4F925F926F921E
:101EF0007F928F929F92AF92BF92CF92DF92EF929A
:101F0000FF920F931F93F894409088045090890497
:101F100060908A0470908B04C0907C04D0907D0403
:101F2000E0907E04F0907F044130510509F0A4C098
:101F30009B01AC01241935094609570929013A01C9
:101F400000918404109185042091860430918704C7
:101F500048015901840C951CA61CB71C80169106DB
:101F6000A206B306A0F40091800410918104209190
:101F70008204309183040F5F1F4F2F4F3F4F009318
:101F80008004109381042093820430938304809210
:101F9000840490928504A0928604B09287040091F4
:101FA00080041091810420918204309183048092F6
:101FB0008C0490928D04A0928E04B0928F040093B2
:101FC00090041093910420939204309393046093AF
:101FD00088047093890480938A0490938B04A8EEFC
:101FE000B3E0A30192010E94613A6C0D7D1D8E1D2C
:101FF0009F1D60937C0470937D0480937E04909376
:102000007F0400918C0210918D0220918E023091FC
:102010008F020F3F1F4F2F4F3F4FF1F000918C0267
:1020200010918D0220918E0230918F020E3F1F4F32
:102030002F4F3F4F89F0C0908C02D0908D02E090DE
:102040008E02F0908F0221E08C149D04AE04BF0438
:1020500008F420E02093980478941F910F91FF904A
:10206000EF90DF90CF90BF90AF909F908F907F9038
:102070006F905F904F9008954B015C018418950814
:10208000A608B708A3019201261B370B480B590B72
:102090006415750586059705D0F082169306A4068B
:1020A000B50640F420E030E0A90181149104A104B8
:1020B000B10491F4A8EEB3E00E94613AA701960141
:1020C000261B370B480B590BCA01B901C5CF821625
:1020D0009306A406B50670F7A8EEB3E0A501940137
:1020E0000E94613A6C0D7D1D8E1D9F1DB5CFFDCEEA
:1020F000CF93DF9300D01F92CDB7DEB71C821B8237
:102100001A821982109294041092950410929604E7
:1021100010929704BE016F5F7F4FCE0103960E941D
:10212000752D69817A818B819C810E94632600973D
:1021300061F4BE016F5F7F4FCE0103960E94812D37
:1021400069817A818B819C812FD50F900F900F90A0
:102150000F90DF91CF910895FF920F931F93CF932C
:10216000DF93082F60E070E0CB010E943834FF2439
:10217000F3940E944C25EC01892B89F010E0CE3FAE
:102180008FEFD80769F0002361F160E070E0CB01C8
:102190000E94383481E090E0892B59F322C011E08D
:1021A00026D5EC01892B21F0CE3F8FEFD80759F7C8
:1021B00011111EC011E0229609F410E00E94FC24C7
:1021C000EC01892B21F0CE3F8FEFD807E1F61111FA
:1021D00011C011E0CE3F8FEFD80709F410E00111D4
:1021E0000BC0CE01DF91CF911F910F91FF90089509
:1021F00011E0E4CF11E0F3CF60E070E0CB010E948A
:1022000038341F25812F90E0C7CFCF93DF93809183
:102210009804882321F060E070E0CB014DD636D6DB
:10222000D0E0C0E0892B71F06AE070E080E090E0DF
:102230000E94383481E090DF29D62196C03D27E006
:10224000D20781F728D60E94B7261092B0041092C8
:10225000AF041092A9041092AA041092AB04109239
:10226000AC041092A5041092A6041092A704109238
:10227000A8041092A1041092A2041092A304109238
:10228000A40410929D0410929E0410929F04109238
:10229000A0041092990410929A0410929B04109238
:1022A0009C044EEF5FEF6FEF7FEF40938C025093F3
:1022B0008D0260938E0270938F0210929804ECE866
:1022C000F4E028E0DF011D922A95E9F710928804D6
:1022D0001092890410928A0410928B041092840444
:1022E0001092850410928604109287041092800444
:1022F00010928104109282041092830410927C0444
:1023000010927D0410927E0410927F04DF91CF9191
:1023100008951092BC041092BD041092BE04109255
:10232000BF041092BB048091C4049091C5049093A3
:10233000BA048093B9041092B8041092B7041092B2
:10234000B3041092B4041092B5041092B604109223
:10235000C1041092C00490E080E00895CF92DF9213
:10236000EF92FF920F931F93CF938C01019709F087
:1023700055C02091C4043091C5048091B904909156
:10238000BA044091C4045091C5045093BA044093D8
:10239000B9042817390781F01092B8041092B704D5
:1023A0001092B3041092B4041092B5041092B604C3
:1023B0001092C1041092C0048091C4049091C5048D
:1023C000019761F58091C0049091C104892B21F49B
:1023D00080919002811112C08091C0049091C1043B
:1023E0000197E1F48091B3049091B404A091B504F5
:1023F000B091B6040197A105B10581F41092B30420
:102400001092B4041092B5041092B6041092900287
:1024100082E090E09093C1048093C0048091C40452
:102420009091C504019709F01CC18091DA04909144
:10243000DB048017910709F014C18091D6049091B4
:10244000D704A091D804B091D904009709F409C128
:102450002091D50421110DC04091D6045091D7048C
:102460006091D8047091D904452B462B472B09F471
:10247000F8C02091C0043091C1042230310509F028
:10248000F0C02091B7042111ECC0FC01C080D180C4
:10249000E280F3808091BB04882309F4D3C080914B
:1024A000C7049091C804892B09F4FEC02091C70489
:1024B0003091C80481E02230310509F080E020919C
:1024C000C7043091C804C1E02130310549F02091A2
:1024D000C7043091C804C1E02230310509F0C0E0E2
:1024E000882309F456C02091D1043091D204409140
:1024F000D3045091D404C701B6010E948F3187FDE7
:1025000014C02091D1043091D2044091D304509151
:10251000D4046091BC047091BD048091BE0490917C
:10252000BF040E949F2F87FD22C02091D1043091CB
:10253000D2044091D3045091D404C701B6010E9443
:102540008F31181634F52091D1043091D204409186
:10255000D3045091D4046091BC047091BD04809167
:10256000BE049091BF040E949F2F811112C08091E0
:10257000C9049091CA04A091CB04B091CC04892BDA
:102580008A2B8B2B19F481E08093B80481E080932F
:10259000B704CC2309F456C02091D1043091D20461
:1025A0004091D3045091D404C701B6010E949F2FDB
:1025B00087FF14C02091D1043091D2044091D304FC
:1025C0005091D4046091BC047091BD048091BE040C
:1025D0009091BF040E948F3187FF22C02091D104C7
:1025E0003091D2044091D3045091D404C701B60174
:1025F0000E949F2F811126C02091D1043091D204D6
:102600004091D3045091D4046091BC047091BD04F6
:102610008091BE049091BF040E948F31181694F4EB
:102620008091C9049091CA04A091CB04B091CC04CC
:10263000892B8A2B8B2B19F481E08093B80481E0DD
:102640008093B70481E09091B704911180E080936A
:10265000BB04C092BC04D092BD04E092BE04F092D0
:10266000BF040130110509F067C18091C004909149
:10267000C104892BD9F41092C6041092B70480913A
:102680009002882379F082E090E09093C1048093D7
:10269000C004109290022091C4043091C50481E0DE
:1026A000232BE9F080E01BC081E009CF109290025B
:1026B0008091C604882349F01092B8041092C10496
:1026C0001092C0041092C604EDCF8091C404909182
:1026D000C504892BE1F08091B7041092B7042091D2
:1026E000C0043091C1042230310509F45EC088F481
:1026F0002115310509F448C02130310509F4F3C032
:102700001092B8041092B7041092C60438C081E049
:10271000E6CF2330310509F4B1C02430310581F70B
:102720004091B3045091B4046091B5047091B60423
:10273000411551056105710561F04150510961096B
:1027400071094093B3045093B4046093B50470933B
:10275000B6044091B3045091B4046091B5047091F3
:10276000B604452B462B472BD9F42091C204309157
:10277000C3042130310509F046C01092B80410920C
:10278000C1041092C0040CC080919002882341F0D3
:1027900082E090E09093C1048093C0041092900274
:1027A0001092B1048091B804CEC08823C9F38091FF
:1027B000C9049091CA04A091CB04B091CC0418161E
:1027C00019061A061B060CF07DC08091C404909176
:1027D000C504019709F076C08091C9049091CA049C
:1027E000A091CB04B091CC048093B3049093B40433
:1027F000A093B504B093B60483E090E09093C10435
:102800008093C004CDCF4091CD045091CE0460910F
:10281000CF047091D004452B462B472BA9F0109282
:10282000B8048091CD049091CE04A091CF04B091D2
:10283000D0048093B3049093B404A093B504B093F0
:10284000B60481E090E0DACF882399F0809191027C
:1028500090919202A0919302B09194028093B3045C
:102860009093B404A093B504B093B60484E090E0D0
:10287000C5CF1092B80482E090E0C0CF8091B3043D
:102880009091B404A091B504B091B6040097A1054D
:10289000B10559F00197A109B1098093B304909350
:1028A000B404A093B504B093B6048091B30490919E
:1028B000B404A091B504B091B604892B8A2B8B2B5C
:1028C00009F06ECF8091910290919202A0919302B3
:1028D000B0919402892B8A2B8B2B09F44ECF81E087
:1028E0008093B804B3CF4091B3045091B404609185
:1028F000B5047091B604411551056105710561F08B
:1029000041505109610971094093B3045093B404D3
:102910006093B5047093B6044091B3045091B4042D
:102920006091B5047091B604452B462B472B09F0F6
:1029300037CF8111C7CF9FCF8091B104882309F48D
:1029400031CF8091B204CF911F910F91FF90EF9002
:10295000DF90CF9008951092BC041092BD041092A5
:10296000BE041092BF041092BB041092C1041092D6
:10297000C0041092BA041092B9041092DB041092B1
:10298000DA041092B8041092B7041092B3041092B3
:10299000B4041092B5041092B6041092B2041092CE
:1029A000B1041092D6041092D7041092D804109259
:1029B000D9041092D5041092D1041092D20410922E
:1029C000D3041092D40488EE93E0A0E0B0E08093AA
:1029D000910290939202A0939302B093940210926A
:1029E000CD041092CE041092CF041092D004109215
:1029F000C9041092CA041092CB041092CC04109215
:102A0000C8041092C70481E0809390021092C6041B
:102A10001092C5041092C4041092C3041092C20410
:102A200090E080E008958091C4049091C504892BC2
:102A300019F580919002882351F08091C60481118C
:102A400006C081E08093B2048093B1040895209180
:102A5000C6043091900281E090E0332311F090E0C1
:102A600080E030E082239323892B21F01092B2047E
:102A700081E0EACF1092B104089582E090E0FA017B
:102A8000918380838FEF9FEF0895CF93DF93EA01C7
:102A9000009711F00E94D7271982188290E080E0F9
:102AA000DF91CF910895DB01009719F48FEF8C939C
:102AB00008952EEF2C93FC013F96EF30F10508F0BE
:102AC00034C08827E959FA4E8F4F0C94593A931520
:102AD00091158F158D158B158715891585158315FE
:102AE00081157E157A1576157C15951580E311965E
:102AF0008C93089589E2FBCF82E2F9CF11961C9264
:102B0000089583E2F4CF81E2F2CF81E1F0CF87E252
:102B1000EECF8AE2ECCF80E1EACF84E2E8CF88E230
:102B2000E6CF86E2E4CF81E3E2CF80E2E0CF80919E
:102B3000E8049091E90408959093E9048093E804EF
:102B400008958091E70408959091E704892B80937C
:102B5000E7040895982F90958091E7048923809346
:102B6000E70408958091E60408958091E40490912B
:102B7000E50408956115710559F0FB0130E020E08E
:102B800070E060E02417350719F06115710511F048
:102B9000CB010895A081B181A817B90709F4BF013D
:102BA0002F5F3F4F3696EECF8091EA0481111CC013
:102BB00060D266D29093DD048093DC040E94D51F1E
:102BC0000E94E71F9093E1048093E0040E94642434
:102BD0000E946B249093DF048093DE0481E0809355
:102BE000EA0490E080E0089584EF9FEF08958F92CB
:102BF0009F92AF92BF92CF92DF92EF92FF920F938C
:102C00001F93CF93DF9300D000D000D01F92CDB799
:102C1000DEB71A86198618861F821E821D821C82C4
:102C20001B821A8219828091EA0407EF1FEF882322
:102C300009F49CC08E010D5F1F4F9E012B5F3F4F1B
:102C4000AE01495F5F4FBE01675F7F4F90E080E05C
:102C50000E94E8258C01009721F00596029708F064
:102C6000DBC029853A852115310509F402C1ED80C3
:102C7000FE804B815C81B701640F751F8F81988541
:102C80008617970708F4F5C0E20EF31ED7019C9152
:102C9000903C09F07FC04230510508F47BC011968A
:102CA0008C914091E8045091E904452B09F49CC0B3
:102CB000913F08F071C02CE1290F2D3008F48BC032
:102CC0002DE2290F203108F489C0903C21F4815075
:102CD000823008F483C088E3890F8B3008F481C008
:102CE00093E5C92E95E1D92EEDE3F5E16D817E8165
:102CF000AE014F5F5F4F89859A8519955C01C114BC
:102D0000D104A1F189809A808114910479F18B8199
:102D10009C818815990508F487C010E000E04B817C
:102D20005C8170E060E0C7010E94833A01151105E3
:102D3000E9F449815A8169857A858D819E81680F80
:102D4000791FC501F6011995E980FA800D811E8170
:102D50002F81388549855A856FEF7FEF81E090E0BC
:102D60000E9483258C01892B09F056C0C8012A9640
:102D70000FB6F894DEBF0FBECDBFDF91CF911F918C
:102D80000F91FF90EF90DF90CF90BF90AF909F900A
:102D90008F90089580E085CF30E020E0220F331F30
:102DA000F901E452FB4F0190F081E02D309709F4D6
:102DB00097CF892F90E01995009709F491CFDC0106
:102DC0001296ED91FC9113971496CD90DC9030976C
:102DD00009F08CCF1FC021E030E0E0CF22E030E0EE
:102DE000DDCF23E030E0DACFD12CC12CE5E4F5E1F2
:102DF0009F3F09F07BCFE091DC04F091DD04309738
:102E000021F4C90104EF1FEF0CC08FEF90E019957A
:102E10000097A9F604EF1FEF89859A85009709F4BA
:102E2000A5CF0E94D727A2CF0E94B2268C01898508
:102E30009A850E94D72770E060E0C4010E944B266B
:102E400098878F830E9480259E838D836F817885EC
:102E50006115710559F0C8010E9463299A87898715
:102E600006EF1FEF892B09F058CF59CF08EF1FEF5E
:102E700056CF08EF1FEFD0CF2091EA04222319F09C
:102E800020E00C94EC1F87EF9FEF08958091E804F9
:102E90009091E90408950E9470240E94CA23F5D0FD
:102EA000ECEDF4E088E0DF011D928A95E9F71092DD
:102EB000EA0490E080E008950C94282221E040E0AC
:102EC00050E0BA010C94EC1F86E090E0FA01918387
:102ED000808390E080E0089547E050E06EEE72E07D
:102EE00049CEDF92EF92FF920F931F93CF93DF9320
:102EF0008A01EC01C60FD71FE090EE04F090EF04BA
:102F0000D9800E949A26D816190678F082E090E0BF
:102F1000F801918380838EEF9FEFDF91CF911F9116
:102F20000F91FF90EF90DF900895EF2841F482E039
:102F300090E0F8019183808384EF9FEFEECF898149
:102F40008093ED0490E00196F8019183808390E0F6
:102F500080E0E3CFCF93DF93EA010E94D922882358
:102F600021F00E94A7260E94DA2282E090E0998355
:102F700088838BEF9FEFDF91CF910895CF93DF93FD
:102F8000EB0186E0FB0111928A95E9F78FEF8883C8
:102F9000D8DD8983E7DD8A83E8DD9D838C83DF913B
:102FA000CF910895CF93DF93EA010E94DC22811133
:102FB00009C082E090E09983888385EF9FEFDF91DD
:102FC000CF91089590E080E0B7DD81E090E09983B3
:102FD000888390E080E0F3CF0F931F93CF93DF932C
:102FE000EA018C01060F171F0E94DC2281110BC021
:102FF00082E090E09983888385EF9FEFDF91CF9106
:103000001F910F910895F8018181823038F082E09C
:1030100090E0998388838EEF9FEFF0CF81E090E07E
:103020008BDD88E090E09983888390E080E0E6CFB4
:10303000CF93DF930097D1F4EB01FB01329686E04A
:10304000DF011D928A95E9F78FEF888385E08983F8
:103050001A820E949A268B830E9499269D838C83D4
:1030600081E08E838F83DF91CF910895DF91CF919F
:103070001ACD8CE697E19093EC048093EB040895CD
:103080008091EB049091EC0408951092EC0410925E
:10309000EB0408958091EE049091EF04089541119E
:1030A00005C0611571058105910561F06093EE041D
:1030B0007093EF048093F0049093F1044093F20432
:1030C00081E0089580E00895FF920F931F93CF93BE
:1030D000DF938A01EC01C60FD71FF9800E949A2660
:1030E000F816190668F082E090E0F8019183808379
:1030F0008EEF9FEFDF91CF911F910F91FF90089579
:103100006C817D818E819F814B81C9DF811108C0D7
:1031100082E090E0F8019183808384EF9FEFEACF13
:1031200089818093ED0490E00196F801918380837A
:1031300090E080E0DFCFCF93DF93EA01FC01E60F60
:10314000F71F64817581868197814381A8DF811192
:1031500009C082E090E09983888384EF9FEFDF913C
:10316000CF91089581E090E09983888390E080E09A
:10317000F6CFEEEEF4E04081518162817381480F19
:10318000511D611D711D40835183628373830895B6
:10319000CF93C091ED044C2F50E06091EE047091FC
:1031A000EF0401960E947A3A8C2FE3DF1092ED042F
:1031B000CF910895009799F48091EE049091EF04D7
:1031C0002FEFFB012083892B59F02091ED0430E093
:1031D0002F5F3F4F2417350719F4CB01D9CF63CCAC
:1031E0000895009799F48091EE049091EF042FEFE9
:1031F000FB012083892B59F02091ED0430E02F5FF3
:103200003F4F2417350719F4CB01C2CF4CCC08959A
:1032100023E1AC01249FC001259F900D1124E09172
:10322000F704F091F804E80FF91F2381348122504C
:10323000310981E02230310508F080E008950F93D4
:103240001F93CF93DF930091F9041091FA04D0E01B
:10325000C0E080E00C171D0749F491E0811190E077
:10326000892FDF91CF911F910F9108958111F5CF93
:10327000CE01CEDF2196EECFA091F704B091F804F5
:10328000109729F12091F9043091FA0482179307DD
:10329000F0F453E1589F9001599F300D1124A20F73
:1032A000B31FED91FC911197309789F012968C9194
:1032B000681768F48DE0689FE00DF11D112480818E
:1032C0009181892B21F081E09281491708F080E0FB
:1032D00008959C0143E1429FC001439F900D11243A
:1032E000E091F704F091F804E80FF91F838582302C
:1032F00091F481E090E06581768140919502509152
:1033000096026417750711F490E080E0892B19F09C
:1033100081E0232B09F080E00895FC01A081B181B8
:103320008DE0689FA00DB11D112413964D915C9105
:1033300085859685489F9001499F300D589F300D97
:103340001124C9010196611103C0478144FD04960F
:103350000895EF92FF920F931F93CF93DF93EA01AB
:10336000FC01E60FF71F02811381E480F5804F2DE9
:103370006E2DC80181DF81110DC082E090E099833C
:1033800088838EEF9FEFDF91CF911F910F91FF9078
:10339000EF900895C8013CDF882339F082E090E087
:1033A0009983888388EF9FEFEECF10939C02009360
:1033B0009B02E0929D02F0929E0281E090E0998350
:1033C000888390E080E0DFCFCF92DF92EF92FF9290
:1033D0000F931F93CF93DF937A01EC01C60FD71F92
:1033E000C0909B02D0909C0200919D0210919E0281
:1033F000412F602FC60140DF811110C082E090E0B4
:10340000F701918380838AEF9FEFDF91CF911F9126
:103410000F91FF90EF90DF90CF900895C601F8DEF6
:10342000882341F082E090E0F7019183808388EF68
:103430009FEFEBCF4C815D816E817F819A81898185
:103440008F3F41F082E090E0F701918380838EEF1F
:103450009FEFDBCFE3E1EC9D9001ED9D300D11245A
:10346000E091F704F091F804E20FF31F0190F0816E
:10347000E02D2DE0029FE00DF11D11240190F0815F
:10348000E02D27E0129FE00DF11D11248083918330
:103490008B81828343835483658376831F5F10937C
:1034A0009E0281E090E0F7019183808390E080E0CC
:1034B000ACCFEF92FF920F931F93CF93DF937A01DC
:1034C0008C01060F171FC091F704D091F8042097C4
:1034D00081F021E030E0F801828193814091F9048C
:1034E0005091FA048417950710F030E020E0232B68
:1034F00071F482E090E0F701918380838EEF9FEF7B
:10350000DF91CF911F910F91FF90EF90089543E1CC
:10351000489F9001499F300D1124C20FD31F78DEC0
:10352000882341F082E090E0F7019183808388EF67
:103530009FEFE6CFF8012481358120383105C8F6A8
:1035400087818111D6CF4181842F90E08F7E0097B3
:1035500041F082E090E0F7019183808386EF9FEF56
:10356000CFCF4F833E832D83268128871986223033
:1035700010F421E0288721E030E0F7013183208337
:10358000BFCF88E090E0FA019183808390E080E0F3
:103590000895FB018FEF808381E181838FEF9FEF9F
:1035A0009383828380E890E09583848316821782D8
:1035B0000895FB018FEF808391E091838283938351
:1035C000848384E3858381E090E0978386830895F4
:1035D000DF92EF92FF920F931F93CF93DF93EA0155
:1035E000FC01E60FF71F8181813071F082E090E0ED
:1035F000998388838FEF9FEFDF91CF911F910F9178
:10360000FF90EF90DF90089582819381D48025818F
:10361000E680F7800091F7041091F8040115110578
:1036200039F482E090E0998388838CEF9FEFE4CFB8
:103630004091F9045091FA048417950738F082E01C
:1036400090E0998388838EEF9FEFD6CF892B39F056
:1036500082E090E09983888386EF9FEFCDCF8D2D18
:103660008D7FB1F72130A1F781E0D11006C091E044
:10367000E916F10431F080E004C0E2E0EE16F10456
:10368000D0F3882329F390E080E0C2DD882339F06D
:1036900082E090E09983888388EF9FEFADCFF801B7
:1036A000D38681E08487F686E586108A178681E0D6
:1036B00090E09983888390E080E09ECF4CE050E0DA
:1036C00068E173E057CA8F929F92BF92CF92DF92C8
:1036D000EF92FF920F931F93CF93DF93EA01FC01C8
:1036E000E60FF71F828193810481B580E091F70492
:1036F000F091F804309791F482E090E09983888308
:103700008CEF9FEFDF91CF911F910F91FF90EF9082
:10371000DF90CF90BF909F908F9008952091F904F3
:103720003091FA048217930738F082E090E0998391
:1037300088838EEF9FEFE6CF23E1289F6001299FCA
:10374000D00C1124EC0DFD1DE080F180E114F1049A
:1037500099F28281081748F78DE0089F80011124B3
:10376000E00EF11EF70180819181892B29F6BB20A3
:10377000E1F2F7E0BF9E40011124C4010E949E27A0
:10378000F70191838083E091F704F091F804EC0D48
:10379000FD1D0190F081E02DE00FF11F80819181EE
:1037A000009739F482E090E0998388838DEF9FEF52
:1037B000A9CFA40170E060E00E94833A8091F704F1
:1037C0009091F804C80ED91EF60180819181080FEE
:1037D000191FF801B28281E090E09983888390E01C
:1037E00080E090CFAF92BF92CF92DF92FF920F9383
:1037F0001F93CF93DF93EA01FC01E60FF71F82814D
:103800009381F4800091F7041091F80401151105DB
:1038100081F482E090E0998388838CEF9FEFDF91C1
:10382000CF911F910F91FF90DF90CF90BF90AF90FD
:1038300008952091F9043091FA048217930738F023
:1038400082E090E0998388838EEF9FEFE8CF2FEF9F
:103850002F0D2C3FA8F723E1289F6001299FD00C52
:1038600011240C0D1D1DF80180819181892B89F691
:10387000FDE0FF9E50011124C5010E949E27F80122
:1038800091838083E091F704F091F804EC0DFD1D25
:1038900080819181009739F482E090E09983888358
:1038A0008DEF9FEFBCCFA50170E060E00E94833AEE
:1038B000E091F704F091F804EC0DFD1DF28281E037
:1038C00090E09983888390E080E0A9CFCF92DF9247
:1038D000EF92FF920F931F93CF93DF93860F971F63
:1038E000FC01028113818091F7049091F804892BE7
:1038F00081F082E090E0FA01918380838CEF9FEF6A
:10390000DF91CF911F910F91FF90EF90DF90CF90BB
:103910000895C801B0E0A0E00197A109B1098F3F67
:103920009F4FA105B10540F082E090E0FA0191833C
:1039300080838EEF9FEFE4CF7A0183E1809F600167
:10394000819FD00C1124C6010E949E27EC01009794
:1039500041F482E090E0F701918380838DEF9FEF47
:10396000CFCFA60170E060E00E94833AD093F804C4
:10397000C093F7041093FA040093F90490E080E0F8
:103980002FEF3FEF41E061E070E08017910741F4D5
:1039900081E090E0F7019183808390E080E0B0CFF8
:1039A0003A8B298B1B864C877E876D87188A1F86EA
:1039B00001966396EACFEF92FF921F93CF93DF9326
:1039C000EC0110E0F12CE12C6A811617B0F083E0D5
:1039D000689FB0011124AE014F5E5F4FC7010E9486
:1039E0000328009721F02FEF3FEF3A8B298BDF91CF
:1039F000CF911F91FF90EF900895612FCE018DDC44
:103A000061E070E00E944B26E816F90608F47C019C
:103A10001F5FDACFF8942091F5043091F60481E02D
:103A20002115310509F080E0232B09F078940895E1
:103A30002F923F924F925F926F927F928F929F92BE
:103A4000AF92BF92CF92DF92EF92FF920F931F93AC
:103A5000CF93DF933C01660E771EF3018281938141
:103A60004C01B12CA12CC091F704D091F8042097FF
:103A700069F021E030E06091F9047091FA04861752
:103A8000970710F030E020E0232BD1F482E090E0A3
:103A9000FA01918380838EEF9FEFDF91CF911F9189
:103AA0000F91FF90EF90DF90CF90BF90AF909F90DD
:103AB0008F907F906F905F904F903F902F900895E0
:103AC00080929F029092A002A092A102B092A202C4
:103AD00063E1689F9001699F300D1124C20FD31FCD
:103AE000F3018181833040F082E090E0FA0191831C
:103AF000808386EF9FEFD1CF2A012B813C81232B3E
:103B0000F1F4288139819F8191FF2EC0232B09F484
:103B10006FC02091FC049A81422F490F5527551FF1
:103B2000BA0141E050E06138710514F050E040E026
:103B3000452B09F45DC02A87920F9093FC048150B5
:103B4000823008F481C066DF882309F4D8C0F3010D
:103B50008181813009F48DC008F47BC0823009F482
:103B6000C6C090E080E0ADC0232B09F441C0209195
:103B7000FB049A81E22FE90FFF27FF1F41E050E08D
:103B8000ED3FF10514F050E040E0452B89F12A8724
:103B9000920F9093FB04D3CFA081B181A20FB31FEA
:103BA00011966C91060F111D0196295F3F4F8417E6
:103BB000950794F38D859E85089F1001099F300C11
:103BC000189F300C1124C114D104D1F48F8184FFCB
:103BD00017C00E949926F5E02F0E311C21E08215B6
:103BE000930508F420E0A701435F5F4F21110EC049
:103BF00082E090E0F2019183808387EF9FEF4DCFC9
:103C00000E9499262FEF221A320AE8CF88819981E3
:103C1000E80EF91EF70114830383FFEFCF1ADF0AC2
:103C20007A018A818C151D0409F00CF48CCFE8818F
:103C3000F981EE0DFF1D428150E030E020E010E000
:103C400000E090E080E0B3CFF12CE12CD12CC12C2E
:103C5000E8CF81E090E09C838B83F1DA882309F43C
:103C600080CF81E090E00E949C1580E40E94AA151C
:103C700078CF89899A89019661F083E090E09C83EE
:103C80008B8382E090E00E949C1580E40E94A41542
:103C900068CF8D819E812091950230919602821786
:103CA0009307D1F46091990270919A02AE014F5E30
:103CB0005F4F80919702909198020E94222900976D
:103CC000E1F2789422E030E0F20131832083892B05
:103CD00099F08DEF9FEFE1CE89288A288B2869F62D
:103CE000029758F6CE0167DE188A1F86E8CF82E079
:103CF00090E09C838B8335CF90E080E0CECE82E055
:103D000090E0F2019183808385EF9FEFC6CE8F9282
:103D10009F92AF92BF92CF92DF92EF92FF920F935A
:103D20001F93CF93DF93EA018C01060F171FF80151
:103D30008181833098F082E090E09983888386EFD8
:103D40009FEFDF91CF911F910F91FF90EF90DF9048
:103D5000CF90BF90AF909F908F9008958091F7047F
:103D60009091F804892B61F081E090E02091F904B2
:103D70003091FA04232B11F490E080E0892B39F480
:103D800082E090E0998388838EEF9FEFDACF42DE66
:103D9000882309F4E0C0F8018181813009F496C0DC
:103DA000E8F0823099F42091F9043091FA04E0911E
:103DB000F704F091F80490E080E041E050E028172B
:103DC000390709F0BEC03BDA811117C0789481E051
:103DD00090E09983888390E080E0B3CF2091F9044C
:103DE0003091FA04E091F704F091F80490E080E05B
:103DF00041E050E02817390741F481E090E00E944B
:103E00009C1580E40E94AA15E1CF63817481672B21
:103E100011F05483438301967396ECCFE091F7043D
:103E2000F091F804E00FF11F238134812230310535
:103E3000D9F4218932892F3F3F4FB1F42581368152
:103E400040919502509196022417350761F5AF0114
:103E50004F5E5F4F6091990270919A028091970234
:103E6000909198020E942229EFEFCE1ADE0AEE0A04
:103E7000FE0A0D5E1F4F4091F9045091FA0470E064
:103E800060E0C416D506E606F70644F5009731F261
:103E90007894892B09F49BCF82E090E09983888302
:103EA0008DEF9FEF4ECFC114D104E104F104E1F690
:103EB00022303105C8F6CF017EDDE091F704F091A4
:103EC000F804E00FF11F108A1786CECF10E000E053
:103ED00090E080E0C12CD12C7601CDCF0097C1F6C7
:103EE00010E000E0812C912C540183E0E82EF12CAD
:103EF0001AC0E091F704F091F804E00FF11F8381FC
:103F00009481029749F4F482E38282E090E00E9477
:103F10009C1580E40E94A415FFEF8F1A9F0AAF0A38
:103F2000BF0A0D5E1F4F8091F9049091FA04B0E032
:103F3000A0E088169906AA06BB06DCF290E080E0B5
:103F4000A7CF638174816230710511F45483438378
:103F50000196739634CF82E090E09983888385EF51
:103F60009FEFEFCE0097B9F48FEFFB018083209194
:103F70009F023091A00243E1429FC001439F900DF8
:103F80001124E091F704F091F804E80FF91F8285FD
:103F9000FB01818308950C94531588E090E0FA01A9
:103FA0009183808390E080E008951092F60410924F
:103FB000F504E7EFF4E086E0DF011D928A95E9F76A
:103FC0008EE59BE19093F4048093F304089580912F
:103FD000F3049091F40408952F923F924F925F92D0
:103FE0006F927F928F929F92AF92BF92CF92DF9209
:103FF000EF92FF920F931F93CF93DF93CDB7DEB76E
:104000002F970FB6F894DEBF0FBECDBFF894E091A6
:10401000F504F091F6043196F093F604E093F5047C
:1040200078944090F7045090F8044114510409F436
:104030000CC2E091F904F091FA04EF2B09F405C2E7
:104040002D8749875A876B877C8798878F831201D2
:10405000B12CA12C10E000E08091F9049091FA04B9
:10406000A816B90618F40115110529F1F8948091E4
:10407000F5049091F60401979093F6048093F5046B
:104080007894C8012F960FB6F894DEBF0FBECDBF4F
:10409000DF91CF911F910F91FF90EF90DF90CF9024
:1040A000BF90AF909F908F907F906F905F904F9058
:1040B0003F902F9008957101E418F508D1011796EB
:1040C0008C91179781FD54C013968D919C911497F4
:1040D000039709F04DC015968D919C91EF81F8855D
:1040E0008E179F0709F044C0B50190E080E07FD4AF
:1040F0008A832091F7043091F8043D832C833D8519
:10410000332309F44CC04C815D81452B09F49AC1DD
:104110008091F9049091FA04A816B90608F092C1AA
:10412000C501D7D88823E9F06C817D816E0D7F1D94
:104130007D836C83DB011F968D919C91892B89F087
:10414000D12CC12CF12CE12CAC81BD8112968C912B
:1041500012978E151F0409F094F450961C921E922B
:104160001F972A81222321F0B50190E080E041D4FD
:104170003FEFA31AB30A43E1240E311C6DCFAC818B
:10418000BD81ED91FC91EC0DFD1D858196810FD7D0
:10419000BFEFEB1AFB0AEDE0CE0ED11CD5CFEC81C0
:1041A000FD81309709F44EC18091F9049091FA0491
:1041B000A816B90608F046C1EE0DFF1DFF87EE8771
:1041C000C50187D88B83882339F1AE85BF851F96BB
:1041D0008D919C915097019621E01D964D915C9197
:1041E0008417950709F020E02E831982712C10E0C6
:1041F00000E0AE85BF8512968C91781608F45DC0FC
:10420000EE85FF85878590890196658576850E9474
:10421000233A908B8787A5CFB1E0BE83E6CF992460
:1042200093946BC08BD6F6019683858382C0D601AA
:10423000ED90FC90B7E06B9EE00CF11C1124F701AF
:104240006381748180818F3F61F121E030E002C0A1
:10425000220F331F8A95E2F7C901092E000CAA0B21
:10426000BB0BFB01408151816281738184239523C3
:10427000A623B72321E0892B8A2B8B2B09F420E07E
:10428000D4012C93D70111968C91F60123853485A6
:10429000820F932F911D880E991E148613866394A6
:1042A0009BC0418150E0C4010E947A3AEBCF9982D1
:1042B00006EF1FEFC5C01982C3C0F981F111A0CF6D
:1042C000EDE07E9E70011124AE85BF85CD90DC901F
:1042D000CE0CDF1C15D49D838C83BB81BB2309F4DA
:1042E0009ECF81E0EE85FF8527853089232B09F05D
:1042F00080E0982E882309F458C0672D8E859F850D
:104300000CD8D60118969C938E93179761E070E0B5
:10431000C2D4EE85FF85218932892F3F320709F407
:1043200081CFBC01C901CFD7D60116969C938E933D
:104330001597D60115968D919C911697009709F4C3
:10434000B6CFEC81FD818E0F9F1F1A969C938E93A2
:104350001997AE85BF85ED91FC911197EE0EFF1E6A
:10436000F70121853285148613861A968C91870D64
:10437000D9018D93711016C0EE85FF85878184FF6A
:1043800011C049855A856B857C85F901418352832B
:1043900063837483F701838594850496A80FB91FFE
:1043A00014861386F701B287A187D60115968D91E1
:1043B0009C911697892B09F443C0EE85FF852581D2
:1043C000368180919502909196022817390779F0ED
:1043D00019968D909C90612CD60112968C91129713
:1043E000681608F424CF1A969C928E921997BE8173
:1043F000BB2309F460CF61E070E0F601878190850E
:104400004AD4D6011796ED90FC90189715964D91C9
:104410005C91E1E0F0E0BA81BB2311F0F0E0E0E074
:104420000C811D819C01B501882799278E1B9F0B4C
:104430006AD38C01892B21F0F60185819681B7D54D
:104440007394D7CE0FEF1FEF8CCE10E000E00ECEAE
:104450002F923F924F925F926F927F928F929F9294
:10446000AF92BF92CF92DF92EF92FF920F931F9382
:10447000CF93DF938091F7049091F80410E000E06F
:10448000892BA9F0C7DA0AEF1FEF882381F020906B
:10449000F9043090FA04C091F704D091F804D12CBB
:1044A000C12C10E000E02C143D04A9F47894C8015C
:1044B000DF91CF911F910F91FF90EF90DF90CF9000
:1044C000BF90AF909F908F907F906F905F904F9034
:1044D0003F902F900895C6010E946919882309F121
:1044E0008B819C810397E9F48F859889892BC9F08A
:1044F000B60190E080E07BD221E030E0882311F02B
:1045000030E020E044245524421A530AB12CA12C57
:10451000912C812C8A818815190409F038F4188AA5
:104520001F864FEFC41AD40A6396BDCFE881F98184
:10453000EA0DFB1D85819681892BA1F161E070E078
:1045400087819085A8D33C01DBD28C01E881F98179
:10455000EA0DFB1D8185928525813681200F311F53
:10456000AC01421B530B9A0147815085421B530BF0
:1045700070E060E00E94833AE881F981EA0DFB1D5A
:10458000E780F084458156819301B601C201BBD218
:104590008C01892B39F0E881F981EA0DFB1D8581B9
:1045A000968105D55FEF851A950A8DE0A80EB11C9E
:1045B000B1CF30CA789408952F923F924F925F9274
:1045C0006F927F929F92AF92BF92CF92DF92EF92C3
:1045D000FF920F931F93CF93DF9300D000D0CDB7FE
:1045E000DEB70091F7041091F80499249394011513
:1045F000110509F43EC0A090F904B090FA040ADA5B
:10460000982E8823B1F11092F8041092F7041092BA
:10461000FA041092F9041092FB041092FC048FEF3C
:104620009FEFDC0180939F029093A002A093A102D0
:10463000B093A20278947FD31E830D83C12CD12C1A
:104640007601C501B0E0A0E089839A83AB83BC8387
:1046500022242A94322C89819A81AB81BC81C8168C
:10466000D906EA06FB06F4F0C801A1D480E40E9452
:10467000AA15892D26960FB6F894DEBF0FBECDBFC2
:10468000DF91CF911F910F91FF90EF90DF90CF902E
:10469000BF90AF909F907F906F905F904F903F90B2
:1046A0002F900895AD81BE8115968D919C9116979E
:1046B000209195023091960282179307D1F451967A
:1046C0008D919C91EED5ED81FE8180819181B12CFF
:1046D000A12C412C512C3201892B89F5BFEFCB1A2B
:1046E000DB0AEB0AFB0AED81FE817396FE83ED8304
:1046F000B2CFC114D104E104F10429F7029718F7ED
:10470000ED81FE81818992898F3F980709F029D533
:10471000AD81BE8152963C922E925197D4CF8A0D94
:104720009B1DDC018D919C91009709F040D4BFEF57
:104730004B1A5B0A6B0A7B0AEDE0AE0EB11CAD8131
:10474000BE818D919C91119712964C9150E070E032
:1047500060E044165506660677060CF328D4BECFF3
:10476000CF93DF93EA0128DF811109C082E090E056
:104770009983888385EF9FEFDF91CF91089581E042
:1047800090E00E949C1581E090E09983888390E0FE
:1047900080E0F2CF11DF1092F4041092F304089538
:1047A00042E050E060E673E00C94BA15FF920F937C
:1047B0001F93CF93DF938A01EC01C60FD71FF980B7
:1047C000B9D20897F816190671F068F082E090E007
:1047D000F801918380838EEF9FEFDF91CF911F913E
:1047E0000F91FF9008956C817D818E819F814B8117
:1047F0000E944F18811108C082E090E0F801918377
:10480000808384EF9FEFE9CFF9800E944A184F2DF3
:1048100050E0BE01685F7F4F0E947A3A89810E9412
:10482000B91881E090E0F8019183808390E080E006
:10483000D4CFDF92EF92FF920F931F93CF93DF932A
:104840008A01EC01C60FD71F0E944A187C01D9804B
:1048500071D2DD2059F0029721E030E0D816190618
:1048600019F010F030E020E0232B79F482E090E0A2
:10487000F801918380838EEF9FEFDF91CF911F919D
:104880000F91FF90EF90DF900895EF2841F482E0C0
:1048900090E0F8019183808384EF9FEFEECFF98061
:1048A0000E944A184F2D50E0BE016E5F7F4F0E945C
:1048B0007A3A89810E94B91881E090E0F8019183E9
:1048C000808390E080E0D9CF80ED93E29093FE0466
:1048D0008093FD0408958091FD049091FE04089555
:1048E0000895FC0111821082938382830895DB0175
:1048F0001D921C92DC011296ED91FC91139771832D
:10490000608313967C936E9312970895FC018081C7
:104910009181DB018D939C93A081B181109741F02F
:104920008D919C9191838083892B11F4F383E28391
:104930000895FC0180819181DB018D939C93892BEB
:1049400011F473836283718360830895FC01118283
:104950001082938382830895CF93DF931F921F92D7
:10496000CDB7DEB71A821982F894BE016F5F7F4F10
:1049700084E095E0CBDF89819A81009709F017D315
:1049800089819A81892B89F7BE016F5F7F4F88E00B
:1049900095E0BCDF89819A81009709F008D389816D
:1049A0009A81892B89F778940F900F90DF91CF919E
:1049B0000895CF93DF931F921F92CDB7DEB71A826F
:1049C0001982F894BE016F5F7F4F80E095E09EDF13
:1049D00089819A81009709F0EAD289819A81892B8D
:1049E00089F778940F900F90DF91CF91089581E02F
:1049F000089590E080E00895EF92FF920F931F9347
:104A0000CF93DF931F921F92CDB7DEB71A82198220
:104A10008091FF0407EF1FEF8823A1F1F894BE01F6
:104A20006F5F7F4F88E095E071DF789489819A818C
:104A3000EE24E394F12C892B51F4F894BE016F5FBE
:104A40007F4F84E095E062DF7894F12CE12C89813E
:104A50009A810EEF1FEF0097A9F0FC01428153816C
:104A600064E070E076D68C01892B61F0F89469815E
:104A70007A81C701880F991F880F991F8C5F9A4F01
:104A800058DF7894C8010F900F90DF91CF911F915C
:104A90000F91FF90EF9008950F931F93CF93DF93A3
:104AA00000D01F92CDB7DEB71C821B821A821982FA
:104AB0008091FF0407EF1FEF8823C1F0AE014D5F27
:104AC0005F4F64E070E0CE010196B6D68C01892B71
:104AD00069F4E981FA818B819C8193838283F894C4
:104AE00069817A8180E095E002DF7894C8010F90B7
:104AF0000F900F900F90DF91CF911F910F9108951C
:104B0000BBD7049608958F929F92AF92BF92CF9297
:104B1000DF92EF92FF920F931F93CF93DF931F9239
:104B20001F92CDB7DEB71A821982BC016F5F7F4F2B
:104B30006330710598F0AA24AA94BA2CC5010F908D
:104B40000F90DF91CF911F910F91FF90EF90DF9029
:104B5000CF90BF90AF909F908F90089541155105D1
:104B600051F3480159018A016C01CADF8815990582
:104B700011F7E114F104F9F28E0D9F1DA816B90684
:104B8000D0F28091FF048823F1F0F894B5016450CD
:104B900071099701AE014F5F5F4FC8010496E1D6DE
:104BA0005C01892B71F489819A81F8019383828356
:104BB000C601880F991F880F991FB8018C5F9A4F03
:104BC00096DE7894BBCF87EFA82EBB24BA94B6CFDD
:104BD000AF92BF92CF92DF92EF92FF920F931F930B
:104BE000CF93DF931F921F92CDB7DEB71A8219823F
:104BF000892B09F047C06115710509F443C04115BF
:104C0000510509F43FC02115310509F43BC00115D8
:104C10001105C1F18091FF048823B9F179016A017E
:104C20005B01F894BE016F5F7F4F80E095E06EDE20
:104C3000789489819A81009759F1DC0112966D91DF
:104C40007C91A8010496A6D68C01E981FA81D50150
:104C5000ED93FC93828193810496F6019183808386
:104C60004FDFD7018D939C93C8010F900F90DF9178
:104C7000CF911F910F91FF90EF90DF90CF90BF9059
:104C8000AF9008950FEF1FEFEFCF07EF1FEFECCFBF
:104C90000EEF1FEFE9CFCF93DF93EC01672B71F499
:104CA000F4D68C179D0760F0E7D62496C80FD91F5D
:104CB000E6D68C0F9D1FDF91CF910895E3D6F1CFFB
:104CC00090E080E0F8CF0F931F93CF93DF93209174
:104CD000FF0421112BC08B01EC0184E095E001DE83
:104CE00088E095E0FEDD80E095E0FBDD97D0009761
:104CF000C1F4CBD670E060E0CEDF43EA52E062E080
:104D000070E081D1009769F48091A3029091A40290
:104D1000CED6B801CE0103D5009719F421E0209337
:104D2000FF04DF91CF911F910F91089584EF9FEFC2
:104D3000F8CFA8C6AAC6CF93DF93AAD6EC01892BD9
:104D400011F40ADE36DECE01DF91CF910895CF93C4
:104D5000DF939ED6EC01892B09F4FEDDCE01DF91B5
:104D6000CF9108958091A3029091A4020895CF93CA
:104D7000DF938091FF04D0E0C0E08823D1F09CD67F
:104D8000EC01892BB1F4E8DD14DE8091A30290914F
:104D9000A402E7D1E8D2EC01892B59F484E095E034
:104DA000D5DD88E095E0D2DD80E095E0CFDD1092A2
:104DB000FF04CE01DF91CF910895EF92FF920F9300
:104DC0001F93CF93DF93EC017A018B010F5F1F4F8D
:104DD0000E9DA0010F9D500D1E9D500D112470E0E1
:104DE00060E00E94833A90E080E0F0E0E0E02FEFA6
:104DF000E816F90639F4DF91CF911F910F91FF90DA
:104E0000EF9008951A8219822883309711F0D28387
:104E1000C1830196FE01C00FD11FEACFCF92DF926E
:104E2000EF92FF920F931F93CF93DF9309EB16E05E
:104E30000C7F43E050E065EA72E08BEA92E01CD41C
:104E400085EAE82E82E0F82E9BEAC92E92E0D92E60
:104E5000C8E5D7E0D7014D915D917D01F6016191E3
:104E600071916F01198308835D834C835B834A834F
:104E70007F836E839B012F5F3F4F249FC001259F3F
:104E8000900D349F900D1124998788870115110585
:104E900011F0C80192DF88859985080F191F2A969D
:104EA000FBEAEF16F2E0FF06A9F6EEE0F5E088EA8D
:104EB00091E0DF019C011D9221503040E1F71092FA
:104EC0000D0510920C05109277071092760710923C
:104ED0007B0710927A071092790710927807109248
:104EE0007D0710927C0710927F0710927E07109228
:104EF0008107109280071092850710928407109204
:104F000083071092820710928707109286071092EB
:104F10008907109288071092550710925407109233
:104F200057071092560790E080E0DF91CF911F91D4
:104F30000F91FF90EF90DF90CF9008950097F1F0E0
:104F4000F894ABEAB2E0E8E5F7E030E020E04D911C
:104F50005D9148175907A8F04281538141155105C9
:104F600081F08AE0829FF001839FF00D1124E85ABE
:104F7000F84F80819181009759F4789490E080E017
:104F800008952F5F3F4F3A962330310501F7F5CF53
:104F9000DC0111966D917C917183608341505109C0
:104FA00053834283FC012193CF01789408950097A5
:104FB00049F1DC018E91853041F4E0915607F09182
:104FC00057073097F9F0CD0119948530D8F4282F80
:104FD00030E0F8948FEF8C938AE0829FF001839FFA
:104FE000F00D1124E85AF84F8081918112969C931C
:104FF0008E931197B183A0838281938101969383CD
:10500000828378940895CF92DF92EF92FF920F936C
:105010001F93CF93DF939C0181E195E08C7F411535
:10502000510509F49BC02115310509F497C061159C
:10503000710509F493C07A01AB01B9016D5F7F4F2F
:105040006C7F9B012F5F3F4F249F8001259F100D98
:10505000349F100D1124F894209176073091770732
:10506000232B59F420917E0730917F0721153105BC
:1050700069F12017310708F058C02091800730915E
:105080008107232B91F420917E0730917F07820FB7
:10509000931F20918807309189072115310509F464
:1050A00041C02017310708F056C07894CFEFDFEFEA
:1050B00086EF9FEFF701D183C083DF91CF911F91DE
:1050C0000F91FF90EF90DF90CF900895C3E0D0E074
:1050D000C0900C05D0900D0525EA31E02C193D0952
:1050E0002017310710F32AE02C9FF0012D9FF00DBF
:1050F0001124E85AF84F9183808355834483538366
:1051000042837783668311870087009709F055DE15
:105110000C0D1D1D10930D0500930C05789490E067
:1051200080E0C8CFC4E0D0E0D3CFC3E0D0E02AE035
:105130002C9FF0012D9FF00D1124E85AF84F918318
:1051400080835583448353834283778366830097A8
:1051500029F333DEE3CFC4E0D0E0E9CF8FEF9FEF58
:10516000ACCF9C010397029708F069C0F89484E0E3
:105170009AE0482F50E0241735070CF44DC091E019
:105180008AE0829FF001839FF00D1124E85AF84FC6
:105190001182108215821482138212821782168263
:1051A0009923B1F18091760790917707892BA9F423
:1051B00020917E0730917F072115310571F0809194
:1051C0000C0590910D05821B930B90930D05809318
:1051D0000C0510927F0710927E07809180079091B6
:1051E0008107892BA9F4209188073091890721151F
:1051F000310571F080910C0590910D05821B930B88
:1052000090930D0580930C051092890710928807E2
:10521000789490E080E00895949FF001959FF00DC0
:105220001124E85AF84F40815181452B31F44085D3
:105230005185452B11F481509CCF90E0A1CF8FEF89
:105240009FEF08954115510549F1009739F1611516
:10525000710521F1F8942091540730915507232BC3
:10526000B9F42091560730915707232B89F4909376
:1052700055078093540770935707609356077894A7
:1052800025E030E090E080E0FA013183208308954A
:1052900078942FEF3FEF86EF9FEFF6CF8FEF9FEFE2
:1052A0000895059769F4F8941092550710925407E1
:1052B0001092570710925607789490E080E0089576
:1052C0008FEF9FEF08956115710519F4F0E0E0E0AC
:1052D00011C08530910581F4E0915407F091550794
:1052E0003097A1F3CB0101961995009779F3FC0152
:1052F00085E08193CF0108959C012350310922302C
:10530000310520F72AE0289FD001299FB00D1124F4
:10531000A85AB84F2D913C911197232BB9F21696AC
:105320002D913C9117972617370780F2F894129623
:105330002D913C9113972115310529F0ED91FC91A8
:105340001197309711F47894C1CF41815281119611
:105350005C934E932150310913963C932E931297F0
:1053600081937894C7CFE6EBF6E08EE9DF011D92DA
:105370008A95E9F7EEE0F5E088EA91E0DF019C012B
:105380001D9221503040E1F710920D0510920C054E
:10539000E8E5F7E082E3DF011D928A95E9F7E4E5AD
:1053A000F7E084E0DF011D928A95E9F790E080E064
:1053B0000895CF93DF93C091B102D091B202CF3F55
:1053C000DC0759F423D49093B2028093B10297FF83
:1053D00009C0D093B202C093B10284EF9FEFDF9176
:1053E000CF91089590E080E0FACF8230910528F4C3
:1053F00080938A0790E080E008958FEF9FEF0895F3
:105400004F925F926F927F92AF92BF92CF92DF9254
:10541000EF92FF920F931F93CF93DF931F921F92F0
:10542000CDB7DEB71A821982009709F479C06115E9
:10543000710509F475C02091B1023091B20207EFF5
:105440001FEF2F3F3F4F09F445C06B015C01412C1A
:10545000512C3201F12CE12C10E000E09E012F5F75
:105460003F4FA6014E195F09B5016E0D7F1D80915A
:10547000B1029091B2022ED4892B09F04BC08981E0
:105480009A81009741F4E114F10429F420918A07EC
:10549000222309F442C0E80EF91EEC14FD04D0F4F6
:1054A00080E8481684E858068EE16806710420F505
:1054B00060E070E0CB010E9438342AE0420E511CBB
:1054C000611C711C0A3F4FEF140721F0043F8FEF5E
:1054D0001807A1F4C8010F900F90DF91CF911F9191
:1054E0000F91FF90EF90DF90CF90BF90AF907F90A3
:1054F0006F905F904F90089501EF1FEF81E090E073
:10550000013F2FEF120711F090E080E0892B09F4A2
:10551000A5CFE0CF04EF1FEFDDCF0AEF1FEFDACF0B
:105520000FEF1FEFD7CF4F925F926F927F92AF92A4
:10553000BF92CF92DF92EF92FF920F931F93CF9380
:10554000DF931F921F92CDB7DEB71A8219820097A0
:1055500009F479C06115710509F475C02091B10293
:105560003091B20207EF1FEF2F3F3F4F09F445C0C4
:105570006B015C01412C512C3201F12CE12C10E02B
:1055800000E09E012F5F3F4FA6014E195F09B50154
:105590006E0D7F1D8091B1029091B2024ED3892B86
:1055A00009F04BC089819A81009741F4E114F1041C
:1055B00029F420918A07222309F442C0E80EF91E3B
:1055C000EC14FD04D0F480E4481682E458068FE021
:1055D0006806710420F560E070E0CB010E94383469
:1055E0002AE0420E511C611C711C0E3F4FEF140744
:1055F00021F0043F8FEF1807A1F4C8010F900F901E
:10560000DF91CF911F910F91FF90EF90DF90CF909E
:10561000BF90AF907F906F905F904F90089502EF92
:105620001FEF81E090E0023F2FEF120711F090E0B2
:1056300080E0892B09F4A5CFE0CF04EF1FEFDDCF89
:105640000EEF1FEFDACF0FEF1FEFD7CF8091B10230
:105650009091B2028F3F980749F0D0D2892B49F43C
:105660008FEF9FEF9093B2028093B10290E080E0C1
:10567000089584EF9FEF0895CF92DF92EF92FF920B
:105680000F931F93CF93DF9321E04115510509F04C
:1056900020E04150510921112CC0DC01FB01D12C2B
:1056A000C12C21E022C03FEFC31AD30A7D010D9126
:1056B0001D91E701EA80FB80E016F106A8F4208145
:1056C0003181E280F380F182E08233832283ED90A6
:1056D000FC9011979D0122503109E901F982E8827D
:1056E00011961C930E9320E03296C416D506D8F27C
:1056F000D2CFDF91CF911F910F91FF90EF90DF906C
:10570000CF900895FC01680F791F90E080E0E617C4
:10571000F70709F408952191820F911DF8CF209188
:105720008B07211113C045DE009791F41092910769
:105730001092900710928F0710928E0710928D078B
:1057400010928C0721E020938B07089584EF9FEF40
:105750000895AF92BF92CF92DF92EF92FF920F9394
:105760001F93CF93DF93009709F460C04630510533
:1057700008F45CC020918B07C7EFDFEF222309F408
:1057800049C08C01060F171FF801C080D180C114D9
:10579000D10409F44EC096012A5F3F4F42175307C8
:1057A00008F447C07C018091900790919107938302
:1057B0008283B6016C5F7F4F5801A60EB71EC801E9
:1057C000A1DFF5019183808364E070E0C80118DEF9
:1057D000EC01892BF9F481E090E007DEB601C80105
:1057E00004960EDEEC01892B91F462E070E0C501B5
:1057F00007DEEC01892B59F4C701D9DB80919007B2
:10580000909191070196909391078093900790E073
:1058100080E0EBDDCE01DF91CF911F910F91FF90E2
:10582000EF90DF90CF90BF90AF900895CFEFDFEF74
:10583000F1CFC9EFDFEFEECF6F927F928F929F9201
:10584000AF92BF92CF92DF92EF92FF920F931F938E
:10585000CF93DF9300D01F92CDB7DEB7009709F446
:105860007AC04115510509F476C020918B0707EFE6
:105870001FEF222309F44DC03A017B015C0164E073
:1058800070E0CE0101964FDE8C01892B09F041C0FA
:1058900009811A810115110509F45AC0480186E0F1
:1058A000880E911CB701680D791D8091B30290910B
:1058B000B40209DD6C01009709F450C0A70170E043
:1058C00060E00E94833A89819A81AB81BC81EC0CB3
:1058D000FD1CF70181939193A193B1937F0181E026
:1058E00090E083DDB801C7011EDE892B31F562E04F
:1058F00070E0C701800F911F16DE8C01892BE9F43F
:1059000090E080E072DDF501D182C082F3019182E6
:105910008082C8010F900F900F900F90DF91CF9170
:105920001F910F91FF90EF90DF90CF90BF90AF90BD
:105930009F908F907F906F90089590E080E055DD6C
:10594000F50111821082F30111821082C6012FDB52
:1059500009EF1FEFDECF0FEF1FEFDBCF06EF1FEFDB
:10596000D8CF0097A1F04115510589F021153105D7
:1059700071F0F90136966E177F0748F0DC012D9320
:105980003C93DA01ED93FC9390E080E008958FEF73
:105990009FEF0895AF92BF92CF92DF92EF92FF9266
:1059A0000F931F93CF93DF93009709F45FC04115C6
:1059B000510509F45BC06530710508F457C02091AA
:1059C0008B07C7EFDFEF222391F1DC01CD90DC9054
:1059D00011971296ED91FC9196012A5F3F4FC9EF06
:1059E000DFEF2617370719F5C0918C07D0918D0787
:1059F000209749F521E030E030938D0720938C0704
:105A00007A018C01F0938F07E0938E075601B4E082
:105A1000AB0EB11CB50176DE0A0D1B1DF80120810D
:105A200031818217930729F5D701CD92DC92CE01FF
:105A3000DF91CF911F910F91FF90EF90DF90CF906A
:105A4000BF90AF90089520918E0730918F072F5F00
:105A50003F4FCCEFDFEFE217F30790F2CBEFDFEF32
:105A60002E173F0768F2D0E0C0E0CACFCFEFDFEFDC
:105A7000DECFC3EFDFEFDBCF84E090E0089582E07C
:105A800090E008958CEF9FEF089580E290E00895F4
:105A9000109291071092900710928F0710928E0724
:105AA00010928D0710928C0790E080E008959093FB
:105AB000B4028093B302089580918B07882391F0FC
:105AC000C5DD009789F4109291071092900710920B
:105AD0008F0710928E0710928D0710928C071092EC
